:10000000004D0020EDAC0000731F0100D9AC0000D2
:10001000D9AC0000D9AC0000D9AC00000000000051
:100020000000000000000000000000005DAE0000C5
:10003000D9AC000000000000F5AD0000D9AC000014
:1000400015B00000112A010015B0000015B0000025
:1000500015B0000015B0000015B0000015B000008C
:10006000C729010015B0000015B00000FB290100F0
:1000700015B0000015B0000015B0000015B000006C
:1000800015B0000015B0000015B0000015B000005C
:1000900015B0000015B0000015B0000015B000004C
:1000A00015B0000015B0000015B0000015B000003C
:1000B00015B0000015B0000015B0000015B000002C
:1000C00015B0000015B0000015B0000015B000001C
:0C00D00015B0000015B0000015B00000D5
:1000DC00064B074A9B7802604FF490728280C37182
:1000EC000822FF2382710372704700BFB005002005
:1000FC00E1860000F8B5C41D002824F0070405466D
:10010C0014BF2046002000F0F9FA071E02DA6FF047
:10011C000B00F8BD0DB9FC42F9D4294E3189F08899
:10012C00F37AB27A0331033089B280B207F024FC3F
:10013C000028ECDB317873783C440334002D1944EF
:10014C0024F0030400FB01F114BF2046002000F052
:10015C0061FC20440DB90028D9DBB2780346B2B15A
:10016C00F17CF37811441944FF29D0DC0330002DC5
:10017C0020F0030414BF20460020F289C9B200F01D
:10018C009FFC031EC3DB23440DB9002BBFDB317C6A
:10019C0081B1B27872B10733002D23F0070414BF7C
:1001AC002046002001F08AFE031EB0DB23440DB96B
:1001BC00002BACDB002D0CBF18460020A9E700BFBC
:1001CC00B00500201FB572B6184BDD6AE5B9BFF358
:1001DC004F8F1749174BCA6802F4E0621343CB6088
:1001EC00BFF34F8F00BFFDE7B2FBF6F2DCB2013379
:1001FC00002AF9D104F110036B4403F80C2C0A22E9
:10020C0034B901A8A847E2E7024600230A26EDE725
:10021C00631E04AEDCB256FA83F3B0FBF2F602FBBB
:10022C001600303003F80C0C3046E9E7B00500201E
:10023C0000ED00E00400FA0507B50C4BDA7A8DF8F6
:10024C0001209A7A8DF8002068461A89DB88ADF86F
:10025C000420ADF8023001F0EDF818B1DB210320D9
:10026C00FFF7B0FF03B05DF804FB00BFB005002042
:10027C0038B5054668B306F0C3FB10B94FF0FF3034
:10028C0038BD03F0DFFEB0F5FA7FF7D8134C1448F5
:10029C00E562002500F0ACF92A222946204684F8B4
:1002AC00305006F041FF01236370A3701B23E380E1
:1002BC00238140F2032363811F23E38108232374EA
:1002CC00EFF3108472B600F0D1FC2CB962B6204664
:1002DC00D6E76FF01500D3E72846D1E7B00500202C
:1002EC004502000010B5002842D1244C94F830305F
:1002FC00032B3AD059B1002A3DD00239052937D801
:10030C00DFE801F0031428362B2E137863700020DD
:10031C00FFF7F0FE0028B7BF0123022384F830302A
:10032C006FF00B00A8BF84F8303010BD137913B3F5
:10033C00537903B31188FB291DD81A2953881AD96C
:10034C001B3BE02B17D81368C4F806300C4B928873
:10035C009A80DCE71378A370D9E71388E381D6E79A
:10036C001388FF2B07D82374D1E74FF0FF30DCE75D
:10037C006FF02C00D9E76FF01500D6E7B005002020
:10038C00B6050020F8B50D46064630B329B311F07A
:10039C00070422D1124F97F83030012B02D16FF0A5
:1003AC000B00F8BD032B02D14FF0FF30F9E700F042
:1003BC005FF80028F8D02846FFF79CFE0028EEDBFB
:1003CC0008F05AFB3046214601F078F8FFF734FF6D
:1003DC00032387F830302046E3E76FF01500E0E7A1
:1003EC00B005002010B5074C94F83030032B03D126
:1003FC0001F07CF801F08EFC07F0B4FB002084F8CF
:10040C00300010BDB005002050B1074B03F11402B1
:10041C0053F8041B40F8041B9342F9D10020704799
:10042C006FF01500704700BFCC40010010B5074BB2
:10043C0093F830403CB901F027F80120044900F052
:10044C0055F9204610BD4FF0FF30FBE7B0050020FA
:10045C00DD000000024B02681A600020704700BFEC
:10046C00E4050020014B1B68184700BFE405002081
:10047C00024B1868003818BF01207047E4050020B3
:10048C002DE9F743294E0446071D2848376001F033
:10049C0051FC0228054607D12449204606F074FF7A
:1004AC00284603B0BDE8F083042838D13378072BF5
:1004BC0018D13E2000F050F878B9F378327901A9C0
:1004CC0043EA02236846ADF8003007F0A4F900288F
:1004DC00DBD053210820FFF775FE052000F074F8DF
:1004EC000028EAD03146204606F0B3FFB0F5817FF4
:1004FC0001D37221EEE70028C7D094F8008094F85D
:10050C000290404600F028F80028BED0B8F13E0F0B
:10051C00C6D1484600F058F80028C1D1B5E70828E4
:10052C00BED10249204606F05EFFB9E7E80500207F
:10053C00074B4FF0FF3141F6FF72C3E9001205493A
:10054C000022C1E900221F21C3E90212704700BF3B
:10055C00000000202C0600203F280CD801380B4B43
:10056C00C0F3421200F01F0053F8223023FA00F0BF
:10057C0000F001007047FF2806D04038C0F342124B
:10058C00034B00F01F00EFE7012070470000002034
:10059C002C0600200146074B006849681A4603C226
:1005AC0040F48C221A6041F0107242F4FF625A60DF
:1005BC00704700BF000000200246024B00685168E3
:1005CC0003C3704708000020FD281ABF00F1FF305C
:1005DC00C0B23F20054B420903EB820300F01F0021
:1005EC009B6823FA00F000F0010070470000002027
:1005FC00014B1860704700BF3406002010B5FFF7A0
:10060C0097FF07F08CFC034B1B68044603B198471B
:10061C00204610BD340600200B880288F0B5C3F3C9
:10062C000E049EB204F11803C57CC35A02352A4449
:10063C002B4497B213FA82F3013B4288B3FBF7F3D6
:10064C0013FB07439BB29A42044A93BF22EA060368
:10065C00324013439BB20B80F0BD00BF0080FFFF04
:10066C004A1E062A08B50346084604D84FF4D17131
:10067C001520FFF7A7FD094A914202D940F2A311B8
:10068C00F6E711B903B1196008BD2BB11B68002244
:10069C00C3E901211A1D1A600430F5E7FAFFFF7F48
:1006AC0010B5114B00EB41041A786389B3FBF2F3DC
:1006BC0003FB0223013A1A44B2F5706F027928BF8A
:1006CC0000231A448378B2FBF3F0194403FB102087
:1006DC00091AB1FBF3F003FB101313446FEA434305
:1006EC006FEA5343638110BD38060020024B03EBC5
:1006FC0080035960704700BF380600202DE9F04F89
:10070C0010F0070A85B0054604D040F2611117209D
:10071C00FFF758FD554F07F10C06B1460446B0469D
:10072C004FF0010B57F8043B8DF80BA03BB101A81F
:10073C0098479DF80A30082B01D9E821E7E79DF886
:10074C000B1081BB05B13160B94506F10406E9D146
:10075C002DB3DFF81CE100238EF800301E46022278
:10076C0058F82200013A60B190F804A08178BAF1EF
:10077C00FF0F66D14FF000078E4207713CBFCEB21F
:10078C000123511CECD10BB18EF80060022640F60F
:10079C00FF6A58F82670002F65D1013EF9D2601B14
:1007AC0005B0BDE8F08F9DF80AC0BCF1020FE6461B
:1007BC0001F1050238BF4FF0020E0EF1FF3004EBD1
:1007CC0042040444CEF100002040BDF808406444CB
:1007DC00013CCCF1000C04EA0C04B4F5803F4FEA68
:1007EC00420301D3F82192E775B1C31A33609970B3
:1007FC001C8083F803B09DF80C201A71019A1A81A1
:10080C004FEA124CA3F806C004FB01049CE758F80D
:10081C002C90B9F1000F06D099F804B0D34504BF61
:10082C0099F802904F440CF1FF3CBCF1000FEEDA4A
:10083C003944FF29A0D90BB18EF8006040F2271182
:10084C0065E794460027F0E707EB41033846A3F829
:10085C000AA0FFF725FF09F10109BB785FFA89F1BE
:10086C008B42F1D899E74FF00009F6E73C060020DF
:10087C0038060020F8B54FF6FF730380184B03EBD6
:10088C00810305461869B8B186780379B3FBF6F293
:10089C0006FB1233DBB219460A1D00EB4202B2F919
:1008AC0002705488002F09DB0131B1FBF6F206FB14
:1008BC001211C9B28B42EFD10020F8BDFF29FBD039
:1008CC00C4F30E03C4782B8024B94FF4D5711720D0
:1008DC00FFF778FC5380BDE8F84007F02CB800BF58
:1008EC00380600201D4B03EB810370B51C690546CF
:1008FC0044B3030404D54FF4DC711720FFF762FCFA
:10090C000146204606F0F9FFFF28014604D0204698
:10091C00BDE8704007F00FB8A078B5FBF0F300FB12
:10092C001353DBB219460A1D04EB4206B6F90260FA
:10093C00002E09DB0131B1FBF0F200FB1211C9B240
:10094C008B42F0D1002070BDFF29FBD08B4204EB11
:10095C0042021CBF0023E3705580D8E73806002004
:10096C00094B03EB810310B51C690146204606F0C8
:10097C00C4FFFF28014604D02046BDE8104006F015
:10098C00DABF002010BD00BF38060020F8B5104BB0
:10099C0003EB810307461C690146204606F0ADFFB8
:1009AC00FF28054611D0E688238953EA064606D06F
:1009BC000146204606F0BFFF01463846B0472046A8
:1009CC002946FFF76DFE0020F8BD0520FCE700BFAF
:1009DC003806002038B50E4B827903EB82030446AF
:1009EC00186908B9052038BD8278E1799142F9D2AD
:1009FC004B1CE37100EB41035D89B3F90A30002B0A
:100A0C00F3DBA58006F097FF20600020EBE700BF2A
:100A1C003806002070B5044610F003000E4603D0D3
:100A2C004F211820FFF7CEFBFFF71AFE054624B125
:100A3C00034831460460FFF713FE284670BD00BF23
:100A4C00540600202DE9F14FDFF870B09DF828A076
:100A5C009DF82C901E46DBF8003007460D4690465C
:100A6C001BB961211820FFF7ADFB52460921404606
:100A7C0006F0FAFE4A4684B20921304606F0F4FE2E
:100A8C0014FA80F1DBF8000006F013FF386018B997
:100A9C00286001B0BDE8F08F04442C6038685346E0
:100AAC004146092206F0BFFE28684B460922314612
:100ABC0001B0BDE8F04F06F0B6BE00BF54060020F2
:100ACC001F2AF8B5044613460ED89200033222F0C2
:100ADC000303B3F5803F2DD2184DACB1A00710D055
:100AEC005F210920FFF76EFBFF2B4FEA420204D96E
:100AFC00FF339A42A8BF1A46E8E77C2AB8BF7C228B
:100B0C00E4E729706C602B8122F0030201EB810376
:100B1C001204D80001276B68120C0025EEB28E422D
:100B2C0000D3F8BD14B126181F705E601044013557
:100B3C002833F3E74FF0FF30F3E700BF58060020EF
:100B4C0038B5144A147853680021C8B2844203D8CB
:100B5C00AB210920FFF736FB184601310578283305
:100B6C00002DF2D000218170012412894470446858
:100B7C008161C161920800F12001051D21F8022B51
:100B8C00994245F8044B1444F8D100234361037097
:100B9C0038BD00BF580600202DE9F8434B7880463D
:100BAC000C4602F0040602F0FB07D3B1DFB12E4B6A
:100BBC00D4F804901D89B7BB01236370AD08A761FD
:100BCC00E76104F120034A46211D04F1280023F8B3
:100BDC00025B984241F8042B2A44F8D1002363614C
:100BEC0001E0002FE3D0FF23A370002E18BF0226D4
:100BFC00A3191B7D032B03D1022F1CBF0136F6B2A8
:100C0C00A31901221A7506F10C0204EB86060023C7
:100C1C0024F812307268A370C8F80020A8F80430C9
:100C2C004046BDE8F883002114226170A01806F03C
:100C3C007BFAB5F5FF7F0FD26B08ED1AADB209EB5D
:100C4C000502C4F804902584A2606384C4F80C9057
:100C5C00A5842261E384C6E7B5F5EE6F4FF0FF0380
:100C6C00EBD940F27265EAE758060020134B0122DB
:100C7C0000214FF0FF309A60C3F80012C3F808034C
:100C8C00C3F80015C3F804259A60C3F80803C3F829
:100C9C000015C3F804250A490A4A03F580334FF4BA
:100CAC000040C3F80825C1F88000BFF34F8FBFF395
:100CBC006F8FC1F88001C3F80825704700F0004021
:100CCC0000E100E00000F63F014B1876704700BFD2
:100CDC00640600202DE9F04104460D46164690F8B6
:100CEC00F03003F0FF071BB10C273846BDE8F0814C
:100CFC000146454804F08EFD20288046F4D0582249
:100D0C00394604F1C80006F00FFA84F8C880C4F81C
:100D1C00CC50FF2384F8F03035B101F059F800F0D5
:100D2C000700013085F8D40102234FF00008A4F825
:100D3C00003184F8F88003F08FF900F19E0520460D
:100D4C0007F0AEFDADB2014670B307F037FB00F50E
:100D5C00CD6189B2304603F039F93044C4F8FC0057
:100D6C0007F099FF281841F10001C4E94201012064
:100D7C0084F8D000A4F8268007F050FEE53E361A21
:100D8C00C4F8D4604FF0FF326FF00043C4E9442341
:100D9C0094F8C80004F1F80104F082FE48BB4FF44B
:100DAC00E5713020FFF70EFA204607F09DFCDFF8C6
:100DBC005C80E530C4F8FC00B8F8080048B1E08C61
:100DCC0038B101F005F8B8F80830B0FBF3F202FBCB
:100DDC001300054407F05FFF2D1841F10001C4E931
:100DEC004251002ECED0751941F10001C4E9445195
:100DFC00CEE7D4E942230021C4E93823C4E93A23DD
:100E0C00204607F06AFD70E7C17B00001C0700203C
:100E1C00F0B5002385B0CDE9003301238DF8063001
:100E2C006846FFF7D7FD70B11B4E0123B372002744
:100E3C00CDE9027702A8FFF7CDFD0546A8B1002346
:100E4C00B37205B0F0BD009806F06EFFE8E790F8BD
:100E5C00FB0105F0B5FB94F8FB0184F8E45104F0B8
:100E6C000DFD202384F8FB31E2E7029B002BE1D03F
:100E7C0093F8FB21202ADDD018884FF6FF73984297
:100E8C00DDD02946FFF76CFD04460028DFD14FF476
:100E9C009A713020FFF796F91C070020054B0022B1
:100EAC000121DA7219709A7242F210721A81FFF7EC
:100EBC00AFBF00BF1C070020014BD872704700BFAA
:100ECC001C070020014B1881704700BF1C07002035
:100EDC00F0B5070CA7F5AA42144B543A012A03EAC1
:100EEC0090231FD927F4004042F6AA22801A18BF7B
:100EFC0001200022162116461F2487EA060562EA05
:100F0C000505013510D0DD03ADB245EA5606E50303
:100F1C00ADB2013945EA52024FEA53034FEA540489
:100F2C00EBD1F0BD0020E4E70020FAE7E0FF3F0042
:100F3C0010B501210020FFF713FD044670B9012103
:100F4C00FFF7D0FC044620B940F24D313920FFF7B1
:100F5C0039F9034B93F9061007F08EFB204610BDB0
:100F6C002C07002008B507F02BFA00F045FC00F028
:100F7C00DFFA07F0F3FA00F0A7FD00F0B1FF00F084
:100F8C00BBFD094B00221B214FF4A47098801A80E2
:100F9C005980DA71054B064818605A829A75998007
:100FAC005A749A8208BD00BF2C070020540B0020F5
:100FBC0003021B00044B41F64C52C3E902221B22D4
:100FCC001A74FFF7CFBF00BF540B00202DE9FF416F
:100FDC00354DAB68044640F8303F06F0DCFE064663
:100FEC0000F096FA2B7C84F83830304B668710F082
:100FFC00200F1B681DBFAA886988A4F85A101B22F1
:10100C0008BFA4F85A20A4F85C201BB194F9701006
:10101C0020889847AE7CEF7CB5F8148041F64C5391
:10102C00A36116B900F07AFA064687BB00F076FA8F
:10103C00074676B368B303A920468DF80C608DF88B
:10104C000D70ADF80E8007F0FBF901236A88E3857B
:10105C00AB886978019103332978009103329BB2F4
:10106C0092B204F1140104F11000FFF7EBFC2369B8
:10107C0013B94FF4BE6114E0636913B940F2F15136
:10108C000FE0002004B0BDE8F0810920FAE7002E43
:10109C00D1D120880021FFF779FC0028F5D040F24F
:1010AC00D3513920FFF78EF8540B00204800002054
:1010BC00F7B505460E4607F012FB002874D02846FB
:1010CC0007F0EEFB40B1B6F80130013B7F2B03D9A2
:1010DC001224204603B0F0BD284607F0E5FB08B902
:1010EC000C24F6E7284606F0A1FE0028F8D1284685
:1010FC0007F0B3FA04460028F2D1284601F058FA5A
:10110C000028E5D0B6F80170F17842F21073284649
:10111C005F4307F0B2FB284607F0BAFB014658B90B
:10112C003A462846FFF7D6FD04460028D1D041F6B2
:10113C0015213920FFF746F821460DF10600FFF77F
:10114C0099FB064670B3214600F04AFCBDF8063008
:10115C0033802846314607F0B1FB284607F0AAFB3E
:10116C00A0B9296A284607F0A7FB01463046FFF7CD
:10117C002DFF04460028ACD13A4631462846FFF7ED
:10118C00A9FD044620B141F63821D2E70121EDE753
:10119C00064B9B68002B9CD0024606F58D713046A1
:1011AC00984796E70D2494E7422492E72C070020F9
:1011BC00034B5A8802801B7883700020704700BF55
:1011CC00540B0020F0B50778EF2F85B004460D4680
:1011DC0003D91225284605B0F0BDB0F80130ADF8A2
:1011EC000C309DF90C209DF80C30002AF1DB9DF899
:1011FC000D209107EDD1DA063FD49E0603F00302D1
:10120C0038D5002AE5D11807E3D46378190711D42F
:10121C002179E278E07942EA0122617942EA0142DD
:10122C00A17941EA0021207A41EA00418A42D0D8D2
:10123C001F2ACED9627A013A062ACAD8A27A032A80
:10124C00C7D813F0040102D1023A012A03D8E27A7A
:10125C00012ABED811B9A27C032ABAD813F0100106
:10126C00227D19D0012AB4D1227E012AB1D8B1B97C
:10127C001125AFE7032AC6D1ABE713F0600FA8D155
:10128C0003F00F0203F00703052BBED0931E012BB6
:10129C00BBD9002A9DD1B8E7022AE5D199E7DA0734
:1012AC001FD46378227D03F0180108291ED1022A6D
:1012BC00DED11B0709D4E279A37943EA0223227A0F
:1012CC0043EA0243B3F5804FD2D8BFB2012138466E
:1012DC00FFF746FB064678B106F0A8FDB8B10C2521
:1012EC0078E700F0E5F80028DBD1C1E7022AE0D06E
:1012FC00227F002ADDD0BBE701213846FFF7F2FA46
:10130C00064650B3164B93F9061007F0B5F9304664
:10131C0007F0BBFA21462870E074304607F000FA5B
:10132C00E37E0546002B3FF455AF00287FF452AF07
:10133C00316B02466846FFF72FFC306B2A460121C1
:10134C0006F062FB316B68460422FFF725FC306B1C
:10135C002A46294606F058FB3CE707253AE700BF2A
:10136C002C07002070B50579042D8AB003465CD893
:10137C004488B4F5804F58D82D48465D2844002148
:10138C004279857AC07BADF8001042F0100242EA37
:10139C00460242EA850242EAC00202F01F028DF8C0
:1013AC000020BDF80020ADF809201A888DF80B201C
:1013BC008DF80E40120A240A8DF80D108DF81010BD
:1013CC008DF80C208DF80F405A7B8DF811205A792E
:1013DC008DF812209A79D3F807008DF81320B3F802
:1013EC000B209B7B8DF81A307F238DF81B3001234B
:1013FC008DF8081005908DF81D10ADF818208DF89B
:10140C001C308DF81E3002A88DF81F108DF820109E
:10141C008DF823108DF824108DF821108DF82210E2
:10142C006946FFF7CFFE0AB070BD1220FBE700BF84
:10143C00F03901000278034672B1427862B14288F9
:10144C001A2A09D982881A2A06D9044A0068106017
:10145C009B8893800020704712207047540B00200B
:10146C00024B02689A600020704700BF540B0020AA
:10147C0008B501F095F8FFF711FDBDE808400148EB
:10148C0001F078B83807002010B5064C064904F571
:10149C00027006F075FF04F503700449BDE81040B6
:1014AC0006F06EBF380700204C00002054000020CE
:1014BC00014B93F8020170473807002010B5074C18
:1014CC0000F014FCD4F8080206F052FFFFF772FD8E
:1014DC0000F096FC012384F8143210BD380700206C
:1014EC00014B93F8140270473807002010B5074CD5
:1014FC00D4F80C0206F03CFFD4F8100206F038FFCA
:10150C00FFF730FD002384F8143210BD380700209B
:10151C00014BD3E90001704710000020034B186801
:10152C00C0F30020400040F0010070471000002084
:10153C0008B502F087FD084A002332F823108142D7
:10154C0005D302EB83039B78044A137008BD013367
:10155C000C2BF2D10023F7E7043A01004D090020CF
:10156C00054B9A8C824201BF002283F822204FF651
:10157C00FF729A84704700BF4E09002050B90A4A86
:10158C001346012003F8010B0868C2F801008A8891
:10159C009A807047012805D1034B0A689A608A88A3
:1015AC00D8719A81704700BF7809002048B90A4B5E
:1015BC00187880B1D3F80120B3F805300A608B801D
:1015CC007047012806D1044BD87920B19A680A607B
:1015DC009B89F4E7002070477809002020B9054B5F
:1015EC00187800F00100704701280ABF014B002059
:1015FC00D879F6E778090020F7B500228B888DF8AA
:10160C000600ADF8043008680C4B8DF80720019DDE
:10161C001C78014603F5AC73D0B2844201D8082083
:10162C0009E0D3E90076AE4208BF8F4203F108030C
:10163C0002F10102F0D103B0F0BD00BF8809002017
:10164C0030B5094B01465C78002203F58173D0B2AA
:10165C00844201D8082005E013F8015B8D4202F1A9
:10166C000102F4D130BD00BF88090020F0B5254D32
:10167C0095F8984189B0224605F29911684605F013
:10168C00BFFD2146684606F0BAFE0446B8B300EB2F
:10169C004001C9B202A8FEF7E5FE601E95F8A161F3
:1016AC00C0B2012495F8982105E0731CB3FBF2F14C
:1016BC0002FB1133DEB206F120030DEB030111F82E
:1016CC00203C002BF1D100EB400220326A4406EBA7
:1016DC0046032B4412F8187C83F8A27112F8177C7D
:1016EC0012F8162C83F8A37183F8A42101F8204C6E
:1016FC000138AB19C0B2FF2883F89941D2D109B097
:10170C00F0BD00BF8809002070B5064688B00C46B5
:10171C00002A4FD02A4A92F8A131D01890F899118A
:10172C0021B94FF480712820FEF74CFD03EB4301E7
:10173C001144013391F8A251E57091F8A35191F83D
:10174C00A41161710021257180F8991192F89811FA
:10175C00B3FBF1F001FB103382F8A13192F8C231E6
:10176C0023B9184902F5DD7006F01AFF657905F00A
:10177C003F0545F0400565710D220021684605F0D6
:10178C00D3FCE3788DF80F3023798DF80E3004AA52
:10179C000423694630468DF80D5005F067FA9DF824
:1017AC001F3023709DF81E3063709DF81D30A370A0
:1017BC0008B070BD03216018FEF754FED6E700BFD9
:1017CC008809002079160000044B5A78824286BFA3
:1017DC001B1893F84A010020704700BF88090020AD
:1017EC00044B5A78824286BF1B1893F842010020A2
:1017FC00704700BF88090020064B00224FF461712E
:10180C001A8083F8C32183F8C421A3F8C61183F886
:10181C00C221704788090020014B83F8C40170472E
:10182C0088090020014BB3F8C601704788090020D5
:10183C0030B50A4B5C7884420ED9184490F80201FA
:10184C002B3003EBC004A5790D7053F830001060F9
:10185C00A3889380012030BD0020FCE7880900207C
:10186C000246074810B590F8C34124B1417821B124
:10187C00023001F03FF8204610BD0C46FBE700BFDC
:10188C00880900202DE9F74F2F4C9A466378834244
:10189C008046894656D9231893F8425185F00105A4
:1018AC00F9B193F84A31E3B945F002070135BAF1C1
:1018BC00000F18D1FA070AD5062101FB084104EBE9
:1018CC000810524601F585718230FFF71DFFBB07EA
:1018DC0034D504EB0810524649460230FFF714FF8A
:1018EC002CE02F46E3E794F8A1614FF0010B002D9B
:1018FC00E0D0A319019393F8991199B90092DAB138
:10190C0000F04EFA06EB46012144019B81F8A2013E
:10191C004FEA102C009A81F8A3C1000C81F8A401A5
:10192C0083F899B194F898310136B6FBF3F103FBC7
:10193C001166F6B2013DDAE747F00407384603B00A
:10194C00BDE8F08F0027F9E788090020074B5A788B
:10195C00824209D91A1892F842212AB9062202FBAE
:10196C00003000F585707047002070478809002012
:10197C00064B5A78824281BF1B1893F83A01B0FA91
:10198C0080F0400998BF0020704700BF88090020F4
:10199C0030B50024A0F84040B0F8444042F2107535
:1019AC004C43B4FBF2F4A0F84440541E05FB034333
:1019BC00B3FBF2F3A0F84230084BB3FBF2F3013364
:1019CC00A0F84830838F05FB0344436BB4FBF2F45F
:1019DC0059438463B1FBF2F2426330BD005A620298
:1019EC0070B504460D4651BB4FF41C7205F09CFBC0
:1019FC00012384F88E306FF0360384F8D930042339
:101A0C0084F8DA306FF03B0384F8DB306F2384F812
:101A1C00DC306FF03C0384F8DD30062384F8DF30D3
:101A2C002B2384F8D830FE2384F80E317F2384F8DE
:101A3C008530202384F8DE5084F8FB3170BD0129F9
:101A4C0022D10023A0F8BC3180F8B331144B826949
:101A5C001344B3FBF2F3C0F8B03040F6B833A0F83F
:101A6C00B4301146438C7830FFF792FF05F016FA2C
:101A7C0030B1E069FFF72CFA10B984F89F51DDE71B
:101A8C00002384F89F31D9E70229D7D1B0F852321C
:101A9C00D0F84C228169BDE870407830FFF778BFF0
:101AAC007FC3C901074B93F900301844142804DC98
:101ABC0010F17F0F03DB40B27047142070476FF0BA
:101ACC007E007047500B0020024B00221A705A7097
:101ADC00704700BF500B0020054BFF221A70054ABF
:101AEC00016811600179117100221A70704700BFF2
:101AFC00520B00201800002007B5064B1868009008
:101B0C001B798DF804306846FFF7E6FF03B05DF8EB
:101B1C0004FB00BFE140010083230B70014B1B78D9
:101B2C00CB7070476C0B00202DE9F347DFF85C811C
:101B3C008246894605270025D9F8103053B11B7A07
:101B4C001BB97E211020FEF73DFBD9F81040B4B92B
:101B5C00002070E0D9F80440237A012BF8D0EFF381
:101B6C00108372B6D9F804201268C9F8042003B99E
:101B7C0062B6C9F81040237A0BB9A421E2E7267AA1
:101B8C00F6B22772731E0B2B6DD8DFE803F06906D3
:101B9C001C33666C3C6C6C6C6C57636813B94FF4FB
:101BAC00D471CFE72046514698470420EFF31083B9
:101BBC0072B6227A052AD1B25FD12572C9F81050BB
:101BCC00ABB962B613E0636813B940F2B111B9E76F
:101BDC005146204698470346C3F30723012BADF823
:101BEC000400C0B242D0022BE0D1C9F8105000283A
:101BFC00A2D020E0636813B940F2B911A2E72046E5
:101C0C0098470020D2E763680BB9B3219AE70B22FF
:101C1C008AF8002019881869AAF8031001220024F8
:101C2C008AF802208AF805208AF8064005F02FFE73
:101C3C00C9F81040042002B0BDE8F087606810B904
:101C4C0040F2E1117EE7D8F8003051469847034640
:101C5C0060B1C9F810500220EDE74FF4F97171E74B
:101C6C0040F2F5116EE74FF4FC716BE72672002819
:101C7C00E1D1002B7FF460AF6AE711B940F2192172
:101C8C0060E7002B7FF458AF62B655E75C0000208C
:101C9C0070B5144C1426231D32460021184605F04D
:101CAC0043FA03460125257400210433324604F11E
:101CBC001800C4E9013305F037FA84F824500A4AB5
:101CCC0004F11C03C4E906330023E362236384F8A4
:101CDC003430C4F83530C4F8393084F83D301360F2
:101CEC0070BD00BF6C0B00206000002010B5084CCC
:101CFC002378FF2B04D04FF49D711020FEF762FA6D
:101D0C0004F0FCFF2070BDE81040FFF7C1BF00BF1E
:101D1C001D00002010B5034C207805F00BF8FF23B4
:101D2C00237010BD1D000020014B187805F012B86F
:101D3C001D00002010B506490446FFF7F5FE28B932
:101D4C0020460449BDE81040FFF7EEBE10BD00BFB1
:101D5C00840B0020700B002010B51346027A22B1C0
:101D6C0040F295211020FEF72DFA0A46BDE81040EE
:101D7C000146014806F0F4BB700B002003460648F0
:101D8C0090F83E203AB190F83D2022B900F8353B4E
:101D9C00024906F002BC70476C0B0020251B0000AA
:101DAC00094AD2E90003434083EAB01181EA432196
:101DBC004FEAF3435360054B116058434FEAF06010
:101DCC0000EB8000704700BFAC0B0020BB79379E46
:101DDC00094AD2E90003434083EAB01181EA432166
:101DEC004FEAF3435360054B116058434FEAF060E0
:101DFC0000EB8000704700BF20000020BB79379EAD
:101E0C0010B50A4C09480821FEF72CFBD4E9002335
:101E1C001343F7D0064CFFF7DBFF2060FFF7D8FF2A
:101E2C00236860600343F6D010BD00BF2000002083
:101E3C00AC0B0020F0B5204E054630780024147011
:101E4C0080B1431E7768DBB2181B01280BDC07EB53
:101E5C00C40057F834604068884208BFAE4212D1C3
:101E6C0014700120F0BD1819461007EBC60E57F878
:101E7C0036C0DEF80460AC45C0F347008E412CBF81
:101E8C0003460446E0E7B54271EB000002D2147041
:101E9C000020E7E707EBC30057F83340406888425F
:101EAC0008BFAC4201D11370DBE7A542814128BFCA
:101EBC0001331370ECE700BFD40B002010F00702C5
:101ECC0008B503D063214820FEF77CF918B1034B09
:101EDC00197258601A70C80008BD00BFD40B0020DE
:101EEC00014B00221A707047D40B0020014B187A5A
:101EFC00704700BFD40B00202DE9D34306F05DFBE7
:101F0C000DF1070207460E46FFF794FF98B9114CE6
:101F1C002278237A93420ED0616813466FF0604E9C
:101F2C009DF80700984209D301EBC003C3E9007682
:101F3C0001322270012002B0BDE8D08303EB0E0009
:101F4C0001EBC000D0E90089013BC0E90289DBB29A
:101F5C00E6E700BFD40B002037B506F02EFB0DF1E1
:101F6C000702FFF767FF0446A0B10C4A9DF8070073
:101F7C0013785568013BDBB213701A1AD2B2411CAC
:101F8C00D200834238BF002205EBC10105EBC00033
:101F9C0005F084F8204603B030BD00BFD40B002000
:101FAC0038B5074D044600F15101286806F04CFA8B
:101FBC0094F850102868BDE8384006F053BA00BFBA
:101FCC00F40B0020F8B504460E466588407F15F0EA
:101FDC000401134618BF04F15F013246FFF752FCAF
:101FEC00C20705460BD5012384F85030607FFFF7FC
:101FFC00ADFC0368C4F851308388A4F85530AB07A6
:10200C000CD5094E0127306884F85E7004F15F012D
:10201C0006F021FA3068394606F02DFA85F00400F6
:10202C00C0F38000F8BD00BFF40B002038B5C38DA1
:10203C000E4D0133C385AB7C04462BB101F0D2F9B4
:10204C0000F08AFC0023AB7400232B7194F87130E0
:10205C002BB101212046BDE8384005F0A8BE637CB9
:10206C0013B1E28D9A42F4D20021F3E7F40B002075
:10207C0010B5094C2379012B02D02379022B05D101
:10208C00A37C1BB101F0AEF900F066FCE069BDE881
:10209C001040FFF7CBBF00BFF40B002070B5294CEC
:1020AC002379012B07D02379022B04D040F6384139
:1020BC002D20FEF787F8A0B90125A37C1BB101F0F8
:1020CC0091F900F049FC002D3AD0E06905F051FE81
:1020DC00002830D001F09CF8236ABDE870409B6862
:1020EC0018472168E26911F8095B02F15103E8090C
:1020FC0092F8502006F065F90028DDD02068002108
:10210C0006F0DEF90028D7D02379E069012B05D041
:10211C002379022B02D040F61141C9E72379226AB8
:10212C0003F180435269013B05F00F0152F8233053
:10213C0098470546C1E7E069BDE87040FFF776BFF8
:10214C0070BD00BFF40B0020074A0346D06903B9E9
:10215C0009B9FFF76BBF1379126A03F18043126957
:10216C00033B52F823301847F40B00202DE9F043C1
:10217C00032985B0054690467BD090F87030052930
:10218C00DBB202D14288D60760D5002B5ED1012785
:10219C00DFF8E89099F81260B6B106F047F9082814
:1021AC0088F8000014D002AA0DF10701FFF740FBDC
:1021BC0020B940F6A4612D20FEF704F89DF8070025
:1021CC0002A906F006FA064698F80030082B08D14A
:1021DC00D9F8001011F8030BC0F3801006F0F9F9D0
:1021EC000646D9F8001095F8572011F8030B05F1A5
:1021FC005803C0F3801006F0E4F8D9F80010044638
:10220C0011F8030BC0F3801006F006F98146FFF7B6
:10221C00AFFB014640B1B9F1080F1BD04846FFF7A0
:10222C00D3FA80F00101C9B298F80000082815D043
:10223C0094B96B7F1C1A604260416B885A0706D4B4
:10224C0021B996B9EB7C93B1BB4210D0002005B0FC
:10225C00BDE8F0830021E7E70120EEE714B181F03F
:10226C000104E4B204F00100E7E73046EFE7012097
:10227C00EDE743889B07E9D5022789E7F40B00209B
:10228C00032973B5044604D0052952D0012002B0AD
:10229C0070BD08230DF107028DF80730FFF766FFBC
:1022AC000028F3D0237C284D03B39DF8070094F845
:1022BC00BE30DBB9237884F8BF30082804F1C102A2
:1022CC0028D004F1C001FFF7B3FA20B940F61A7117
:1022DC002D20FDF777FF94F8C03043F0020384F80B
:1022EC00C0301A4904F1B60006F057F92B680622E3
:1022FC0004265A701E702046FFF752FE94F84020B8
:10230C00E16B286806F0CDF828682E7101F020F8F2
:10231C000020BCE72868034613F8031BC1F38011A7
:10232C0084F8C010D0F80310C4F8C1109B889380B7
:10233C00D7E7074B1B6823B1984780F00100C0B268
:10234C00A5E71846A3E700BFF40B0020F3850000B7
:10235C0064000020F8B504460F4619B300F12805B7
:10236C00284606F034FBA0B963881A072ED52846F8
:10237C0006F044FB0646284606F029FB301AC0B28C
:10238C0006F04CFB444A936803442846936006F0DD
:10239C00FAFA284606F0FCFA00F0CEFE2179252048
:1023AC0000F0E4FD3C4D94F85E2028680023037097
:1023BC0043706388103B0D2B5ED8DFE803F0595D4A
:1023CC00550C5D405D5D5D5D5D5D5D402046BDE82D
:1023DC00F840FFF72BBE06234370202303702046E2
:1023EC00FFF7DEFD638823F008039BB2152B05D0A5
:1023FC0094F83820616B286806F044F8286800F0DF
:10240C00A7FF032321792B71002000F09BFE0646C9
:10241C0007B9E86063881B0704D506F0FCFA06448C
:10242C00C4F8D8606388103B0D2B30D8DFE803F07C
:10243C00322F29292F292F2F2F2F2F2F2F290C23E4
:10244C0043702123037042B104F15F0106F003F8DD
:10245C000121286806F00FF8C1E704F1580105F0D6
:10246C00FAFF94F85710F4E7062303704370B6E7AD
:10247C00022303700623F9E740F21F612D20FDF7BC
:10248C00A1FE21790120BDE8F84000F0B9BF40F66B
:10249C00AB41F3E7F8BD00BFF40B002038B543881F
:1024AC00102B044604D1BDE838400121FFF752BF80
:1024BC000B4DAB7C23B100F035FA402000F086FFC9
:1024CC00286800F045FF608810F0040002D12179E3
:1024DC0000F096FF002000F055FF01232B7138BD52
:1024EC00F40B0020024B0121D869FFF733BF00BF6A
:1024FC00F40B002010B5134CA37C1BB100F072FF41
:10250C0000F02AFAE06905F034FC70B12379E06937
:10251C00012B0FD12379226A03F18043D268013B4E
:10252C00BDE8104052F823301847E069BDE8104070
:10253C00FFF77CBD2379022BECD040F63B312D20EC
:10254C00FDF740FEF40B002010B50948037903F0A9
:10255C00FF0453B918222146043004F0E5FD00F0C5
:10256C0041FF00F0F9F9204610BD0C24FBE700BF39
:10257C00F40B002010B5094C002323712060FFF7E9
:10258C00E3FF20B140F2EA212D20FDF71BFE236A68
:10259C0013B940F2ED21F7E710BD00BFF40B00209A
:1025AC00014B024A1A627047F40B00207428000099
:1025BC002DE9F041067DB31EDBB2012B04468CBF26
:1025CC004FF000084FF001087EB3B71E18BF01276B
:1025DC00012B36D800F1580190F8570005F01CFF7C
:1025EC00082805462DD0FFF7FBF858BB657784F813
:1025FC001C8084F85070FFF715F9054606F04BFB6C
:10260C00174BA5FB03351B1845EB01050022C4E94C
:10261C00123584F85E2011462046FFF7D3FC70B9C2
:10262C0040F275412D20FDF7CDFD3746082504F10C
:10263C0051010020FEF7BAFF0028D7D10020BDE8D9
:10264C00F0810825022EF2D0E37E002BF6D0D4F8D0
:10265C001530C4F85130B4F81930A4F85530C5E72A
:10266C0040420F00F0B5464E327985B0044602F078
:10267C00FF0312B90278FF2A04D140F6A2112D20D3
:10268C00FDF7A0FD3382B3607371B37180F87130C4
:10269C003C4B00933C4B01933C4B0293336A684692
:1026AC005B68039300F04CFE00F08CFC00F09AFE8B
:1026BC0000F052F9364800F019FD04F128053548B0
:1026CC0000F038FE284606F05EF9284606F060F960
:1026DC0000F032FD2179252000F048FC94F912001D
:1026EC0000F0FEFC04F13401206B05F0AAF904F1B2
:1026FC003C010746206B05F0CBF9054617B194F861
:10270C002430C3B90DB194F82550237F13B96388D5
:10271C005B0709D5D4E912126FF000439A4208BF47
:10272C00B1F1FF3F09D185B930680330FFF798F854
:10273C00B07405B0F0BD0125E7E706F0ACFAD4E9BA
:10274C001223904271EB0303EDD3012205EA02013F
:10275C002046FFF737FC68B1FFF764F8054606F032
:10276C009AFA0D4BA5FB03351B1845EB0105C4E983
:10277C001235D9E7002DD7D040F6D7117FE700BF2F
:10278C00F40B002001250000A920000055210000B9
:10279C00D6BE898E5555550040420F00F7B50446FC
:1027AC00FFF760FF00212046FFF7D4FDA36E0BB1AD
:1027BC0001221A606388DB0721D50023114E256A9C
:1027CC00CDE90033FF23F37405F10A076846FEF7E1
:1027DC0001F9A0B9009CA542F8D06A7A607A3B4610
:1027EC0004F10A0105F0EDFD0028EFD0A378F37495
:1027FC00D4F803007061044BB4F807209A8003B03E
:10280C00F0BD00BFF40B0020080C0020024BD86177
:10281C001B6A1B68184700BFF40B002043881B077A
:10282C0010B5044611D5036A0A493C2280F87B2076
:10283C001B88A0F87C30FF2380F899304FF6FF738B
:10284C00A0F89A30723005F0A8FEFF2384F871309E
:10285C0010BD00BF0B8600008D220000A9240000D3
:10286C00638600005D860000A92700007D20000023
:10287C00F124000070280000682800006428000083
:10288C000138022808B503D9C3212F20FDF79AFC83
:10289C0013290A4B05D811290CD8102907D0D1219E
:1028AC00F3E71529FBD103EB4003D88801E033F89B
:1028BC00100008BD03EB40039889FAE7B43A010015
:1028CC00064BD3F8000138B1D3F8040120B1D3F88A
:1028DC000801B0FA80F04009704700BF00F00040DA
:1028EC00034B00221A705A7010229A70704700BF66
:1028FC00300C002070B50646022014460D4600F040
:10290C00B9F8064B01221A70054B033CC3F810456D
:10291C00C3F80865C3F8045570BD00BF300C002027
:10292C0000F0004008B5022000F0A4F8084B01228A
:10293C001A70084B0022C3F80021C3F80421C3F815
:10294C00082103F580334FF40002C3F8042508BDB9
:10295C00300C002000F000400D4A08B513787BB114
:10296C000C4B4FF40001C3F80815FFF7A9FF60B139
:10297C0001235370084BD3F8003493700023137069
:10298C00BDE80840002000F075B850701023F4E743
:10299C00300C002000F0014000F000400A4B1A7887
:1029AC006AB10A4BD3F800215AB1D3F8040120B113
:1029BC00D3F80801B0FA80F04009C0B270475878DB
:1029CC0070470220704700BF300C002000F0004020
:1029DC0008B5074B1A783AB1FFF772FF30B1054BC7
:1029EC00D3F80004C0B208BD9878FCE71020FAE7D1
:1029FC00300C002000F00040024B00221A705A707C
:102A0C009A707047330C0020084B1A784AB1084969
:102A1C00084AC1F808250022C1F89825C1F89C2560
:102A2C001A7000225A709A70704700BF330C002045
:102A3C0000F001400000020208B50B4B4FF40042BD
:102A4C00C3F88020BFF34F8FBFF36F8F074B00226B
:102A5C00C3F80025C3F80025FFF7D6FF044B4FF44D
:102A6C000002C3F8082508BD00E100E000F00040BA
:102A7C0000F0014038B5144C0023C4F80035C4F8FC
:102A8C0000350546FFF7C0FF104B4FF40002012D37
:102A9C00C3F8082503D0022D08D085B938BD022310
:102AAC00C4F800350A4BC4F81435F7E70321C4F811
:102ABC0000150749C4F81415C3F80425EEE7842162
:102ACC003D20FDF77FFB00BF00F0004000F001400F
:102ADC00380C0020024B00221A809A701A71704731
:102AEC00480D002038B5144D95F83520034608469E
:102AFC0022B940F692013E20FDF764FB6BB9012A26
:102B0C002C6B95F8341005D100F0F0FD2044AB6A25
:102B1C00C01A38BD06F019F8F8E7012B0AD1012AC2
:102B2C002C6B95F8341002D100F0D2FDEEE706F0D4
:102B3C0017F8EBE70020EAE7480D002008B5094B31
:102B4C00012883F82000084B06D0022808D040F654
:102B5C00E1513E20FDF736FB0322C3F8102508BDDA
:102B6C000422FAE7480D00200010004008B5144B71
:102B7C0093F84130D90720D59A070ED5114BD3F8CD
:102B8C00002242F00102C3F80022D3F8500500F0F5
:102B9C00F600023818BF012008BD5B070DD50A4BA3
:102BAC000A4AC3F8AC25A3F5B833D3F8403123B1A6
:102BBC0040F241613E20FDF705FB0120ECE700BF30
:102BCC00480D00200010004000F0014008100040AB
:102BDC0007B50B4A01AB92F9212000F0CBFD9DF912
:102BEC00040000F06DFD9DF8050000F037FE20B1EB
:102BFC0040F20A613E20FDF7E5FA03B05DF804FBF4
:102C0C00480D002008B503460F4863B92831C16050
:102C1C000E4900F00BFE0130012814D940F264710A
:102C2C003E20FDF7CFFA012B0AD12931C1600749AB
:102C3C0000F002FE0130012805D940F26E71EFE779
:102C4C0040F27271ECE708BD28000020D43A010074
:102C5C0008B50C4B9B78012B09D100F0F3FD01302A
:102C6C0001280ED940F6E3013E20FDF7ABFA022B0A
:102C7C0007D100F0EDFD0130012802D940F6E90141
:102C8C00F2E708BD480D0020044B03441A7E044BA8
:102C9C00C3F80825C3F85405704700BFD43A0100A7
:102CAC000010004038B50D460446FFF747FF284694
:102CBC00FFF7EAFF29462046104DFFF789FF40F247
:102CCC000313C5F8343540F25B63C5F8383504F0AE
:102CDC00E5F890B14FF08053D5F88825D3F8203320
:102CEC00022C22F4FE420CBFC3F30663C3F306238B
:102CFC0042EA0323014AC2F8883538BD001000406F
:102D0C0010B50C46FFF71AFF2046FFF7BDFF124B1C
:102D1C005A78012A03D1D8782146FFF759FF0F4C76
:102D2C00D4F8003243F48873C4F8003240F2031331
:102D3C00C4F8343540F25B63C4F8383504F0AEF8AF
:102D4C0040B904F0BBF828B9D4F8683543F4C02373
:102D5C00C4F8683510BD00BF480D002000100040BD
:102D6C00F8B53D4C0D4616460746002847D110468F
:102D7C0094F82210FFF796FF22780123A3709A4251
:102D8C00364B4FEA46061E4429D1B6F840304FF474
:102D9C007A7203F5FA73B3FBF2F3ED1AA16A304BB6
:102DAC00304A0D44C3F8405503F5A073C2F8A8355A
:102DBC00A36B43F40023A3634FF40023C2F8043540
:102DCC0023789BBB94F8413043F0020384F84130E4
:102DDC00FFF7CCFE044680BB40F2536123E0B6F80B
:102DEC0046304FF47A7103F5FA73B3FBF1F3ED1A35
:102DFC00002AD3D11B4B1C4AC3F8AC25CEE70128C3
:102E0C000FD194F822101046FFF77AFF0223A3701B
:102E1C002378012BC2D0293D002BBFD1114B134A73
:102E2C00EAE740F614013E20FDF7CCF9012BCFD197
:102E3C0094F8413043F00403C8E7094B0122DA64EB
:102E4C00D3F84C359D4205D929463846FFF7DAFEB2
:102E5C002046F8BD0024FBE7480D0020D43A0100C1
:102E6C000080004000F001400010004004100040C1
:102E7C0010B558220021194804F056F9FFF72AFE24
:102E8C0003F0C2FF60B124221548FF2104F04CF975
:102E9C004FF080430022C3F8082EC3F8102E10BD4B
:102EAC0003F0BCFF0028EED103F0C2FF0028EAD1EA
:102EBC0003F0DEFF08B14022E6E703F0CFFF044643
:102ECC000028F8D106483822FF2104F02DF94FF0E4
:102EDC008043C3F8084EC3F8104EE0E7480D0020BD
:102EEC00000E0040024B0344187E00F5166070473C
:102EFC00D43A0100094AD2E90A3092F83410C01AC7
:102F0C00074B03EB8103DA6C9B6D801A03F2F3130E
:102F1C004FF47A72B3FBF2F3C01A7047480D0020DD
:102F2C00D43A010008B50F4A92F83410012906D0A2
:102F3C00022914D040F2B2213E20FDF743F940F6AD
:102F4C00B830D2E90A239B1A074A02EB8102D26CF1
:102F5C009B1A4FF47A72B0FBF2F0184408BD4FF490
:102F6C00FA60EEE7480D0020D43A010008B5134B87
:102F7C00012983F8400006D002291BD04FF441717F
:102F8C003E20FDF71FF900230D4A43F4801340F057
:102F9C00007043F4847340F44030C2F81435C2F826
:102FAC001805D2F8503503F0F703032B05D140F286
:102FBC001B31E5E74FF08073E6E708BD480D0020B4
:102FCC00001000403F4B022270B5C3F88020BFF3C5
:102FDC004F8FBFF36F8F3C4C0023C4F8FC3F012391
:102FEC00C4F8FC3F03F06AFF28B1D4F83C3743F433
:102FFC008063C4F83C3703F025FF58B1D4F83C3754
:10300C0023F0004323F0FF0343F0004343F0960307
:10301C00C4F83C3703F042FF2B4C38B1D4F840379E
:10302C0023F47F4343F4B053C4F84037274BC4F820
:10303C00783700F023FC38B14FF08053D3F830339D
:10304C00591C18BFC4F84C374FF010231E4C1B6E84
:10305C005A1C09D0D4F88C251B0403F47F0322F4EA
:10306C007F021343C4F88C35194D0123C4F8303555
:10307C0085F820300323C4F8103540F20123C4F83E
:10308C0050360226134BC4F80062187C00F0FCFB8F
:10309C00114B124AC3F804250023AB862B6385F829
:1030AC00413002F005FC074BA8621022C3F8806186
:1030BC00C4F804231E60AB6D03B19847BDE87040A3
:1030CC0000F0A8BB00E100E0001000402C000089DB
:1030DC00480D00202800002000F001400000020CE8
:1030EC00014B83F821007047480D0020034B020E62
:1030FC000002C3F82425C3F81C05704700100040DB
:10310C0038B5044600680A4DFFF7F0FF094B6268BA
:10311C00C3F83C25237A85F82230617AA07AFFF730
:10312C0025FF607AFFF70AFDE37A85F8213038BD78
:10313C00480D002000100040014B83F8220070471E
:10314C00480D0020F8B5244E96F84130DA070546B4
:10315C000F4604D44FF4F5613E20FDF733F81F4CB5
:10316C00D4F8002243F0020342F00102C4F800221A
:10317C0086F8413000BB96F822103846FFF792FDD6
:10318C00174A0123B370D3642360154BD3F84C4515
:10319C0028462146FFF736FDB06A241ACDB91149ED
:1031AC0001EB47074FF47A71B7F8460000F5FA7057
:1031BC00B0FBF1F02044F8BD0128E6D196F82210BE
:1031CC003846FFF79DFD0223B370054BDD64656047
:1031DC00DBE704F12900EEE7480D00200010004069
:1031EC0000800040D43A010008B5FFF7B9FD58B98A
:1031FC00064BC3F84005A3F5E04301221A610220F7
:10320C00BDE80840FEF7BABD08BD00BF0080004015
:10321C0037B5244B2449D3F8044302224FF0FF3036
:10322C00C3F80803C1F880212049C3F8002200220A
:10323C0081F841201E49C1F8402501F5B8314FF401
:10324C006025C1F80855D3F85015C9B204F0100424
:10325C00D1B18DF80700C3F8102101221A619DF835
:10326C00072012B1D3F810213AB19DF807305BB9A1
:10327C0040F6D2013E20FCF7A5FF9DF80720013A4D
:10328C00D2B28DF80720EAE7FFF7E2FC05490023EC
:10329C00C1F81031FFF71EFC14B11023C1F8043330
:1032AC0003B030BD0010004000E100E0480D0020EC
:1032BC000080004038B51B4D0024C5F84845C5F8C2
:1032CC004445C5F84045C5F84C45FFF7A1FF00F053
:1032DC00A7FA154B15499A6B9C6342F0446242F471
:1032EC000032C1F80825C3E90B441C76104BC5F815
:1032FC0048450222C5F84445C5F84045C5F84C453B
:10330C00C5F84841C5F84441C5F84041C5F84C41A1
:10331C00C3F88020BFF34F8FBFF36F8FC3F88021AA
:10332C0038BD00BF00800040480D002000F0014077
:10333C0000E100E0014BC3F83C0570470010004071
:10334C0010B50FC8014C84E80F0010BDA40D00206F
:10335C0008B50A4BC3F80405094B93F84120D86310
:10336C0042F0010283F84120FFF700FC20B940F63F
:10337C0044113E20FCF726FF08BD00BF00100040A2
:10338C00480D002010B50F4C034694F8350094F806
:10339C0034100222012822764FF0960094F8202057
:1033AC000CD100F0B1F9084AE0610023C2F84431B5
:1033BC00236BE1690B44C2F8443510BD00F0BEF933
:1033CC00F1E700BF480D002000800040044BC3F81B
:1033DC006005D3F8002242F04002C3F80022704787
:1033EC0000100040054BD3F8002222F04002C3F835
:1033FC0000220022C3F86025704700BF0010004077
:10340C0008B50D4B0246D97008460021197082B9D7
:10341C0001225A709A78022A0DD193F82210FFF7E4
:10342C00D7FB064AD2F8003243F48873C2F8003254
:10343C0001E002225A7008BD480D00200010004027
:10344C002DE9F843924D934C0123EB64A36AD5F814
:10345C004C7594F84090FF1A02F088FF0026C4E9DE
:10346C0012062765FFF7F4FB8B4BA26BC3F80825FC
:10347C008A4AA663D2F8003223F48E7323F0010338
:10348C00C2F80032237E84F8416023B1D5F8443170
:10349C009B1B18BF0123A178012938D1D2F80C311C
:1034AC00002B0CBF0025082515F00B0F7B4B04D10E
:1034BC00D3F810210AB145F010050022C3F8002101
:1034CC00C3F80C21C3F81021C3F80421C3F8082158
:1034DC0005F01803102B03D1012908BF45F0200576
:1034EC006B4B6678D3F848252263D3F84435E362F6
:1034FC0094F8203084F8343084F83510EEB9FFF7A6
:10350C00E9FA2676EF0761D5E36D98478EE002293C
:10351C0011D1624AD2F80C01D2F8002400280CBF59
:10352C0000250225D20758BF45F00405002BBBD05F
:10353C0045F00105B8E70025B6E715F0110F21D1CC
:10354C002379B6F1010818BF4FF00108012B26783A
:10355C001CD0022B2FD09BBB96214046FFF7C2FA02
:10356C000146FFF7B7FA012E07D13B378F422AD815
:10357C00474B26700022C3F84021E2784046FFF703
:10358C0033FE01E0FFF744FE0026BBE74448FFF79B
:10359C00B7FD94F8353023B940F29F713E20FCF70B
:1035AC0011FE012B04D1FFF7BDFC61690144D8E782
:1035BC00FFF7A0FCF9E73A48FFF7A2FD6169D0E7F5
:1035CC0040F6D921EAE7354B1E619BE7A80745D5A4
:1035DC0003F064FCE8B903F071FCD0B92F4BD3F8BD
:1035EC005034D90115D51A0705D013F0F00F02D0BD
:1035FC0013F4706F0DD1294AC3F304410129D2F899
:10360C00542406D1012A04D0C3F34253022B7FF673
:10361C007BAFE36B5B784B4588BF45F0040585F0C9
:10362C000400236E3146C0F380009847A378022B28
:10363C0012D1237E83B1022B154A1DD1236BE16974
:10364C000B44C2F84435A36B43F48003A363124BC1
:10365C004FF48002C3F80425BDE8F88315F0280F59
:10366C0006D085F02001636EC1F340113046DCE7D3
:10367C00EB06DBD5A36E48E7012B02D040F6B9412F
:10368C008CE7E369216B8B42DBD840F6BA4185E7C6
:10369C0000800040480D002000F001400010004068
:1036AC00500D0020024B03EB8003D86C704700BF19
:1036BC00D43A0100014B53F8200070472C3B010019
:1036CC00024BC0B2C3F80C05704700BF001000409D
:1036DC00054B33F8113002384FF47A7203F2E733AA
:1036EC00B3FBF2F318447047443B0100054B33F82D
:1036FC0011304FF47A7203F57A73B3FBF2F318447A
:10370C00704700BF443B010038B51D460A4B33F8E7
:10371C00111003EB820305359C6821444FF47A7336
:10372C0001F6B73103FB00141046B4FBF3F4FFF7BA
:10373C00B9FF2C44204438BD443B010070B506460B
:10374C0008461546FFF7B6FF094A02EB8502936857
:10375C004FF47A7203F6B73302FB06331C1A284671
:10376C00B4FBF2F4FFF79EFF0530204470BD00BFA0
:10377C00443B01002DE9F74F244C074698460D4673
:10378C00164600F0A3F82378BB42814611D163782A
:10379C00AB420ED194F90230B3420AD1E3788342A2
:1037AC0007D1A388A8F8003094F9060003B0BDE84F
:1037BC00F08F781EC0B203280ED8DFF854C00DF17C
:1037CC0007031CF800003246294600F085F88246B3
:1037DC0038B13D21752002E040F2B7410620FCF7DC
:1037EC00F1FC28469DF907B0FFF77CFB53460246D7
:1037FC004146584600F038F8B8F80030A071A38064
:10380C0027706570A67084F80390CDE74000002007
:10381C00583B0100014B1B685B681847680000208F
:10382C00014B1B689B68184768000020014B1B6804
:10383C001B69184768000020014B1B685B6918471F
:10384C0068000020014B1B689B691847680000202A
:10385C00014B1B68DB69184768000020014B1B6893
:10386C009B6A18476800002010B4034C2468E46875
:10387C00A44610BC604700BF68000020014B1878BC
:10388C00704700BFC812002000220F4938B504460B
:10389C00134644FA02F0C007D5B248BF581C02F1D7
:1038AC00010244BFCD54C3B2042AF2D1064DC3F178
:1038BC000402042BD2B24FF0FF0188BF0022E8189B
:1038CC0003F032FC2C7138BDD4120020014B187D52
:1038DC00704700BFB80D0020042810B511D883B173
:1038EC0004280CBF10242824A1420AD2064C54F8F8
:1038FC00200018B141568A42A8BF0A461A7000200F
:10390C0010BD6FF01500FBE7B80D002030B5034675
:10391C00114890F91C209A4219DD90F924209A4202
:10392C0017DA9A1A846AA05C0C4A15569D420DD07F
:10393C000E32002918BF01309442C0B206D129B111
:10394C00013BDBB2012B01D80130C0B230BD0D20E0
:10395C00FCE70020FAE700BFB80D00205C3B01003B
:10396C0008B5054B93F91C30984203DAFFF7CEFFEC
:10397C00024B1B56184608BDB80D00205C3B0100DD
:10398C0010B51C4C94F82C3073B9012384F82C30EE
:10399C0003F04EFA48B1184BA362D823236284F883
:1039AC0024300823A361237710BD03F057FA0028B5
:1039BC00F1D103F05DFA0028EDD103F01BFA38B118
:1039CC000E4BA362D823236284F824300423E9E746
:1039DC0003F01AFA0028F3D103F020FA0028EFD1F3
:1039EC0003F030FA0028EBD14FF4DF71742002F0B1
:1039FC00C7FF00BFB80D0020973B01006A3B0100D8
:103A0C004FF08042012353600023C2F80031014A79
:103A1C0013707047E50D0020014B01221A7070479E
:103A2C00E50D00204FF08043D3F8003123B9034B50
:103A3C00187800F0010070470120FAE7E50D00202E
:103A4C0070B50A4D012604462E70FFF7EBFF30B916
:103A5C004FF080436E706C60C3F8046370BD002C33
:103A6C00FCD0A04700236B60F8E700BFE80D0020F6
:103A7C00024B00221A705A705A607047E80D0020F1
:103A8C0010B5034C208100F02FFC608110BD00BFED
:103A9C00E80D0020014B9889704700BFE80D00200D
:103AAC00014B1889704700BFE80D0020014B588965
:103ABC00704700BFE80D002010B5EFF3108472B60C
:103ACC00064A937B0133DBB29373937B012B01D1B9
:103ADC0005F091F804B962B610BD00BFE80D0020E6
:103AEC0038B5FFF7E9FFFFF79DFF094C4FF0804514
:103AFC0040B105F0AAF801232B610423E3730023E2
:103B0C00237438BD0323E3730123C5F80433F6E7AC
:103B1C00E80D002010B5EFF3108472B6094A937BC0
:103B2C0023B940F2E3116D2002F02AFF937B013B95
:103B3C00DBB29373937B0BB9FFF762FF04B962B6E8
:103B4C0010BD00BFE80D0020024BD87B003818BF19
:103B5C0001207047E80D002073B51B4D6B7C63B9D9
:103B6C00E86900F0030005F060F830B1EFF3108362
:103B7C0072B6EA7B1AB103B962B602B070BD01220B
:103B8C00EA7303B962B64FF080430822C3F80823E6
:103B9C004FF42073ADF80630BDF80640A4B2631E96
:103BAC009BB2ADF80630002CF6D14FF0804607489A
:103BBC00C6F80C4105F07FF885F82140FFF790FF1F
:103BCC000823C6F80433D8E7E80D0020080E0020BF
:103BDC002DE9F041384C94F82230002B69D04FF08D
:103BEC008043D3F80071D3F8046157B10122C3F8B4
:103BFC00082363782BB16368002565700BB1984777
:103C0C0065604EB14FF080430022C3F804210222BC
:103C1C00C3F80823FFF7A0FF4FF080462748D6F8DB
:103C2C000C8194F82150EDB205F049F820B14FF415
:103C3C0021716D2002F0A4FE47B1E37B032B05D16B
:103C4C000423E37305F001F801233361B8F1000F8D
:103C5C0016D04FF080430022C3F80C21E37B042BD9
:103C6C0002D040F2A221E4E703F00CF9C0B14FF00E
:103C7C0080430022C3F8342C0223E373FFF74AFF7E
:103C8C004DB1002384F82130E37B022B01D1FFF7E7
:103C9C0027FFFFF73FFFBDE8F041084805F01EB8CD
:103CAC0003F0D0F80028E2D103F0E2F80028DED1CE
:103CBC00E2E7BDE8F08100BFE80D0020080E00200F
:103CCC0010B5054CE06900F0030004F0AEFF0028CD
:103CDC00F8D0002010BD00BFE80D0020F8B5054657
:103CEC0050B10278042A07D8437842B9013B1F2B04
:103CFC0002D88378212B07D96FF0150097E0002BA1
:103D0C00FAD18378002BF7D1854B0127C3F880704B
:103D1C00BFF34F8FBFF36F8F4FF08046C3F88071A6
:103D2C00804C4FF0FF33C6F808330023C6F800313F
:103D3C00C6F80431C6F80C31A373AB88A38104F028
:103D4C005FFF08B12770A773D6F80C24D6F80C3493
:103D5C00D20303D5DF0701D5FFF75EFE4FF4AF604A
:103D6C00FFF78EFE2B78A97863740022E261A174B0
:103D7C002274042B2CD8DFE803F005031927290043
:103D8C000123E36104F043FF002851D004F046FF07
:103D9C00E36903F0030398424AD1AB79EBB9FFF71F
:103DAC008FFF00281EDA40F21F4113E0FFF784FE5C
:103DBC004FF08043D3F80C14D3F80C24CE03F9D570
:103DCC00D007F7D50223DCE7574BDAE7574BD8E798
:103DDC0040F211416D2002F0D3FD4FF080430222DE
:103DEC00C3F80423A37C6BB12B785BB9FFF71AFEE5
:103DFC00054602F045FF6FF00043002D00F08D806A
:103E0C00C4E905034FF08043D3F80C24D3F80C34E9
:103E1C00D20303D5DB0701D5FFF7FEFD404A012392
:103E2C000020E07384F82230C2F880311360F8BDB2
:103E3C004FF080430122DA600022C3F80421E269CA
:103E4C00C3F8182502F0D6FF10B34FF080534FF093
:103E5C008042D3F84432C3F34233C2F83C3502F00B
:103E6C00C9FF10B34FF080430122C3F84C254FF02B
:103E7C00804301229A600222C3F80423AA79002A03
:103E8C00B0D1D3F8042391071CD44FF47171A1E77E
:103E9C0002F0BAFF0028D8D102F0C0FF0028D4D11C
:103EAC0002F0D0FF0028D0D1D9E702F0ADFF0028F6
:103EBC00D8D102F0B3FF0028D4D102F0C3FF002800
:103ECC00D0D1D4E71A4A1669116941F01001116179
:103EDC00D3F8043106F010060BB904F00CFF4FF0C8
:103EEC008047D7F8043133B1FFF7EAFE002805DA32
:103EFC0040F2DE316EE704F0FCFEF2E726B90C4A24
:103F0C00136923F0100313614FF080430222C3F8AE
:103F1C0008230022C3F8042164E7C4E9053071E7E3
:103F2C0000E100E0E80D00200100020001000300A8
:103F3C0000ED00E010B50D4C04F1200004F0BFFEC4
:103F4C0048B9E37B022B01D1FFF7CAFDBDE8104055
:103F5C00074804F0C3BE074A012384F82130BDE8AA
:103F6C001040C2F80031FFF7A7BD00BFE80D0020DC
:103F7C00080E002000E100E0094B1A7810B5044649
:103F8C001AB142216F2002F0FBFC5A7832B901229F
:103F9C005A70FFF791FD2046FFF752FD002010BD2F
:103FAC000C0E002038B5084C25781DB158216F2017
:103FBC0002F0E6FC637823B1FFF75AFD6570FFF75A
:103FCC00A9FD002038BD00BF0C0E002008B501B3C0
:103FDC00F0B14FF0FF331A46E0FB01320E498A4232
:103FEC0003D990216F2002F0CBFC180D40EA02306F
:103FFC00C3F30F134FF22441B0FBF1F203EB00407B
:10400C00064B03FB1200B0FBF1F040EA024001301A
:10401C0008BD0846FCE700BF3F420F00000024F437
:10402C00014B5B68184700BF0C0E0020014B9B68CE
:10403C00184700BF0C0E0020014BDB68184700BF6F
:10404C000C0E0020034B1A780AB9FFF723BD188D0C
:10405C00704700BF0C0E0020034B1A780AB9FFF70B
:10406C001FBD188A704700BF0C0E0020034B1A7836
:10407C000AB9FFF71BBD988D704700BF0C0E0020CE
:10408C00024B1B780BB9FFF767BD70470C0E002075
:10409C00014B5B69184700BF0C0E002010B5144C87
:1040AC002378A3B1236A9847002806DB94F82A30BA
:1040BC0023B1012384F82E30002010BDFFF7E8FF58
:1040CC000028F6DA4FF49F716F2002F059FC094B6F
:1040DC006361094BA361094BE361094B6360094BB5
:1040EC00A360094BE360FFF7F9FD0028E1D0E4E79A
:1040FC000C0E0020CD3C0000413F0000553B000061
:10410C00C53A0000213B00007D8C0000064B10B529
:10411C001C7824B140F29D116F2002F031FCFFF7A6
:10412C00AFFC204610BD00BF0C0E0020014B1879CF
:10413C00704700BF400E0020054B1A79824283BFA6
:10414C001B6800EB400003EB00100020704700BF21
:10415C00400E002043F60952C0F3080302FB03F3A0
:10416C00400A03F5807302FB00F000EB532070470C
:10417C0043F6095CC0F3080210B50CFB02F2C0F365
:10418C004E24030E43EA01230CFB04F0090E02F546
:10419C0080724FEA411C00EB52205A01B2EB030E25
:1041AC004CEAD36C6CEB01044FEA841C4FEA8E1280
:1041BC00B2EB0E024CEA9E6C6CEB040C4FEACC0C8E
:1041CC004CEA527CD200D31841EB0C01DA03C90340
:1041DC00801841EA534141F1000110BD430B48F2F4
:1041EC00376C0CFB03F34FEA134C00B5104B43F642
:1041FC00095E0EFB1C0000FB03F35B0D0EFB03FEC4
:10420C0003EB4C230EF5745C0CF1080CB0EB5C2F3B
:10421C0008D80EF5807EA0EB5E20C0B20B6010704B
:10422C005DF804FB013300200B6010705DF804FB9B
:10423C006F0C0100F8B5274DA94246D8264E274FE2
:10424C00450F45EAC105A6FB0514C0F34F31A40B7D
:10425C0001EB054107FB1411A6FB0151890B41EA47
:10426C0004411F4C04FB110448F2376C600B0CFB2F
:10427C0000F04FEA104C43F6095E1A480EFB1C4541
:10428C0005FB00F0400D0EFB00FE00EB4C200EF584
:10429C00745C0CF1080CB5EB5C2F12D80EF5807E1B
:1042AC00A5EB5E2E5FFA8EFE069D85F800E00D06EE
:1042BC0028184FEA112141F100011860596014606F
:1042CC00F8BD01304FF0000EEEE796219B2002F076
:1042DC0057FB00BFFF7F841E83DE1B43000024F4CA
:1042EC000080841E6F0C0100420B48F2376303FB05
:1042FC0002F2120C43F6095C074B0CFB120101FB9A
:10430C000333013B5B0D0CFB03FC5002B1EB5C2F48
:10431C0088BF0130184470476F0C010010B5094A72
:10432C0092F80033202B03D13E21022002F028FB0F
:10433C0018214B43D018BDE81040D35840680321D6
:10434C00184700BF480E00200C4B0D491B78012B61
:10435C0014BF4FF4E0224FF4C022C1F8482318BF19
:10436C000023C1F80823074A99000A440021012BB5
:10437C0042F8041B00D170470123F8E78811002094
:10438C0000B0004040B1004070B5EFF3108472B63D
:10439C00094A0A4B0025D2F80415D2F804612EB153
:1043AC00596801315960C2F80451F4E75B6804B9EB
:1043BC0062B6C0E9001370BD00B000408811002047
:1043CC00094BD3F80435C01A20F07F4323F00103C6
:1043DC003BB120F07F40B0F5000F8CBF02200020D5
:1043EC0070470120704700BF00B0004008B5124B69
:1043FC00D3F8042522F00302C3F80425D3F80825CA
:10440C0042F00302C3F80825102292FAA2F2B2FA83
:10441C0082F2092A04DD094840F2A73102F0A6FA1B
:10442C00C3F810250122DA60054B4FF48072C3F8F3
:10443C0080211A6008BD00BF00800040E7400100E9
:10444C0000E100E0114B4FF40062C3F88020BFF391
:10445C004F8FBFF36F8FC3F880210D4B01225A6031
:10446C009A60D3F80425002AFBD10A49C3F8081333
:10447C004FF4E021C3F84813C3F84021C3F844219A
:10448C00C3F84821C3F80421704700BF00E100E0E5
:10449C0000B00040020007000D4B4FF48072C3F8CF
:1044AC008020BFF34F8FBFF36F8FC3F88021094B70
:1044BC0001214FF0FF325960C3F808230022C3F8E2
:1044CC004025C3F840211961034B1A72704700BF95
:1044DC0000E100E000800040881100202448FF2308
:1044EC0010B54FF0FF32002443724FF0FF33C0E998
:1044FC00042304704460FFF7CFFFFFF7A3FF1D4AAE
:10450C001D4BC2F800424FF40061196080691B49D1
:10451C0030B901230B60194B0222C3F8042310BDE0
:10452C00174B184CC3F8A845C3F8AC05C3F85C1975
:10453C004FF40021C3F804150521C2F840150121E0
:10454C001160D2F840110029FBD04FF40021C3F8C0
:10455C00081501215160D1600021C2F84011C2F848
:10456C004015C3F8A815C3F8AC15C3F8AC15D2E7C1
:10457C00881100200080004000E100E000B0004005
:10458C0000F0014040810040014BD3E90401704729
:10459C0088110020014BD3F80405704700B000408F
:1045AC0013B56846FFF7F0FEDDE90004FFF7D2FD16
:1045BC00024B0021E4FB030102B010BD0080841EFD
:1045CC0070B50F4B0F4D104A104C0026C5F800610A
:1045DC00C3F8A8254FF40022C3F8AC45C3F8042552
:1045EC0004F05BFBD5F800312BB10123C5F8006159
:1045FC006360E360F4E7013041F1000170BD00BF7E
:10460C0000F0014000B0004000B1004000800040CC
:10461C00B1F1FF3F08BFB0F1FF3F2DE9F041334C42
:10462C0005460E461ED1324BD3F80031ABB1314B9F
:10463C00314AC3F80825FFF787FE00236372FFF7A2
:10464C002BFFFFF7D3FEFFF7BBFF0223C4E90401E6
:10465C002370FF236370BDE8F08104F01EFBC51CC2
:10466C0041F10006D4E90473B34208BFAF42F2D063
:10467C00204B214AC3F80825FFF766FE1C4A4FF46D
:10468C00803125F07F480023C2F808134046C2F859
:10469C004813C2F84031FFF793FE20B140F20931C4
:1046AC006C2002F06DF9C2F84085C2F844132378EF
:1046BC00012B06D127F07F473846FFF781FE0128F2
:1046CC00FAD000236372FFF7E7FEFFF78FFE094A6B
:1046DC0001234FF000412370C2F8041504226270CC
:1046EC00034AC4E90456C2F84833B4E788110020E1
:1046FC0000B0004000F001400000088037B540B128
:10470C00041FE4B2022C13D94FF46B716C2002F02D
:10471C0037F9214B4FF48032C3F80823C3F8400516
:10472C00C3F84001D3F840310093009B03B030BD77
:10473C001A4D2B7893B16A7882420FD1184A1949D5
:10474C00C2F80815012B01D1FFF7A6FE00232B7030
:10475C004FF0FF324FF0FF33C5E90423124A4FF4F8
:10476C008033A340C2F80833C2F8483304F5A87369
:10477C0052F82300FFF724FE012818BF0B4B22B27E
:10478C004FEA84041CBF00211951084B53F8223006
:10479C000193019BCAE700BF0080004088110020F4
:1047AC0000F001400000088000B0004040B1004023
:1047BC0070B52C4B30B1041FE4B2022C2AD940F254
:1047CC0067310BE0D3E90401B1F1FF3F08BFB0F151
:1047DC00FF3F06D11B7A23B940F23F316C2002F027
:1047EC00CFF812B940F24331F8E71F4B4FF4803148
:1047FC000120C3F80413C3F840255864D3F84415BA
:10480C0000248A42C3F8444503D82046FFF776FFBC
:10481C00204670BD197829B15B78834202D140F2F1
:10482C006331DBE7114B124E22F07F41A20013449F
:10483C004FF48035A5400022C6F808530846C6F848
:10484C0048531A60FFF7BCFD48B904F5A874012061
:10485C0046F82410C6F80453C6F84453D9E710465A
:10486C00D7E700BF881100200080004040B1004015
:10487C0000B0004008B5FFF767FD054B4FF0FF3265
:10488C00C3F808230022C3F84025C3F8402108BD13
:10489C000080004008B50122084B10B1C3F8442336
:1048AC0008BDC3F84823FFF7F7FD054B4FF0FF3168
:1048BC0018704FF0FF30C3E90401F1E700B000407D
:1048CC0088110020F8B5164D164E00244FF4803791
:1048DC00D5F8043307FA04F21A4212D056F82430F1
:1048EC007BB1002346F8243004F5A87355F8230057
:1048FC00FFF766FD28B1201DC5F80823C0B201F0F2
:10490C0025FC0134032CE3D1054BD3F8042132B13F
:10491C000022C3F80421044A536801335360F8BDE4
:10492C0000B0004040B100408811002010B51C4C74
:10493C00637AFF2B2DD0237883B10122022B2272B4
:10494C0021D1184B4FF40022C3F808250023237003
:10495C004FF0FF324FF0FF33C4E90423124BD3F86E
:10496C000423D2031BD5D3F84021C2B14FF48032BB
:10497C000020C3F80823C3F84001FF236372BDE88D
:10498C00104001F0E3BB022360782370FFF7B6FE02
:10499C00E4E7054BD3F804330BB10720EFE710BD68
:1049AC008811002000F00140008000402DE9F04FFC
:1049BC0095B01C460492CDE90201FFF7E5FD1823E2
:1049CC0001910646C049082004EB440213FB040481
:1049DC00631801EBC202083265581F7BD3F80480C0
:1049EC0093F80D9005970FCA0EAC25F07F4A84E81A
:1049FC000F005046FFF7AEFBB44B7C1C98420444AE
:104A0C0000F298819C4200F39380002C55DBFFF759
:104A1C0013FBB9F1010F834608D0AD4FD7E9022340
:104A2C00B3F1FF3F08BFB2F1FF3F4BD0FFF71EFBC6
:104A3C00019B0690B3F1FF3F08BFB6F1FF3F03D0D7
:104A4C00B54278EB030378D2029B0322EB1A934214
:104A5C0069DBBBF1000F00F0F88000230793029B89
:104A6C00B5EB030B039B68EB0307FFF7FFFA093069
:104A7C00C217834577EB020380F0EB80049B012B7C
:104A8C0000F0F180079B002B5AD1019BB3F1FF3F43
:104A9C0008BFB6F1FF3F53D0721B63EB0803042A27
:104AAC0073F1000180F23881012A73F100033ADAC4
:104ABC00DDF81CB026F07F4A52E004F1F45404F502
:104ACC009024A4E70028B1D1FFF7D0FA019B0690FF
:104ADC00B3F1FF3F08BFB6F1FF3F00F0B380B54222
:104AEC0078EB0303C0F0AE803B7C002B069B14BF1D
:104AFC0000221A463346EB1A9A4214DC0123079320
:104B0C00D7E90232B2F1FF3F08BFB3F1FF3FA6D0A5
:104B1C000699EB1A68EB02028B4272F100039ED2EB
:104B2C00B9F1010F9BD00024204615B0BDE8F08FE1
:104B3C0004F1614404F5F70469E73346002285E784
:104B4C0028464146FFF764FD4FF0000BB8F1FF3FDC
:104B5C0008BFB5F1FF3F00F0F2802E46CDF804807F
:104B6C005046FFF7F7FA5B4B221A9A420ED3001B02
:104B7C009842C0F08C80554B9A4200F2C280984209
:104B8C0040F2E780C0F1614202F5F702D317002032
:104B9C00FFF70EFE04460028C5D04D4FB9F1010FAA
:104BAC00D7E9022375D0BBF1000F40F09780B3F129
:104BBC00FF3F08BFB2F1FF3F00F0B5800120FFF7C7
:104BCC0069FE3B7C002B40F0A1806A1E68F100035B
:104BDC000620FFF7EDFD002851D0B9694FF0804257
:104BEC0000230B60C2F8083500238DF84830089379
:104BFC004FF0FF324FF0FF33CDE90A23DDF814A05C
:104C0C008DF84590CDF83C808DF844A00E9508AFFA
:104C1C000FCFDFF8C4904E460FC60FCF0FC697E8E4
:104C2C000F0086E80F0028464146FFF7A1FA5346CD
:104C3C0001331B1841F100012046C9E9043115B0BC
:104C4C00BDE8F08F029BC21C55E7214FCDF81CB07C
:104C5C0056E7B9F1010B2846414618BF4FF0010B3E
:104C6C00FFF7D6FC72E7019BB3F1FF3F08BFB6F12B
:104C7C00FF3F73D026F07F4A4FF0000B70E7BA6904
:104C8C004FF080410123C1F808351360ACE7424274
:104C9C007CE7B3F1FF3F08BFB2F1FF3F24D1BBF17A
:104CAC00000F8ED0069BF21A019B4FF0050063F1AA
:104CBC000003FFF77DFD002846D03B7C002B84D100
:104CCC0001233B7481E700BF480E0020FF7F841E48
:104CDC00A81100200040420F50110020B3F1FF3FFB
:104CEC0008BFB2F1FF3FDDD0FFF7A0F94FF0FF3264
:104CFC004FF0FF33C7E90223BBF1000F3FF461AF64
:104D0C00D0E702F1F45202F590223FE70520FFF7BD
:104D1C00F5FC00233B7458E728464146DDF81CB0EF
:104D2C00FFF776FC12E7FFF77BF903F0B6FFC7E954
:104D3C00020143E740F22E41702001F021FE40F2C7
:104D4C004371702001F01CFE40F23121702001F003
:104D5C0017FE40F60B01702001F012FE40F2A76125
:104D6C00702001F00DFE00BF2DE9F04F8D4F7C7CC3
:104D7C0004EB44033B4483B05D78202D48D08A4B30
:104D8C00E6B26400002B00F08980884BDFF820929B
:104D9C00002B5FD005EB461207EB420A4FEA461890
:104DAC009AF81C30013BDBB2052B34D8814A12F83F
:104DBC0003B0BBF1080F2ED0AFF30080EFF31083DC
:104DCC0072B634443C449AF81D206270A278AA4210
:104DDC0004BF2022A27013B9AFF3008062B6A844BE
:104DEC0005EB450509EBC50207EB4808506859F877
:104DFC0035300122594688F81C2098477C7C04EBFE
:104E0C0044033B44E6B25D78202D4FEA4404C1D103
:104E1C0003B0BDE8F08F40F27261702001F0B0FD7C
:104E2C0062B6A84405EB450509EBC50207EB48083B
:104E3C00506859F835300122594688F81C2098479B
:104E4C007C7C04EB44033B44E6B25D78202D4FEAB6
:104E5C004404DDD005EB461207EB420A4FEA461834
:104E6C009AF81C30013BDBB2052BD4D8514A12F80E
:104E7C0003B0BBF1080FCED0AFF30080EFF310837B
:104E8C0072B634443C449AF81D206270A278954264
:104E9C0004BF2022A270002BC3D1C1E7434BDFF823
:104EAC0014B1DFF80CA14FF02009002B4FD005EB0B
:104EBC00461207EB42024FEA4618137F013BDBB266
:104ECC00052BA8D81BF803100829A4D0EFF31083E6
:104EDC0072B634443C44527F6270A278954208BF4B
:104EEC0084F80290002B52D0A84407EB480805EB3D
:104EFC0045050AEBC5025AF835305068012288F88E
:104F0C001C2098477C7C04EB44033B44E6B25D7860
:104F1C00202D4FEA4404CAD17AE762B6A84405EBC7
:104F2C0045050AEBC50207EB480850685AF83530BE
:104F3C00012288F81C2098477C7C04EB44033B44FA
:104F4C00E6B25D78202D4FEA44043FF461AF05EBE7
:104F5C00461207EB42024FEA4618137F013BDBB2C5
:104F6C00052B3FF658AF1BF8031008293FF453AF3D
:104F7C00EFF3108372B634443C44527F6270A278D3
:104F8C00954208BF84F80290002BC7D1C5E7019168
:104F9C00AFF3008062B6A844019905EB450507EB19
:104FAC004808A6E7A811002000000000000000003F
:104FBC00480E0020C83B01002DE9F04F85B0DFF80A
:104FCC000C81019301EB41034FF0200C18F80340C6
:104FDC0003916445924682F800C073D04B01DFF810
:104FEC00F09006469B4610E0727B012A02D0427D6F
:104FFC00012A57D00BEB040308EB43038AF800405B
:10500C005B7F202BA4465DD01C4604EB440009EBCF
:10501C00C000D0E9032387683568716813EB070E6D
:10502C0042F10002754571EB02024FEA4403DBD2F8
:10503C001D46019B83F800C0039B4FEA431B2819B4
:10504C0009EBC0003768B368D0F808A07268C16873
:10505C00DB1942F100029A4571EB020310D3437D38
:10506C00012B02D0737B012B03D0012005B0BDE8CE
:10507C00F08FFEF7FBFFAAEB070701308742F4DA4B
:10508C00019A254409EBC5051470A97DB27B0BEB85
:10509C000403914208EB430310D95C7F202CE4D02D
:1050AC006500CCE70293FEF7E1FFED1B0130854272
:1050BC00A0DA029B9AF800C01D46BAE7002005B0A2
:1050CC00BDE8F08F019B1C70CFE700BFA81100203A
:1050DC00480E00202DE9F04F83B00C4615461E46B5
:1050EC009DF83070FFF700F922686368451946F1A6
:1050FC000006954276EB030342D3DFF88C8005E083
:10510C005D4576EB09033BD3C4E900B90DF1070308
:10511C000DF1060239462046FFF74EFF88BB9DF87D
:10512C00073003EB430308EBC303D3E902A01A696E
:10513C001AF1030B40F1000012EB0B0B627B40F1F8
:10514C000009012ADCD05B7D012BD9D1FEF78EFF43
:10515C00ABEB0A0301308342D2DA9DF8073003EB44
:10516C00430308EBC303D3E902B9FEF77FFF013019
:10517C0010EB0B0B49EBE0795D4576EB0903C3D2E1
:10518C00002003B0BDE8F08F480E00202DE9F04759
:10519C0015461C4612782F7A95F809C088B0002362
:1051AC00E360C4E90033A7739DF8408084F80DC018
:1051BC000646A360E2730F46002A3AD1FEF7D8FFE9
:1051CC00D5E9042C3C4BC31841F1000E9A427CEB00
:1051DC000E030AD3013E47F1FF37C4E900674FF4D1
:1051EC007A73A36008B0BDE8F087263041F1000166
:1051FC0082427CEB0103EDD3501E04F10C036CF1E5
:10520C000001009304AA06ABFFF714F8049B68682E
:10521C0002330DF10F0205A91844FEF7DFFFDDE99B
:10522C00053207999B1A23F07F43C4E90021A36040
:10523C00D8E7224804F10C0206A9FEF7CFFF204B59
:10524C001B78202B24D01F498B69D1E90721083307
:10525C0042F1000A13EB01094AF1000A6B68207B4A
:10526C001844023005AA04F10801C4E9009AFEF7BB
:10527C00B5FF2869CDF8008032463B462146FFF742
:10528C0029FF0028AED1C4E9006708B0BDE8F0875B
:10529C00637B16F1080947F1000A012BDED0FEF7FB
:1052AC00CBFE0028DAD1FEF7E1FE10EB090399469C
:1052BC004AF1000AD2E700BF0040420FFF7F841E74
:1052CC0048110020501100202DE9F04700EB40035D
:1052DC00344DDFF8D480EC5C06464700FFF75AF9F2
:1052EC004FF0200C4FEA461E04EB440108EBC101C1
:1052FC000EEB0403D1F808A00A69AAEB000929F007
:10530C007F49B9F5000F05EB43030DD812EB0A02E8
:10531C00121A22F07F42B2F5000F05D8BCF1200F13
:10532C000AD12046BDE8F0875B7F202BA4461C46A3
:10533C00DAD1BCF1200FF4D00CEB4613BA1905EB03
:10534C00430315F802805B7FAB54710144464FF068
:10535C00040E0B1905EB430322469445204683F8B3
:10536C001CE05C7FF5D1BB192B440A4493F802E096
:10537C00BEF1200F5FFA8EFC18BF8C443E4418BF60
:10538C0005EB4C0C05EB4202354408BF83F8018059
:10539C004FF0200318BF8CF81D80A870537720465F
:1053AC00BDE8F087A8110020480E00202DE9F0413F
:1053BC0001EB41034A4DEE5C202E82B00C46804638
:1053CC004FEA410740D1474B0BB1AFF3008003F0DC
:1053DC0064FCAB7C0191202B0AD0434BD3E906E251
:1053EC0010F1020C41F10003E64572EB030330D3DC
:1053FC00202E0AD042463346FFF7D8FA00283DD07B
:10540C000220AE7402B0BDE8F081D5E90223B3F1FD
:10541C00FF3F08BFB2F1FF3F1FD12B7C43BB0420E1
:10542C00FFF76CF9FFF726FA0020FFF733FAA969AA
:10543C004FF080422020A874002301200B60C2F89A
:10544C00083502B0BDE8F0810846FFF73DFF864203
:10545C00B9D0002002B0BDE8F081FEF7E7FD4FF0B7
:10546C00FF334FF0FF32C5E902232B7C002BD6D043
:10547C000520FFF743F900232B74D0E73A1906EB0C
:10548C00441305EB430315F802C05B7FAB54610179
:10549C006246042013468A1805EB42029E4210779E
:1054AC00527FF7D13A192A443C449678F0B2202E18
:1054BC0018BF4018194418BF05EB400005EB41011B
:1054CC00254418BF80F81DC0AB704FF000004FF0A2
:1054DC00200308BF82F801C04B7702B0BDE8F08111
:1054EC00A8110020000000005011002038B5164A09
:1054FC00164D4FF0FF304FF0FF310023C2E902018F
:10550C00C5E90201202142F22000A970136082F843
:10551C002830A9741C4628806B742B7405F11C026E
:10552C0002F814300134202CFAD1094801F0E6FBC2
:10553C00084B094A1C70107001F0D0FCA861FEF7F2
:10554C00CDFF0123EB7438BD50110020A8110020B1
:10555C00754D000048110020801100202DE9F04FFE
:10556C0083B003F09AFBA44F06460C46FFF782F972
:10557C004FF0FF334FF0FF32C7E9022397F8283082
:10558C00BBB9BB693A6AF9699C48023341F1000125
:10559C009B1802F5DF62A0FB02024FEA922241F156
:1055AC0000019B1841F100019E4274EB010380F055
:1055BC000E814FF0FF304FF0FF31FFF729F8904A82
:1055CC0092F800B0BBF1200F00F011818D4D20231B
:1055DC001370AB746B7C00223A6003EB43025FFAEE
:1055EC0083F915F802805B00B8F1200F00930BD003
:1055FC00DFF814A208EB48030AEBC3034FEA480296
:10560C00D97D012900F0B780009BDFF800A203EBE5
:10561C0009062E444FEA49183478202C04D0484609
:10562C00FFF752FE8442F7D1BAF1000F01D0AFF36D
:10563C00008003F032FBAB7C202B09D0D7E906238A
:10564C0010F1020E41F1000C724573EB0C03E3D325
:10565C00202C19D023460122FFF7A8F9002860D08E
:10566C0008EB0B0305EB4303AC741A7F022A36D00C
:10567C00FF23AB71009B4B441D446B78202B40F0F7
:10568C008C8003B0BDE8F08FD5E90223B3F1FF3F66
:10569C0008BFB2F1FF3F07D0FEF7C8FC4FF0FF3256
:1056AC004FF0FF33C5E902232B7C002B5DD1042086
:1056BC00FFF724F8FFF7DEF80020FFF7EBF8A969F5
:1056CC004FF0804200232020A8740B60C2F80835EC
:1056DC0008EB0B0305EB43031A7F022AC8D14A4A95
:1056EC000BEB4B0102EBC102527D022A6CD0009AEB
:1056FC004A442A440621197791782029CBB260D0EC
:10570C00434405EB430383F81DB0009B4B442B44EF
:10571C00D84405EB480883F802B0202388F81D30E4
:10572C00A6E708EB040305EB430330785B7F33708B
:10573C00024604211346424405EB42029C42117777
:10574C00527FF7D1B178B370CAB220291CBF424442
:10575C0005EB4202434405EB430318BF50774FF06F
:10576C00200208BF70705A7756E70520FEF7C6FF77
:10577C0000232B749BE75B7D012B15D1033644F181
:10578C00000402EB08030AEBC303D3E90202B042A4
:10579C00A24128BFC3E9026436E71D4B187803B059
:1057AC00BDE8F04F01F0D6BA0192FEF745FC019A24
:1057BC000028E3D1FEF75AFC8619019A44F1000443
:1057CC00DFE782F801B0A0E701221A7750E70C4B13
:1057DC000D4A1B78182101FB03F3D01807214068F0
:1057EC00D358984740F2B621702001F0C9F840F226
:1057FC00C121702001F0C4F8501100209300DC92FC
:10580C0048110020A8110020480E002000000000C4
:10581C008011002038B505460C46FEF739FC0028EF
:10582C0022DB14494B7C01F11C0C5FFA83FE0CEB60
:10583C00831C002302E00133202B13D01CF813200F
:10584C00D8B2002AF7D10C4A03EB4E1E03EB4303EC
:10585C0001EB4E0142F8335002EBC30301220A77ED
:10586C005C6038BD184638BD40F21731702001F02D
:10587C0087F800BFA8110020480E00201F2808D868
:10588C000A494B7C00EB431301EB43031A7F012ABB
:10589C0001D0002070474B7C00EB431301EB43031A
:1058AC004FF0000C104683F81CC07047A811002064
:1058BC00014BD3F840057047008000400378002B63
:1058CC0040F0D7802DE9F04F6F4A5368C3F30803BB
:1058DC0089B08146002B40F0B8806C4E6C4FDFF8DD
:1058EC00B4B106F11C0A27B1002140F25B40AFF3C2
:1058FC000080757CEDB24FF00003B37127B100212D
:10590C004FF48C60AFF300800AEB851EBEE80F00ED
:10591C006C1C04F001080AEB881CACE80F00BEE814
:10592C000F00ACE80F00BEE80F00ACE80F009EE8DB
:10593C000F0044468CE80F002DB227B1002140F235
:10594C00EB30AFF3008005EB450504EB4404731911
:10595C00725B9B7832533444A37057B1002140F2F0
:10596C00EF30AFF3008027B1002140F26540AFF378
:10597C00008003F092F9CDF8008004AB4A4604464F
:10598C000D46FFF703FC27B1002140F26C40AFF34A
:10599C000080414B1B78202B3FD0DBF81830DBF814
:1059AC001C20DBF82010083342F100025B1842F196
:1059BC000002DDE90401984271EB020CCDF8008085
:1059CC0022D3364822462B4604A9FFF783FB98B115
:1059DC00DDE90401FEF7CCFB9DF81C3001331B18EC
:1059EC0041F10001C9F81030C9F8141027B1002199
:1059FC0040F27F40AFF30080B379002B7FF473AF9C
:105A0C00012009B0BDE8F08FCDE9043204A922468B
:105A1C002B462248FFF75EFBDAE79DF81D1014F1C8
:105A2C00080345F100020129C3D0CDE90232FEF78B
:105A3C0003FBDDE902320028BBD1FEF717FB029B0A
:105A4C00039AC31842F10002B3E7103B59B2002984
:105A5C0011DB01F1604101F5614191F8000340094E
:105A6C000028CED0094E0A4FDFF828B006F11C0AE8
:105A7C0039E70020704703F00F03043B1344187EF2
:105A8C0040090028EED1BCE700ED00E0A811002091
:105A9C000000000050110020481100200040420F6F
:105AAC002DE9F04FAC4A53688FB0C3F3080383461B
:105ABC000491002B40F0628108230393049B1B7814
:105ACC00012B00F23D82A54E26B1002140F24D5033
