:10000000C02A002069220000CF7C00005522000099
:10001000552200005522000055220000000000007B
:10002000000000000000000000000000E1230000CC
:100030005522000000000000792300005522000036
:10004000CD250000CD250000CD250000CD250000E8
:10005000CD250000CD250000CD250000CD250000D8
:10006000CD250000CD250000CD250000CD250000C8
:10007000CD250000CD250000CD250000CD250000B8
:10008000CD250000CD250000CD250000CD250000A8
:10009000CD250000CD250000CD250000CD25000098
:1000A000CD250000CD250000CD250000CD25000088
:1000B000CD250000CD250000CD250000CD25000078
:1000C000CD250000CD250000CD250000CD25000068
:0C00D000CD250000CD250000CD2500004E
:1000DC0053B94AB9002908BF00281CBF4FF0FF31A3
:1000EC004FF0FF3000F00CB8ADF1080C6DE904CE08
:1000FC0000F010F8DDF804E0DDE9022304B07047ED
:10010C00704700BF034613F8012B002AFBD1181AC5
:10011C00013870472DE9F04786468C460846089E04
:10012C00154674461946002B40F0C2808542B2FA3F
:10013C0082F245D94AB1C2F1200300FA02FC2EFA30
:10014C0003F3954043EA0C0C94404FEA154EA8B2C9
:10015C00BCFBFEF8230C0EFB18CC08FB00F943EAA1
:10016C000C43994528D9EB1808F1FF3704D299456F
:10017C0002D9A8F102072B44A3EB0903A4B2B3FBE9
:10018C00FEFC0EFB1C330CFB00F044EA0344A042C3
:10019C0014D92C190CF1FF3304D2A04202D9ACF1C2
:1001AC0002032C44241A43EA07401EB1D440002316
:1001BC0034607360BDE8F0874746DDE76346F1E7DE
:1001CC0092BB431B01214FEA154EAFB2B3FBFEFCB1
:1001DC00200C0EFB1C330CFB07F840EA034398453C
:1001EC0062D9EB180CF1FF3004D2984502D9ACF16E
:1001FC0002002B44A3EB0803A4B2B3FBFEFC0EFBE2
:10020C001C330CFB07F744EA0344A7424ED92C19C4
:10021C000CF1FF3304D2A74202D9ACF102032C44F7
:10022C00E41B43EA0040C0E7C2F1200320FA03F1CB
:10023C00954090402EFA03F303434FEA154EAFB2AC
:10024C00B1FBFEFC0EFB1C10190C0CFB07F841EA71
:10025C000041884504FA02F422D969180CF1FF30E8
:10026C0004D2884502D9ACF102002944A1EB080163
:10027C009BB2B1FBFEFC0EFB1C110CFB07F743EA17
:10028C0001439F420ED9EB180CF1FF3104D29F426F
:10029C0002D9ACF102012B44DB1B41EA004192E78D
:1002AC006046E3E76146F7E76046A3E76346B7E7D6
:1002BC00834206D916B9002108467BE7C6E900E05F
:1002CC00F9E7B3FA83F78FB9834201D3724508D8A3
:1002DC00BEEB020460EB030301209C461EB9002117
:1002EC0068E73846FAE7C6E9004CF8E7C7F1200C96
:1002FC00BB4022FA0CF41C432EFA0CF120FA0CF33E
:10030C00B84001434FEA14490EFA07F5B3FBF9F86C
:10031C001FFA84FE09FB18300B0C08FB0EFA43EA9B
:10032C0000439A4502FA07F240D9E31808F1FF306E
:10033C0004D29A4502D9A8F102002344A3EB0A0384
:10034C0089B2B3FBF9F809FB183308FB0EFE41EA3E
:10035C0003418E452CD9611808F1FF3304D28E4528
:10036C0002D9A8F10203214443EA0040A0FB029801
:10037C00A1EB0E014145CE46434602D306D14D4575
:10038C0004D2B9EB020E68EB04030138002EA6D0A0
:10039C00B5EB0E0261EB030101FA0CFC22FA07F338
:1003AC004CEA0303F940C6E9003198E74046C5E73B
:1003BC004346D9E738B5836805699C697CB112F46A
:1003CC00000F06D02D6801238B401D4201D082F016
:1003DC00C062044B134002F0B072A04738BD6FF0FE
:1003EC005700FBE74000000608B5024804F0CAFCC1
:1003FC0008BD00BF74060020F0B587B01A4E1B4B29
:10040C000293002401940094234603223146204693
:10041C0006F049F84FF0FF324FF0FF33144804F068
:10042C00F5FC144F0121384601F0E2F9124D134A44
:10043C002946204606F038FF2146384601F0D8F907
:10044C00B5F90030B5F90220B5F904100591049204
:10045C0003930B4B029301940094234603223146E1
:10046C00204606F020F8C9E7F89F0000B8A000006D
:10047C00740600202C9E0000C00A002028050020D5
:10048C00CCA0000070B590B00E4615468DF83F001C
:10049C000DF13F030D9301230E930DAA0B920C93B8
:1004AC00154A0992EA180A9209AA0792089307AA10
:1004BC000BA9124805F0DEFF002801DB002314E035
:1004CC009DF83F30049303900D4B02930020019054
:1004DC000090034601220B4905F0E5FFEEE70133DE
:1004EC00054C14F803C006F800C01846AB42F6D30E
:1004FC00002010B070BD00BFD80A002048050020B5
:10050C00E0A00000F89F000010B58AB08DF8240020
:10051C000B788DF8253009AB07930132089207ABA5
:10052C0005930123069305A90A4805F0AEFF041EA6
:10053C0002DB00200AB010BD0394074B029300208D
:10054C000190009003460122044905F0ACFF60B213
:10055C00F0E700BF480500200CA10000F89F000048
:10056C00F8B5114C00272770104E32460121204659
:10057C0000F008F90623A3700125E5702771A77117
:10058C00257232462946204600F0C2F8084C2770E6
:10059C0065703146284606F04FFE32462946204605
:1005AC0000F020F9F8BD00BFA80A002028050020A3
:1005BC00BC0A002010B584B0214805F083FF50B36D
:1005CC00204809F01EF8002834D04FF480311E4822
:1005DC0005F03BFF002830DB1A4C4FF0A8620421D9
:1005EC002046FFF7E7FE1949194B4B6010238B602F
:1005FC00204605F035FF174806F029FBFFF7B0FF42
:10060C000021154801F0F4F84FF0FF304FF0FF31A6
:10061C0009F01DFAF8E70390104B029300240194A3
:10062C000094234601220E49204605F03CFF20464B
:10063C0004B010BD4FF0FF30FAE74FF0FF30F7E792
:10064C0048050020149E000070A10000CC0A002078
:10065C00F5030000280500202C9E00002CA10000B2
:10066C00F89F000030B583B004460D46274B1B683D
:10067C00ADF804301B0C8DF806300B46032201A993
:10068C00192006F0ABFA08B103B030BD9DF8043068
:10069C00627903F07F0343EAC213DBB28DF80430B6
:1006AC002279520102F0600223F0600313438DF8AB
:1006BC0004309DF80520637802F03F0242EA831271
:1006CC00D2B28DF80520E3781B0103F0300322F041
:1006DC0030021A438DF80520237822F00F0203F024
:1006EC000F031A438DF805209DF80630A27892006E
:1006FC0002F00C0223F00C0313438DF806302B464A
:10070C00032201A9192006F00AF9BDE7A0A00000F8
:10071C00F0B583B006460F461546194B9B88ADF8CD
:10072C00043000238DF80630104605F0D9FE08BBC6
:10073C001EB32B46032201A9212006F04FFA08B163
:10074C0003B0F0BD0024BC420BD250B904EB8401C1
:10075C002A4606EB810101A806F050FB0134A4B235
:10076C00F1E70028ECD12B46032201A9212006F049
:10077C00D6F8E5E74FF0FF30E2E74FF0FF30DFE768
:10078C00A0A00000F0B583B006460F461546144BEA
:10079C009B88ADF8043000238DF80630104605F028
:1007AC009FFEA8B9C6B12B46032201A9212006F051
:1007BC0015FA0024BC420DD260B904EB84012A4620
:1007CC0006EB810101A806F0A8FC0134A4B2F1E704
:1007DC004FF0FF3003B0F0BD4FF0FF30FAE700BF31
:1007EC00A0A00000F0B583B005460E461746104693
:1007FC0005F076FE002840F0D180002D00F0D1806D
:10080C003B46022201A91F2006F0E8F9002800F05F
:10081C00B98003B0F0BD9DF8043003F07F0343EAC8
:10082C00CC138DF804300134E4B2B44280F0AC80C7
:10083C0005EB440C9CF801C015F814E0BEF10B0F4D
:10084C0000F29D8001A353F82EF000BF2308000096
:10085C0089080000A3080000BD080000D7080000AC
:10086C00F10800000B0900001D0900003709000009
:10087C00510900006B090000810900009DF804304B
:10088C004FEA8C1C0CF0400C23F0400343EA0C03A1
:10089C008DF80430C7E79DF804304FEA4C1C0CF07F
:1008AC00200C23F0200343EA0C038DF80430BAE744
:1008BC009DF804304FEACC0C0CF0080C23F0080324
:1008CC0043EA0C038DF80430ADE79DF804304FEA91
:1008DC008C0C0CF0040C23F0040343EA0C038DF88D
:1008EC000430A0E79DF804304FEA4C0C0CF0020CDD
:1008FC0023F0020343EA0C038DF8043093E79DF8D0
:10090C00053003F07F0343EACC138DF805308AE7FA
:10091C009DF805304FEA0C1C0CF0100C23F0100362
:10092C0043EA0C038DF805307DE79DF805304FEA5E
:10093C00CC0C0CF0080C23F0080343EA0C038DF8E4
:10094C00053070E79DF805304FEA8C0C0CF0040C68
:10095C0023F0040343EA0C038DF8053063E79DF89C
:10096C00053023F001030CF0010C43EA0C038DF865
:10097C00053058E73946604606F03EFC53E76FF009
:10098C00030050E7002450E700287FF442AF3B46B9
:10099C00022201A91F2005F0C2FF3AE74FF0FF30F9
:1009AC0037E74FF0FF3034E72DE9F04F91B0059267
:1009BC000293134602F004020092C3F3C20210F039
:1009CC000303019340F02B8280468A460132041DBA
:1009DC0000284FD0B8F1000F05D0A4EB0803043366
:1009EC00534500F21F82029B5D1E019B04930693EC
:1009FC00039300264FF0FF3B0427B946B8F1000FD4
:100A0C0001D0029B2360531E0793002A40F35D81A3
:100A1C00059B13F0020228D00120A4EB08018B08DF
:100A2C001AB1B1F5007F80F0038203990F2900F20F
:100A3C000282B8F1000F00F06081DBB201F14002DC
:100A4C006A4402F8103C02F820BC002800F05181E6
:100A5C0063F07F0301F140026A4402F8103C049BEE
:100A6C0001330493039B0133039304340022CC46DB
:100A7C0040463DE001F0070A5444CAF1080AA9E7D0
:100A8C00002634E0002632E0002630E00827BC4681
:100A9C002DE025292BD10BF1010B01260427BC4697
:100AAC0025E04729EED82A2914D32A39C9B24FF0A8
:100ABC00010E0EFA01F14FF6DA7E11EA0E0F16D185
:100ACC0011F0625F40F0C08011F0010F40F08C809B
:100ADC0000260CE0252903D10BF1FF3B002606E094
:100AEC0001D9002603E0202901D02329CCD11D46B1
:100AFC006B1C6978002900F01981002EC9D07A2965
:100B0C00BED84C29CDD34C392E2961D80FF2040E06
:100B1C005EF821F0FB0A0000DD0B0000DD0B00008D
:100B2C00DD0B0000DD0B0000DD0B0000DD0B000019
:100B3C00DD0B0000DD0B0000DD0B0000DD0B000009
:100B4C00DD0B0000ED0B0000DD0B0000DD0B0000E9
:100B5C00DD0B0000DD0B0000DD0B0000DD0B0000E9
:100B6C00DD0B0000DD0B0000550C0000DD0B000060
:100B7C00ED0B0000ED0B0000550C0000550C0000B7
:100B8C00550C0000FB0A0000ED0B0000990A000058
:100B9C00DD0B0000FB0A0000DD0B0000B10C0000B7
:100BAC00ED0B0000B10C0000DD0B0000DD0B0000B4
:100BBC00B90C0000E70B0000ED0B0000DD0B000092
:100BCC00DD0B0000ED0B0000DD0B0000E10B000065
:100BDC0000268CE70427BC4689E70427BC4686E739
:100BEC0029786C2924D000263C44013CB4FBF7F452
:100BFC0007FB04F420B1211A6144514500F2158120
:100C0C00002A58D1BCF1040F00F08880BCF1080F09
:100C1C0040F014811A99073121F0070101F1080500
:100C2C001A95D1E9008908B1C4E9008908345EE756
:100C3C0013F8021C6C2903D000260427BC46D3E70A
:100C4C0000260827BC46CFE729784C291AD01A99D8
:100C5C00073121F0070101F108061A96D1E9006766
:100C6C00073424F0070440B1211A0831514513D838
:100C7C0029784C2913D0C4E90067083400260827CA
:100C8C00BC4634E71A99073121F0070101F1080637
:100C9C001A96D1E90067E3E76FF01B00BCE0C4E9EA
:100CAC000067EAE700260427BC469DE7324600268B
:100CBC000427BC4698E7E14680461A9A111D1A9102
:100CCC0012680292079A1D4698E6624B029A9A4263
:100CDC0004D3614B9A420AD3002300E00023002B7B
:100CEC007FF496AE059B03F00202002095E60123EB
:100CFC00F5E7069B01330693B4E610B10AF1010A3D
:100D0C00B0E6009B13B10AF1020AABE60298FFF7BA
:100D1C00F9F90AEB000303F1020AA3E61A990D1D77
:100D2C001A95096800B121600434E0E68046231A64
:100D3C00B3F5806F80F0858090B1002202609B0833
:100D4C000370009B83B1069BC370049B88F8023030
:100D5C001BBB019DDDF80C90DDF810B0029F3DE04F
:100D6C005344A3F1080057E0069B4370EDE70133B1
:100D7C009842EED903F140026A4412F8101C12F9A1
:100D8C00102C002AF3DA01F07F01A4EB08020132E7
:100D9C00524559D804F8011BE9E7019B0398E7E792
:100DAC00009B43B305F140036B4413F8203C04F85B
:100DBC00013B019EA4EB080333440133534546D851
:100DCC0005F140036B4413F8103C04F8013B324628
:100DDC003946204608F054FF34440135A94519D949
:100DEC00BBF1000FDCD005F140036B4413F9103C50
:100DFC00002BD5DAF1E705F140036B4413F8103CF6
:100E0C0058F82370002248F823203846FFF77AF967
:100E1C00461CCFE7A4EB080011B0BDE8F08F6FF0D3
:100E2C000D00F9E76FF01B00F6E76FF01B00F3E71E
:100E3C006FF01500F0E76FF01500EDE76FF015009F
:100E4C00EAE76FF01500E7E76FF01B00E4E76FF0DF
:100E5C001B00E1E7B49D000034AD000080B50546F1
:100E6C000E461746984604F05FFD034608F092FFC5
:100E7C000446DFF8189049F80030424639463046AF
:100E8C00A84754F8090001F057FA00BF0800000009
:100E9C002DE9F04383B0044608461546238B13F026
:100EAC00080F05D103F0070600230093019354E0CB
:100EBC00012909D043F02003238385F31188BFF364
:100ECC006F8F03B0BDE8F08343F010032383F4E786
:100EDC00204606F086FB42E0D4F814904A46694658
:100EEC00204606F097FB4FF00008238B03F0070712
:100EFC00B74269D0A268002A66D0012243F00803E9
:100F0C00238385F31188BFF36F8F002A64D1009B74
:100F1C002BB14B463A466946204606F0F4FBB8F135
:100F2C00000F02D034492046C047EFF3118520232F
:100F3C0083F31288BFF36F8F238B23F00803238373
:100F4C00238B13F0100F4DD023F0100323830120BB
:100F5C00268B06F007060028AFD00228B8D0002850
:100F6C00ABD0013804282BD801A353F820F000BFD4
:100F7C00E50E0000CD0F0000910F0000A50F000042
:100F8C00B90F00002369D3F800800621204606F033
:100F9C00FEFA4FF00009A8E72369D3F80480042176
:100FAC00204606F0F4FA4FF000099EE72369D3F8C7
:100FBC0008800521204606F0EAFA4FF0000994E774
:100FCC004FF00008C14690E7009A0AB1002295E75D
:100FDC00B8F1000F92D1B3E74A463946204606F0E5
:100FEC00DEFA94E713F0200F04D023F020032383C0
:100FFC000220ADE70020ABE74177000038B505468D
:10100C000B4C00E010340B4B9C420FD263685B79A5
:10101C00002BF7D02946204606F03DFC0028F1D0E5
:10102C0023681B68294620469847EBE738BD00BF6C
:10103C0048A0000058A000002DE9F04107460546E5
:10104C000AE007EA0807144B03EB06135B6804225B
:10105C001968204600F00CF9D5B195FAA5F6B6FA48
:10106C0086F60D4C04EB06140123B3406FEA03081B
:10107C0025EA0305237B002BEED03301064AD35817
:10108C001B69002BDDD0204698470028E4D1D8E717
:10109C003846BDE8F08100BF48A000002DE9F041C2
:1010AC0080460F46204BBFF35B8F53E8005F6A1CF2
:1010BC0043E800210029F8D1BFF35B8F002D2FD11D
:1010CC001A4C002607E0636804221968204600F0D9
:1010DC00CFF801361034164B9C4213D2237B002BD5
:1010EC00F7D02368DB680BB12046984723681B694F
:1010FC00002BE8D0204698470028E4D00123B340C9
:10110C001D43E6E7B8F1000F0BD055B12846FFF7A9
:10111C0093FF0546002FF8D00A2006F0C7FBF4E732
:10112C0000252846BDE8F081640B002048A0000093
:10113C0058A00000014B53F8200070478CA1000010
:10114C0048B108B5054A1060054B1960084600F017
:10115C00B3FA002008BD6FF0150070476005002041
:10116C00580B002008B50023054A1370054A13607C
:10117C00054A13604FF400410448FFF7E1FF08BD36
:10118C00B50C00205C0B0020600B0020B178000037
:10119C000D4B1B7803B1704710B500210120FFF7F0
:1011AC007DFF0A4C00E01034094B9C4208D2636866
:1011BC005B79002BF7D023689B6820469847F2E7B1
:1011CC00014B01221A7010BDB50C002048A0000084
:1011DC0058A00000014B01221A707047B40C00207B
:1011EC000D4BBFF35B8F53E8001F013143E8001236
:1011FC00002AF8D1BFF35B8F00B97047074BBFF3E0
:10120C005B8F53E8001F013943E80012002AF8D124
:10121C00BFF35B8FF1E700BF5C0B0020600B00207D
:10122C0010B50446044B1B689847A0602146034840
:10123C0006F033FB10BD00BF60050020380600200F
:10124C000248034BC01AC008704700BF48A00000FA
:10125C00F89F000010B50C46FFF7F2FFA04203D92F
:10126C00024B53F8340010BD0020FCE7F89F00003F
:10127C0008B5094BC31A1B110133D0F804C08CF804
:10128C00043043689A7143681960436801225A71AB
:10129C00FFF7A0FF08BD00BF48A000002DE9F04FEC
:1012AC0087B004AF81460D4690461E46D7F830B045
:1012BC00D7F838A0BAF1000F19D0FB6B7B60009304
:1012CC0053467A6B10210020FFF76EFBB0F5006FD0
:1012DC000ED340F2FF7303931D4B02930020019039
:1012EC000090034602221B4906F025FB2CE000204F
:1012FC00014600EB0B03173300246FF300046FF36C
:10130C0041046FF3820469F3C50468F3881460F335
:10131C0053246BF31F5423F00703ADEB030D0DF1B6
:10132C0010086B4613F1200008D0BAF1000F05D05D
:10133C00FB6B009353467A6BFFF736FB3346224622
:10134C002946404606F0E0FA0C37BD46BDE8F08F62
:10135C00ACA1000010A00000406820B1034BC01AE3
:10136C0040F3CF0070474FF0FF307047F89F0000FC
:10137C000EB400B582B0014603AB53F8042B0193B5
:10138C00034801F03BFA02B05DF804EB03B0704780
:10139C008F79000010B584B011F0440F05D01A4BB2
:1013AC001B6833B9002004B010BD1849FFF7E0FFEB
:1013BC00F9E717490968B2FBF1F2B2FBF3FC03FB46
:1013CC001C224FF47A7E0EFB02F2B2FBF3F403FB09
:1013DC0014210EFB01F1B1FBF3F10E4AA2FB0C320E
:1013EC00D20A4FF4616303FB12CC0B4BA3FB0CE34F
:1013FC005B0902910194C3EB0311ACEB81010091E9
:10140C000649FFF7B5FFCEE76C0B0020E4A1000006
:10141C00680B0020C5B3A29189888888F0A10000D0
:10142C0061B108B52AB1064A52F8232012B9054A0F
:10143C0000E0044A0449FFF79BFF08BD704700BF5A
:10144C006CA200000CA2000014A200002DE9F041D7
:10145C0005461746069EDDF81C8081B900242EB186
:10146C00324611492846FFF783FF0444B8F1000FB8
:10147C0014D06FB1099B042B13D00C4909E00C4B11
:10148C00099A53F822200B49FFF772FF0446E6E74E
:10149C00064942462846FFF76BFF04442046BDE848
:1014AC00F0810549F5E700BF2CA200001CA200004A
:1014BC0080A2000024A2000018A200002DE9F04F29
:1014CC0087B005460C46049205939DF84C7001F0CC
:1014DC00020B01F0010AC1F3C00801F4807906F097
:1014EC0011FA18B3024616492846FFF741FF064683
:1014FC00BBF1000F1CD13A465146284606F05FFA64
:10150C00B9F1000F01D0002311930397129B0293A2
:10151C00119B0193109B00930023049A414628468B
:10152C00FFF794FF304407B0BDE8F08F0026DFE7EB
:10153C00059A21462846FFF72DFF0644DBE700BF3E
:10154C0030A2000011F0100F0BD108B511F0200FD4
:10155C0003D00449FFF70CFF08BD0349FFF708FF50
:10156C00FAE770475CA3000034A200002DE9F041BB
:10157C0005460F46164698460699FFF7E3FF0024EA
:10158C00444505DA24492846FFF7F2FE0134F7E713
:10159C00002409E020492846FFF7EAFE0BE01F492A
:1015AC002846FFF7E5FE01340F2C0CDC002C02DD85
:1015BC0014F0070FEED0B442F1D23A5D1849284628
:1015CC00FFF7D6FEEFE717492846FFF7D1FE0024B8
:1015DC0009E011492846FFF7CBFE0BE012492846DB
:1015EC00FFF7C6FE01340F2C13DC002C02DD14F0C7
:1015FC00070FEED0B44207D23A5D0C4B9B5C13F054
:10160C00970FEBD12E22E9E703492846FFF7B0FEEE
:10161C00E8E7BDE8F08100BF28A2000040A200006E
:10162C0038A2000044A2000048A2000022AC000036
:10163C002DE9F04184B004469DF82C500C9F0E9E71
:10164C0095B9012B1ED019484FF0000827B13B4625
:10165C002246174905F059FFC6B905BB204606F0CE
:10166C0079F904B0BDE8F08103950A9802900193D2
:10167C0000920B4600220F992046FFF71FFF804671
:10168C000C48E3E70B484FF00008DFE70F9B009393
:10169C00434632460D99204606F0A9F9DDE72A4665
:1016AC000F99204606F097F9D8E700BFAD790000F6
:1016BC00092800008F790000074B01221A6004E012
:1016CC004008054A13685B001360044B9842F7D836
:1016DC00034B1860704700BF680B002040420F009E
:1016EC006C0B0020034B01221A70034B034A1A6047
:1016FC00704700BFB60C00208C0B0020900B002014
:10170C0008B5034B01221A70024806F0BEF908BD59
:10171C00B70C0020C0A20000014B196000207047DC
:10172C00840B002008B518B9044B00221A7008BDB0
:10173C0041F2883007F05FFFF9E700BFB60C0020DC
:10174C0038B504460A4B01221A700A4B1B782BB988
:10175C0038BD651E2046FFF7E5FF2C46002003F040
:10176C00F7F80028F4D0024B1B78002BF1D1EFE7EF
:10177C00B60C0020B70C0020F8B506460D46042721
:10178C0006E03846FFF7DCFF9CB90D4B1B7883B1A4
:10179C002A463146002003F073F804460028F0D1A5
:1017AC00074B1B78002BEFD0013F3846FFF7BAFFF1
:1017BC00EAE714B9024B1B7803B92C462046F8BD56
:1017CC00B60C002010B50C46044B1868FFF7B2FCA1
:1017DC0003460F2221460248984710BD840B002077
:1017EC00C0A20000014B036000207047D0A2000093
:1017FC0070B54569002D41D00C462B79244A565CB6
:10180C00B3423ED0234A525C93423DD1AB689847D9
:10181C00002804DB2E71022C16D000202DE0022CA7
:10182C0010D0032C29D110F1860F0BD0BFF35B8F96
:10183C0055E8003F43F0020345E80032002AF7D197
:10184C00BFF35B8F2E7118E0BFF35B8F55E8003F41
:10185C0023F0040345E80032002AF7D1BFF35B8F75
:10186C00BFF35B8F55E8003F23F0020345E80032DD
:10187C00002AF7D1BFF35B8F002070BD6FF05700CB
:10188C00FBE76FF07700F8E76FF08500F5E700BF36
:10189C00D4A20000D0A200002DE9F04184B00E4685
:1018AC0090461F4644690521204606F062F900283F
:1018BC004AD0284B1B78ABB90025E16829B3013914
:1018CC00E16041B973BBA368002160699847051EAC
:1018DC0031DB012323711F4B1B7883BB284604B0DB
:1018EC00BDE8F08104F1180507F0AAFF40B1002211
:1018FC000023284603F08AFA051E27DB3346DCE773
:10190C004FF0FF324FF0FF33F3E7134B02930020FD
:10191C000190009003460222104906F037F96FF04F
:10192C007705D8E70223237142463B4604F1380081
:10193C0003F01AFCCFE7E3680133E360CBE704F173
:10194C00180003F01FFAC9E70025C7E76FF00F0571
:10195C00C4E700BFBB0C0020E4A2000030A00000D4
:10196C0038B54469002C4FD005460521204606F0B9
:10197C0000F910B10025284638BD284606F0A9F814
:10198C00002844D10821686906F0F3F828BB214BE4
:10199C001B783BBB636973B323799BBBA3680021A2
:1019AC0060699847051E0FDB012323710023E36058
:1019BC00BFF35B8F54E8003F43F0200344E8003250
:1019CC00002AF7D1BFF35B8F124B1B78002BD2D0C0
:1019DC0004F1180003F0D6F9CDE7284606F0AAF872
:1019EC000546C8E704F118004FF0FF324FF0FF3303
:1019FC0003F00CFACEE76561074904F1380007F0F3
:101A0C00D4FEC9E70025D1E76FF08505B3E76FF089
:101A1C000F05B0E7BB0C0020177C000008B503488D
:101A2C0005F0A7FD024805F0A4FD08BDF8A20000D2
:101A3C0030A3000070B586B0054603684268816823
:101A4C001C4E0591049203931B4B029300240194AA
:101A5C000094234601223146204606F01DF9EB681E
:101A6C002A696969059104920393144B02930194BA
:101A7C000094234601223146204606F00DF9EB690D
:101A8C0003930F4B02930194009423460122314699
:101A9C00204606F001F9AB6903930A4B02930194BB
:101AAC000094234601223146204606F0F5F806B094
:101ABC0070BD00BF28A0000060A3000090A3000030
:101ACC00C0A30000D0A3000030B585B004460D467D
:101ADC0011B10846FFF7AEFF012C05D02946204670
:101AEC0002F098FF05B030BDEFF30583103B039374
:101AFC00054B0293002001900090034601220349FC
:101B0C0006F0CAF8EAE700BF00A4000028A0000015
:101B1C0030BFFFF7FDBF00BF38B50446054D2A4660
:101B2C00054908F0ADF8054A0021601908F0B6F82F
:101B3C0038BD00BF000000009CA0000004000000A5
:101B4C0070B50646064D074B1D444C1B2046FFF74F
:101B5C00E3FF083CC6F8B44005F1080070BD00BFB7
:101B6C000000000004000000074B9B6893F90E2056
:101B7C00002A08DB044A5269934204D0034A536892
:101B8C0043F0805353607047740C002000ED00E06C
:101B9C0081690D4B5A6942F480725A61BFF34F8FC1
:101BAC00BFF36F8F31F8021C5A6922F480725A61AC
:101BBC00BFF34F8FBFF36F8F4DF60273994201D075
:101BCC00002070470120704700ED00E010B584B094
:101BDC0000241C7002F07F44B4F17F4F19D102F045
:101BEC000C04082C05D012F0080F0FD0084604B0D6
:101BFC0010BD094B0293002401940094234601224A
:101C0C000649204606F065F82046F0E701221A70D6
:101C1C00EDE70020EBE700BF14A4000028A00000B3
:101C2C00F0B585B005460F4614464C4B0293002088
:101C3C000190009003460122494906F04AF8494BAD
:101C4C009B6A13F4805F26D11626464B9B6A13F4CD
:101C5C00006F2CD1434B9B6A13F4007F33D1414B63
:101C6C009B6A13F4806F55D13E4B9B6A13F4807FB3
:101C7C005CD13C4B9B6A13F4005F63D1394A936A85
:101C8C0043F47F4393620121284606F020F820702C
:101C9C00304605B0F0BD344B02930020019000900B
:101CAC00034601222E4906F014F81726CDE72F4BD8
:101CBC00029300200190009003460122284906F06F
:101CCC0008F81826C6E72A4B0293002001900090D2
:101CDC0003460122224905F0FCFF224B9A6B9B6ABA
:101CEC0013F4004F01D11926B9E70392214B02934B
:101CFC0000200190009003460122194905F0E9FFEC
:101D0C0037B1184A936A23F4004393621926A6E765
:101D1C001926A4E7184B029300200190009003466B
:101D2C0001220F4905F0D5FF1A269DE7134B0293AC
:101D3C0000200190009003460122094905F0C9FFDB
:101D4C001B269BE70E4B029300200190009003464C
:101D5C000122034905F0BDFF1C268FE740A40000BB
:101D6C0028A0000000ED00E058A400006CA40000C6
:101D7C0080A400009CA40000B4A40000D0A4000027
:101D8C00E8A4000000B585B03D4B02930020019003
:101D9C000090034601223B4905F09BFF3A4B9B6A9E
:101DAC0013F0007F23D11D20374B9B6A13F0807FEB
:101DBC0029D1354B9B6A13F4002F30D1324B9B6ADF
:101DCC0013F4802F37D1304B9B6A13F4003F3ED174
:101DDC002D4B9B6A13F4803F45D12B4A936A6FEAD3
:101DEC0003436FEA1343936205B05DF804FB274B82
:101DFC00029300200190009003460122214905F036
:101E0C0068FF1E20D0E7224B029300200190009027
:101E1C00034601221B4905F05CFF1F20C9E71D4B3F
:101E2C00029300200190009003460122154905F011
:101E3C0050FF2120C2E7184B029300200190009024
:101E4C00034601220F4905F044FF2220BBE7134B48
:101E5C00029300200190009003460122094905F0ED
:101E6C0038FF2320B4E70E4B029300200190009022
:101E7C0003460122034905F02CFF2420ADE700BFE7
:101E8C0018A5000028A0000000ED00E030A500001F
:101E9C0044A5000060A5000080A50000A8A50000D6
:101EAC00C4A5000000B585B000200870054B029356
:101EBC000190009003460122034905F00AFF05B08A
:101ECC005DF804FBF0A5000028A0000000B587B069
:101EDC000F2910DC094B103904910393084B029322
:101EEC0000200190009003460122064905F0F1FE06
:101EFC0007B05DF804FB044BEDE700BF14A600002F
:101F0C0048A6000028A000002CA600002DE9F041F6
:101F1C0084B004460F461546584B0293002001909E
:101F2C00009003460122564905F0D3FE554B9B6A9F
:101F3C0013F0100F3DD11026524B9B6A13F0080F73
:101F4C0043D1504B9B6A13F0020F4AD16FF0150826
:101F5C004C4B9B6A13F0010F6ED14A4B9B6A13F0EA
:101F6C00200F75D1474B9B6A13F0100F04D1454BD2
:101F7C009B6A13F0020F04D0424B5B6813F4006FA2
:101F8C0072D1404B9B6A13F0200F04D03D4A536A28
:101F9C0023F4005353623B4A936A43F0FF0393626A
:101FAC000121204605F093FE2870304604B0BDE8B0
:101FBC00F081354B029300200190009003460122E2
:101FCC002F4905F086FE1126B6E7304B0293002010
:101FDC000190009003460122294905F07AFE122651
:101FEC00AFE72B4B02930020019000900346012297
:101FFC00234905F06EFE234BD3F834809B6A13F013
:10200C00800F03D16FF015081326A1E7CDF80C80D3
:10201C00204B0293002001900090034601221849A6
:10202C0005F057FE37B1174A936A23F08003936289
:10203C0013268DE713268BE7174B02930020019094
:10204C000090034601220E4905F043FE142684E756
:10205C00124B029300200190009003460122084984
:10206C0005F037FE15267DE72146404600F044FA80
:10207C00002886D080F30988022682E75CA600003F
:10208C0028A0000000ED00E074A600006CA4000085
:10209C00A8A60000C0A60000D8A60000E8A4000076
:1020AC0070B584B005460E46384B0293002401945B
:1020BC000094234601223649204605F00AFE34706E
:1020CC00344BDC6A14F002040BD1324BDB6A002B6C
:1020DC0013DB304BDC6A14F0804419D1204604B079
:1020EC0070BD2D4B029300240194009423460122D1
:1020FC002749204605F0EDFDF0E7284B0293002020
:10210C000190009003460122214905F0E2FDE5E72C
:10211C00234B0293002001900090034601221C499E
:10212C0005F0D7FD2846FFF733FD98B9194B9B6A8C
:10213C0013F0FF0F1CD1174B9C6A14F47F441ED173
:10214C00144B9B6AB3F5803FC8D32846FFF71AFEA1
:10215C000446C3E72B680393124B029300200190B3
:10216C000090034601220A4905F0B3FD2C68B5E73F
:10217C00324601212846FFF7C9FE0446AEE7324637
:10218C0001212846FFF74CFD0446A7E7F8A60000FE
:10219C0028A0000000ED00E010A7000034A700000C
:1021AC0044A7000064A7000030B58BB01F4B5D68DE
:1021BC00C5F30805002383F31188BFF36F8F0DF16E
:1021CC002603FFF703FD04460DF12702294605F00F
:1021DC008FFD9DF827300BB10BB030BD05460DF1CE
:1021EC00040C20686168A268E368ACE80F00206901
:1021FC006169A269E369ACE80F009DF826304BB128
:10220C00089BC3F308025AB96FEA53236FEA4323BE
:10221C00089305E0089B23F4FF7323F00103089354
:10222C0001A92846FFF750FCD6E700BF00ED00E0FF
:10223C00044B5A6942F010025A615A6922F00802A2
:10224C005A61704700ED00E0EFF30880EFF309816D
:10225C0001B57246FFF7A8FF01BD00BF002080F357
:10226C001488BFF36F8F114880F308880020104941
:10227C00087001F085FC00200E490860BFF34F8FF9
:10228C0000F030F8202080F311880B484FF40461E3
:10229C00401880F30988EFF314800221084380F37F
:1022AC001488BFF36F8F00F0E9F80000C02A0020FB
:1022BC00BB0C002094ED00E0001D0020084BD3F86F
:1022CC009000C0F30720002306E0054AC2F89830BE
:1022DC000021C2F8A01001338342F6DB704700BF27
:1022EC0000ED00E010B572B6002484F31388FFF7FC
:1022FC00E5FF234608E003F120010E4A4FF0FF30C2
:10230C0042F821000133DBB2072BF4D9002308E09B
:10231C0003F16001074A4FF0FF3042F8210001330E
:10232C00DBB2072BF4D962B6BFF34F8FBFF36F8FBD
:10233C0010BD00BF00E100E008B50A4B9B6883426A
:10234C0002D003F0F7FA08BDEFF30583002BF8D0A9
:10235C00054B5A6842F080525A605A6A22F4004285
:10236C005A62EEE7740C002000ED00E016498A6812
:10237C004FF030001044EFF3098C80E8F01F202060
:10238C0080F31288BFF36F8F104F4FF000664A69CD
:10239C008A603E604FF0B404141920680C4C206025
:1023AC00D2F8B8000023C2F8B83080F3118804B515
:1023BC00104600F023F9BDE8044002F1300090E82B
:1023CC00F01F8CF309887047740C002004ED00E0BA
:1023DC00A80B00201EF0040F0CBFEFF30880EFF3E6
:1023EC000980816911F8021C0229FFD001B57246DF
:1023FC0005F061FC01BD00BF002807DB00F01F02E7
:10240C00400901239340024A42F82030704700BF34
:10241C0000E100E000280CDB00F01F024009012362
:10242C0093402030034A42F82030BFF34F8FBFF364
:10243C006F8F704700E100E0002808DB4901C9B24A
:10244C0000F1604000F5614080F80013704700F027
:10245C000F004901C9B2014B1954704714ED00E04B
:10246C004209054B53F8222000F01F00012303FA08
:10247C0000F01040704700BF00E100E008B50B4BC6
:10248C000B4A22F07F029A60BFF34F8FBFF36F8F1E
:10249C00D3F8882022F47002C3F8882002F0C8FB1D
:1024AC0003F0BEFB00F072F802F022FC00ED00E03D
:1024BC000000000010B4A2F120040E4942F8081CE0
:1024CC0021F0010142F8081C42F8203C019B42F823
:1024DC001C3C029B42F8183C039B42F8143C4FF006
:1024EC00807342F8043C04650023C0F8B83010BC7B
:1024FC00704700BF690E0000104B9B68BBB110F118
:10250C00160F0BD0D3F8A420A2F1400C844510D8A0
:10251C00824210D98A4207D800207047D3F8A420F1
:10252C008A4201D800207047D3F8A40070470020DD
:10253C007047002070470020704700BF740C0020CB
:10254C0008B50E4615460A4A9060D0F8B420094BDF
:10255C001A6000F053F82C4686F309880020064BCD
:10256C0098472046002100220023044C204700BF3E
:10257C00740C0020A80B0020737D0000690E000075
:10258C00014B10221A61704700ED00E0002206E0BA
:10259C0003F00F030949194420230B760132262A34
:1025AC000ADC53B2002BF3DB03F1604303F5614308
:1025BC00202183F80013F1E7704700BFFCEC00E02A
:1025CC0008B5EFF30583103B044A02EBC3014968DD
:1025DC0052F833008847FFF7C7FA08BD449E000045
:1025EC0008B5034B034A0121034805F0F6FC08BD6E
:1025FC00000001200000002080A7000008B5D0F8E2
:10260C00A430403B0448036040234360034B836089
:10261C00012105F0E6FC08BDAC0B002000000B15F9
:10262C00084AC2F898000B6823F01F03034343F0D9
:10263C001003C2F89C308B6843F00103C2F8A03041
:10264C00704700BF00ED00E010B584B004460D4BA0
:10265C00D3F89030C3F30723013B984204D8FFF71B
:10266C00DFFF204604B010BD0390074B02930020FF
:10267C000190009003460122044905F0A8FB6FF07D
:10268C001500EFE700ED00E090A7000020A000008F
:10269C002DE9F04385B080460F4699461646002535
:1026AC0009E02146F0B205F0A1FB064610F1160F29
:1026BC001ED001360135BD421ADA05EB450408EB94
:1026CC0084046268002AF5D0B9F1000FE9D02046E5
:1026DC0005F06CFB0028E4D10395074B02930190A5
:1026EC00009003460122054905F071FB6FF01506B9
:1026FC00304605B0BDE8F083B8A7000020A000006C
:10270C0010B5034C01232278FFF7C2FF207010BDD7
:10271C00B80C002008B500230B4A1278FFF7B8FF5D
:10272C0010F1160F0FD0024606E0084BC3F89820A4
:10273C000021C3F8A0100132044BD3F89030C3F33E
:10274C0007239342F1DC08BDB80C002000ED00E03B
:10275C00044B0522C3F89420BFF34F8FBFF36F8F48
:10276C00704700BF00ED00E0BFF35F8F024B00220B
:10277C00C3F89420704700BF00ED00E038B51C4B47
:10278C001D681C4BD3F89030C3F307239D422BD804
:10279C00FFF7EAFF002409E0154B5B6804EB4401EA
:1027AC0003EB81012046FFF73BFF0134A542F3D830
:1027BC001148057005F039FB10F1160F13D00E4BB4
:1027CC001A780C4BD3F89030C3F307239A4207DAEC
:1027DC00084BC3F898200021C3F8A0100132F0E791
:1027EC00FFF7B6FF002038BD4FF0FF30FBE700BF0E
:1027FC00DCA7000000ED00E0B80C002030B587B07D
:10280C000D46114600240094019402940394049400
:10281C00059402228DF80220044A01920490059539
:10282C001A46684603F08CFB07B030BDF77F0000FA
:10283C0008B5064921F00701C1F1005202F58032BA
:10284C00034804F0DDFD002008BD00BF472F002029
:10285C00B80B00200123044AC2F840354FF08042E7
:10286C00C2F878350020704700E0014030B108B55F
:10287C00034B800143F00103984708BD704700BF2C
:10288C00B0A0000000487047180C0020034BC01A81
:10289C008010034B03FB00F0704700BFD80B0020E7
:1028AC00B76DDBB638B505460C46FFF7EFFF0146B2
:1028BC004022034805F02FFC01462846A04738BDAE
:1028CC00FC9D000030B583B005460C46FFF7DEFFDB
:1028DC000146402300932346054A064805F035FC83
:1028EC00011E01DB03B030BD2846A047FAE700BF4C
:1028FC009F810000FC9D000008B510B101280DD08F
:10290C0008BD0021084805F092FB836813F0070FFF
:10291C00F6D10021044805F0ECFBF1E70121024857
:10292C0005F0E7FBECE700BFFC9D000010B582B0A2
:10293C00EFF31184202383F31288BFF36F8F154AB2
:10294C00136843F00201116013F0010F09D1002349
:10295C0084F31188BFF36F8FB3B905F022FC02B07A
:10296C0010BD0DF1070201214FF0804005F043FB33
:10297C009DF80730012B01D00023E9E7FFF782FF18
:10298C0005F0A5FB0123E3E70021034805F0B1FBAB
:10299C00E5E700BF280C0020FC9D000010B5EFF30C
:1029AC001184202383F31288BFF36F8F074A1368B7
:1029BC0023F00201116013F0010F04D084F311888D
:1029CC00BFF36F8F10BD05F0F1FBF7E7280C00206B
:1029DC0070B582B00546012807D14FF08043D3F87B
:1029EC001C3403F00303012B4BD006F029FF0446E3
:1029FC0018B9284B1B78002B38D1EFF31186202304
:102A0C0083F31288BFF36F8F012424B94FF08043F6
:102A1C000222C3F8082301AA00214FF0804005F0E0
:102A2C00EAFA20B1019B012B26D0012D24D0FCB158
:102A3C00304605F0ACF94FF08043D3F81835002B35
:102A4C00E9D14FF08043D3F80431002BE3D04FF0A1
:102A5C0080430022C3F80421D3F804210122C3F8D7
:102A6C0018250D49C1F880219A60D4E70026CCE7DF
:102A7C00012005F0A5FBDEE72CB186F31188BFF32E
:102A8C006F8F02B070BD4FF080430222C3F8042355
:102A9C00F7E700BFBB0C002000E100E000B585B0FB
:102AAC00CDF800D0CDF804D000230293012303937A
:102ABC006B46074A05F065FB002805DB4FF48042A6
:102ACC000023684602F0A2F905B05DF804FB00BFD4
:102ADC00F981000008B5064B1B7803B108BD4FF413
:102AEC00A57006F088FD024B01221A70F6E700BFB4
:102AFC00B90C002070B5064600220121104605F0E5
:102B0C0026F9114801F0D4F9104B984219D101F073
:102B1C00E3F90024012C12D82146304605F087FA3F
:102B2C0005462146304605F08FFA094904F010FE9F
:102B3C00002805DB0123AB601C44E4B2EAE700206B
:102B4C0070BD6FF00400FBE7052900000000AD0B21
:102B5C0010A8000010B50446104B0121BFF35B8F89
:102B6C0053E8002F43E800100028F9D1BFF35B8F26
:102B7C001AB1631E012B0DD910BD094805F064FA7A
:102B8C00084900234B608B60CB6001238B6004F001
:102B9C00FCFDEEE72046FFF71BFFEDE7D40B002012
:102BAC00FC9D0000C40B002008B9024870470020AF
:102BBC00704700BF149E00002DE9F04786B0884690
:102BCC0015469946446801F01F06237B46EA4316D6
:102BDC00204605F0C8FB00285DD0B5F5001F2AD0B3
:102BEC000DF10C0A0027039704974946284605F077
:102BFC002FFC8DF80C00009701970297CDF804A0DC
:102C0C00A36823FA08F313F0010F02D1B5F1A07FEA
:102C1C0018D010346A463146204606F0E7FB214BAB
:102C2C0098423BD101223146204606F003FC00209D
:102C3C0006B0BDE8F087314604F1100006F0FEFB4B
:102C4C000020F5E706F01F03720917D14FF0A042E0
:102C5C0003F5E07352F8233013F0010FD9D104F1CE
:102C6C0010050DF117023146284606F0CBFB0E4B32
:102C7C00984205D00DF117030493CAE73A46E7E7EB
:102C8C000DF11701284606F0D1FB064B9842F1D006
:102C9C006FF00B00CCE76FF08500C9E76FF0150003
:102CAC00C6E700BF0000AD0B0400AD0B2DE9F043EF
:102CBC0089B0074689461446456801F01F082B7BEE
:102CCC0048EA4318104605F053FB8DF81E0040F2FD
:102CDC0006332340B3F5837F5ED016D8062B57D02E
:102CEC0006D9B3F5807F0DD101238DF81D3024E07A
:102CFC0003B3022B03D104238DF81D301DE06FF0BC
:102D0C0015076FE06FF015076CE040F2022293425A
:102D1C0046D0B3F5407F03D103238DF81D300CE072
:102D2C00B3F5007F03D102238DF81D3005E06FF061
:102D3C00150757E000238DF81D30012606FA09F619
:102D4C003146384605F022FB071E4BDB14F4002FEE
:102D5C002AD06B68C3F80865284605F004FB50B30D
:102D6C0010350DF11F024146284606F04BFB064676
:102D7C0014F4403F3AD14146284606F04FFB3A4BFB
:102D8C009E422FD19DF81F10284606F04BFB29E0E0
:102D9C0006238DF81D30D0E707238DF81D30CCE7C6
:102DAC0005238DF81D30C8E714F4802FD4D06B6840
:102DBC00C3F80C65D0E7C4F340438DF8083014F425
:102DCC00803F0CBF012300238DF8103000230193AA
:102DDC000DF11D0300930DF11E0304AA02A9404638
:102DEC0005F033FA384609B0BDE8F08302AA002397
:102DFC0002930393049305930693059204AA414608
:102E0C00284606F0F3FA184B984202D06FF01507DB
:102E1C00E8E714F4003F1AD09DF81D308DF81030FF
:102E2C0014F4803F0CBF012300238DF811309DF862
:102E3C001E308DF81230002304AA4146284606F0B5
:102E4C00D9FA094B98429AD06FF01507CAE70023BC
:102E5C000493059306930DF11E03049304AA4146B3
:102E6C00284606F0C3FAECE70000AD0B10B5446839
:102E7C00204605F078FA08B9002010BD1034204621
:102E8C0006F0C8FA08B10020F7E70021204606F04A
:102E9C00BDFA094B98420BD100220849204606F096
:102EAC00ADFA00220521062004F051FF0020E4E7D2
:102EBC006FF00400E1E700BF0000AD0B958400004B
:102ECC0030B500F01F0C400917D14FF0A04E0CF597
:102EDC00E0705EF820500A4C2C4041EA420141EA75
:102EEC0083039DF80C2043EA02239DF8102043EA4B
:102EFC00024323434EF8203030BD4FF0000EE6E77E
:102F0C00F0F8FCFF2DE9F04F85B007468846914656
:102F1C00002420E04FF0FF3633E0C9F80865029535
:102F2C00012303930021B6F1FF3F12D0002942D0B8
:102F3C0057F80A3013F4004F41D1039D002201923F
:102F4C00CDF800B0C3F34123029A29463046FFF76F
:102F5C00B7FF0134E4B2444534D24FEA840A57F83F
:102F6C002430C3F3C725C3F3C322C3F3080615F0FB
:102F7C00080529D1164911F802B040F2FF12964209
:102F8C00C8D01B0E052B08D0062B0DD0042BC4D09B
:102F9C006FF0850005B0BDE8F08FC9F80C65012312
:102FAC00029303930021BEE7C9F8106502950395BF
:102FBC004FF0FF31B7E7304605F08EFAB8E7012243
:102FCC000292BBE70020E5E76FF01500E2E700BFD7
:102FDC008CA80000134B984211D9134B984211D96D
:102FEC00124B984211D9124B984211D9114B98425D
:102FFC0011D9114B984211D24FF0804070474FF0CD
:10300C00007070474FF0806070474FF00060704761
:10301C004FF0805070474FF0005070474FF0004019
:10302C00704700BF8FD003001FA107003F420F0065
:10303C007F841E00FF083D0000127A0070B58AB034
:10304C000C460569466895F85D301BB12B689942B2
:10305C0000F0B280A38813F4006F4AD113F0010F73
:10306C0054D113F0080F60D1C3F34513082B69D169
:10307C002268524B9A4272D90DF1140C06F1080ECB
:10308C00BEE80F00ACE80F00DEF80030CCF80030E2
:10309C002068FFF79FFF0790A38813F0020F6BD0F7
:1030AC0013F0040F6DD003238DF82030A38813F098
:1030BC00100F6AD001238DF821303368D3F808053E
:1030CC00A188C1F3400105F072FA95F85D30002B30
:1030DC005DD12B463A4A05A9304601F0B1FA394B7D
:1030EC0098425BD1012385F85D302C6000200AB03A
:1030FC0070BD354B029300200190009003460122D5
:10310C00324905F02EFB6FF08500F0E7036803935E
:10311C002F4B0293002001900090034601222B4973
:10312C0005F01FFB6FF01500E1E72A4B029300201E
:10313C000190009003460122244905F012FB6FF028
:10314C001500D4E7244B0293002001900090034615
:10315C0001221E4905F005FB6FF01500C7E71F4B58
:10316C00029300200190009003460122174905F0BC
:10317C00F8FA6FF01500BAE713F0040F03D001232F
:10318C0092E7022390E700238EE7002393E7304673
:10319C0001F08AFA002385F85D309AE70390104B12
:1031AC00029300200190009003460122074905F08C
:1031BC00D8FA6FF004009AE7002098E747E801007E
:1031CC00FD3200000000AD0B94A8000040A00000F0
:1031DC00B0A80000D4A80000F4A8000024A90000A6
:1031EC0058A9000030B585B004460020034605E020
:1031FC00626B02EBC302526810440133A26B934220
:10320C00F6D30022134605E0E16B01EBC3014968DC
:10321C000A440133216C8B42F6D3824238BF0246FA
:10322C004FF4FA5303FB02F0254655F8203B1B687C
:10323C00B0FBF3F0C830410CC00340F2E733C018C8
:10324C004FF47A724FF0000341F10001FCF740FF9C
:10325C0002460B46284601F0D9FD10B9206B05B08B
:10326C0030BD064B029300200190009003460122D2
:10327C00034905F076FA6FF07300F0E780A90000BF
:10328C0040A0000030B585B0044640682269916CBE
:10329C0001B3136D03B38B4228BF0B4623B3936565
:1032AC00556C0095D5B1D9B90191D16C0291C9B1C8
:1032BC00126D02B9134603930022694601F038FAE5
:1032CC000A4B984204D06FF00401204605F012FA24
:1032DC0005B030BD136DE1E70B46DFE70021E3E7F6
:1032EC001946E1E70023E6E70021EEE70000AD0B0D
:1032FC000378002B5ED110B584B00C468A6DE2B118
:10330C008B6C43B19A421ED89B1A8B6433B34B6CB3
:10331C000BB113444B64A26D236D4BB19A422DD863
:10332C009B1A2365002B34D0E36C0BB11344E3647C
:10333C00606DFFF7A7FF04B010BD6FF07301606DF7
:10334C0005F0D8F9F7E71C4B029300200190009090
:10335C0003460122194905F004FADCE74B6B0833EC
:10336C004B638B6B013B8B63012301F148023831BA
:10337C0004F1340005F036F96064CCE70E4B02938F
:10338C00002001900090034601220C4905F0E9F958
:10339C00CEE7E36B0833E363236C013B2364012327
:1033AC0004F1500204F1400104F13C0005F01AF95B
:1033BC00E064BDE7704700BFA8A9000040A0000072
:1033CC002DE9F04385B004460E4690461F4605692C
:1033DC00D0F8049000910E9B0D9A9DF83010284661
:1033EC0005F0A0F931462046FFF728FE064608BB3B
:1033FC00012385F85C30D9F82410B1F1FF3F21D1BD
:10340C0001233A464146284605F003F900220121E2
:10341C00284605F02EF92046FFF734FF2846FFF723
:10342C00E1FE064610F1740F1ED00022114628460C
:10343C0005F01FF93146284605F067F9304605B00E
:10344C00BDE8F08309F1280005F0E4F910F1740FE0
:10345C00D6D10E4B0293002001900090034602221D
:10346C000B4905F07EF9CBE70027AF65484601F024
:10347C001BF985F85D706FF07301204605F03AF981
:10348C0005F1200001F0EAFCCFE700BFC8A900005D
:10349C0040A0000030B587B00546846811E0236871
:1034AC001B68227904920393114B029301900090B4
:1034BC00034601220F4905F054F96FF0120014E095
:1034CC000834AB68EA6803EBC2039C420CD2206858
:1034DC0006F097F80028E2D04FF4B011204605F022
:1034EC003EF80028ECDA00E0002007B030BD00BF49
:1034FC00F4A9000040A0000070B584B045680669CE
:10350C000021286A05F046F9041E0EDB696AB1F148
:10351C00FF3F0DD1EB6998473046FFF7BBFF041E08
:10352C0003DB304605F0C5F80024204604B070BD1E
:10353C0005F1280000F046F8044610F1130F0DD0E9
:10354C0010F1050FE6D10B4B029300200190009077
:10355C0003460122084905F004F9E6E7074B0293FC
:10356C0000200190009003460122034905F0F9F870
:10357C00DBE700BF44AA000040A0000018AA00002E
:10358C0030B500F01F0C400917D14FF0A04E0CF5D0
:10359C00E0705EF820500A4C2C4041EA420141EAAE
:1035AC0083039DF80C2043EA02239DF8102043EA84
:1035BC00024323434EF8203030BD4FF0000EE6E7B7
:1035CC00F0F8FCFF30B587B004460D4601238DF8AA
:1035DC00173002238DF80C300DF1160104910DF10A
:1035EC001703009303AB01930023029305F01EFF16
:1035FC000C4B984212D16A462946204605F0F6FE3D
:10360C00084B984202D1002007B030BD9DF816102F
:10361C00204605F007FF6FF00400F5E76FF012008D
:10362C00F2E700BF0000AD0B21F07F4100F5A87060
:10363C00014B43F820107047001001404FF48033C9
:10364C008340024AC2F84433704700BF0010014067
:10365C004FF480338340024AC2F84833704700BFAE
:10366C0000100140014BD3F80405704700100140D5
:10367C002DE9F843054689469046FFF7E9FF2846B1
:10368C0005F054F94E46032710E0FFF7EBFF044614
:10369C00494605F03AF9B0F5000F26D9284605F051
:1036AC0045F9B8F1000F22D13E19013731462846B1
:1036BC00FFF7BAFF2846FFF7C1FFFFF7D3FF044619
:1036CC00C11C304605F021F90A4B98420AD928460C
:1036DC0005F01FF90028D8D1B8F1000FE4D06FF035
:1036EC00150000E00020BDE8F8830020FBE76FF038
:1036FC001500F8E7FDFF7F00034B044AC3F80823CD
:10370C00C3F84823704700BF0010014003000F00AE
:10371C0010B5012383406FEA030C0E4ABFF35B8F95
:10372C0052E8001F01EA0C0E42E800E4002CF7D12D
:10373C00BFF35B8F4FF4803282400748C0F80823F8
:10374C00BFF35F8FBFF36F8F0B4214BF01200020BC
:10375C0010BD00BF3C0C0020001001404FF4803322
:10376C008340144AD2F80423134201D1002070473D
:10377C0010B5044601238340DB430F49BFF35B8F35
:10378C0051E8002F02EA030041E8000CBCF1000FE5
:10379C00F6D1BFF35B8F22FA04F313F0010F03D1C0
:1037AC00204605F0B6F818B1204605F0BFF8012008
:1037BC0010BD00BF00100140380C002001B970474B
:1037CC0001238340114ABFF35B8F52E800CF4CEAD0
:1037DC00030C42E800C10029F7D1BFF35B8F4FF413
:1037EC00803383400A4AC2F80433BFF35B8F094B22
:1037FC001B68BFF35B8FC34013F0010FDFD0064B88
:10380C004FF40032C3F80021D9E700BF3C0C002074
:10381C0000100140380C002000E100E038B51446DF
:10382C001046194605F08EF802460D490B68E01A51
:10383C001B184C6844F100040B604C60A2F500139B
:10384C00B3F5400F09D2074B1B68190A1B06D41895
:10385C0041F10005044BC3E9004502F0A3FA38BD61
:10386C0058070020400C00206007002038B50D4B95
:10387C001C68250A2406BFF35F8FFFF7F3FE03468F
:10388C00001945F10001B3F5801F0AD2064BD3E9AC
:10389C000023904271EB030303D210F1807041F1CD
:1038AC00000138BD400C0020600700202DE9F041DC
:1038BC00064614461D469DF820801046194605F014
:1038CC0041F80746FFF7D2FFA04271EB050319D26E
:1038DC00201A65EB01011D4B984271F100012FD2AA
:1038EC001B4B03EB0613D3E90223AB4208BFA242E6
:1038FC0001D1002018E0424639463046FFF7B8FEA9
:10390C0090B11BE0B8F1000F1DD10123B340114A57
:10391C00BFF35B8F52E8000F184342E80001002907
:10392C00F8D1BFF35B8F0020094B320103EB061675
:10393C00C6E9024506999950079B7360BDE8F08172
:10394C006FF01500FAE76FF01500F7E70100800043
:10395C0048070020380C002030B585B0FFF7CCFEAE
:10396C0000231E4AC2F80835002B25DD1B4C02250E
:10397C00C4F804531A4B4FF40032C3F880210022D0
:10398C000121112004F0E3F9112004F0D6F90123F0
:10399C00A3602360134A1360002402940194124B19
:1039AC000093124A0023204604F0DCFF2846FFF760
:1039BC00D1F8204605B030BD0D4A02EB03124FF092
:1039CC00FF304FF0FF31C2E902014FF480329A40D0
:1039DC000249C1F804230133C6E700BF00100140BF
:1039EC0000E100E03C0C002029380000FFFF7F00C4
:1039FC00480700202DE9F04782B00446FFF7AEFEE1
:103A0C0010B902B0BDE8F087FFF730FF82460D46D3
:103A1C0004F09BFF0646154B03EB0413D3E9028914
:103A2C00C24575EB09050BD20025304604F095FF15
:103A3C00002DE6D0009742464B462046A847E0E7CB
:103A4C000A4A230102EB0411D5584F680020D050CC
:103A5C004FF0FF324FF0FF33C1E902232046FFF74E
:103A6C00F7FD204604F062FFDFE700BF48070020A7
:103A7C0010B50D4BD3F8043313F0020F03D100240F
:103A8C00002C0BDD10BD0221074804F008FF0028B4
:103A9C00F5D0064A136801331360F0E72046FFF7B0
:103AAC00A9FF0134ECE700BF00100140400C0020DE
:103ABC0010B584B0B0F1FF3F18D001281BDD154BB9
:103ACC009842A8BF18460446134B01221A70FFF700
:103ADC00CDFE124B1A685B68801AB0F5000F0CD241
:103AEC000444B4F5000F09D30A4C07E00A4B00223A
:103AFC001A70084CEBE70124E6E7064C002012197B
:103B0C00029001900649009143F1000304F02AFF52
:103B1C0004B010BDFFFF7F00BA0C00205807002036
:103B2C002938000008B5FFF7A1FE024B1B68C01A2C
:103B3C0008BD00BF58070020BFF34F8F0549CA6866
:103B4C0002F4E062044B1343CB60BFF34F8F00BF12
:103B5C00FDE700BF00ED00E00400FA05024BD3F8CE
:103B6C000034002BFAD0704700E0014008B5034B3D
:103B7C00C3F80405FFF7F2FF08BD00BF00E00140E9
:103B8C0038B504F00FFF40B14FF08053D3F8243315
:103B9C00C3F304236B4AC2F8403504F015FF10B18F
:103BAC00694B6A4A5A6704F025FF48B14FF08053BD
:103BBC00D3F84432C3F342334FF08042C2F83C3561
:103BCC0004F02AFF30B1624AD2F8FC3023F0807343
:103BDC00C2F8FC3004F036FF40B14FF080430022B5
:103BEC00C3F80C21C3F81021C3F8382504F03CFFAE
:103BFC0020B14FF080430322C3F8A02504F04AFF04
:103C0C0060B1544B0522C3F810260122C3F8882654
:103C1C000022C3F818263F22C3F8142604F050FFE4
:103C2C00002846D04FF08052D2F804144A4BC3F807
:103C3C002015D2F80814C3F82415D2F80C14C3F8C4
:103C4C002815D2F81014C3F82C15D2F81414C3F894
:103C5C003015D2F81814C3F83415D2F81C14C3F864
:103C6C004015D2F82014C3F84415D2F82414C3F824
:103C7C004815D2F82814C3F84C15D2F82C14C3F8F4
:103C8C005015D2F83014C3F85415D2F83414C3F8C4
:103C9C006015D2F83814C3F86415D2F83C14C3F884
:103CAC006815D2F84014C3F86C15D2F84424C3F844
:103CBC00702504F027FF48B14FF08053D3F85832E9
:103CCC0003F04F034FF08042C2F8E43E04F02CFFA7
:103CDC0060B14FF08043D3F8003413F0010F05D0DE
:103CEC004FF080436FF00102C3F8002404F02EFF64
:103CFC0030B11A4AD2F83C3743F48063C2F83C37EF
:103D0C0004F04CFF4FF01023D3F80032002B06DBED
:103D1C004FF01023D3F80432002B00DB38BD012008
:103D2C00FFF724FF4FF010241525C4F80052FFF7BD
:103D3C0015FFC4F80452FFF711FF0020FFF716FF20
:103D4C00FFF7FAFE0030014000C007400DF0ADBA9D
:103D5C0000ED00E00050004000C0004000100040AA
:103D6C0010B50468CCB1B4FA84F3C3F11F03DBB211
:103D7C0001229A4024EA0202BFF35B8F50E800CF85
:103D8C00A44504D140E8002EBEF1000FF6D1BFF3DC
:103D9C005B8FE6D10B70024810BD0248FCE700BFF8
:103DAC000000AD0B0200AD0B0368CB4013F0010F0C
:103DBC0015D100B5026801238B401343BFF35B8F11
:103DCC0050E800CF944504D140E8003EBEF1000F0E
:103DDC00F6D1BFF35B8FEDD102485DF804FB0248CE
:103DEC00704700BF0000AD0B0400AD0B0D4BD3F8BA
:103DFC00FC1041F08072C3F8FC20A3F55D431868F9
:103E0C0040F001021A605A68074B5B689B1AB3F5C5
:103E1C000A5FF9D3044B186003F55D43C3F8FC103B
:103E2C00704700BF00ED00E0001000E070B582B0FC
:103E3C000646C0B1012832D104224FF4807301210F
:103E4C004FF08040C0F80813024401211160034474
:103E5C0000221A601B688DF807108E4208D00025CE
:103E6C0042F210740CE00C224FF482730221E7E74B
:103E7C000DF10705F4E7012004F0A0FE013C0CD085
:103E8C002A4631464FF0804004F09CFE28B1002DAC
:103E9C00F1D09DF80730012BEDD0012E01D002B0EE
:103EAC0070BD024B00225A71F9E700BF440C002090
:103EBC00064B1B793BB9054B186001221A71002285
:103ECC005A71034870470348704700BF440C0020E8
:103EDC000000AD0B0C00AD0B08B5064B1B680BB10D
:103EEC0004F08EFE04F08AFE4FF08043C3F81805F0
:103EFC0008BD00BF440C002070B582B018B1012879
:103F0C0048D002B070BD4FF08043D3F81824D3F8DA
:103F1C00183403F00303019312F4803F13D14FF0D4
:103F2C008043D3F8143413F0010F10D104F066FE63
:103F3C000190019A4FF08043C3F8182508254FF4DF
:103F4C00827302262AE001A804F063FEF1E74FF029
:103F5C008043D3F81C3403F00303019301A804F04D
:103F6C0058FE0028E5D01C4B1B682BB14FF080434A
:103F7C000222C3F80423C4E74FF08043D3F8043182
:103F8C00002BF9D04FF080430022C3F80421D3F862
:103F9C000431B6E700254FF48073012603F1804409
:103FAC00002222602268B3F5827F0BD005F1804598
:103FBC0001232B60084B1B683BB14FF08043C3F8C7
:103FCC0004639EE7FFF712FFF0E72368002BFCD099
:103FDC0000232360236894E7440C002010B54FF0B5
:103FEC008043D3F8044308E01D4B5B792BB91C4B81
:103FFC0001225A711A4B1B68984784B3B4FA84F0A7
:10400C00C0F11F000122824083009BB203F5807334
:10401C009BB2C0B2D2B224EA020403F18043196805
:10402C000029EAD0002119601B684FF08043C3F8C7
:10403C000823012AD8D0022ADCD14FF08043D3F8D0
:10404C001814D3F8183413F0030FD3D14FF0804366
:10405C000121C3F81815C3F804239960CDE710BDEE
:10406C00440C002000F01F0240090CD14FF0A0417D
:10407C0002F5E07251F82200044B034043F00203B6
:10408C0041F8223070470021F2E700BFF0F8FCFF46
:10409C0000487047C40500202DE9F04184B0054666
:1040AC000C4616461F46084604F09FFE804656B343
:1040BC002146284604F0EAFE28B12146284604F0A1
:1040CC00A5FE002841D12146284604F0AEFE10B1D1
:1040DC007378012B39D001238DF80F300023019315
:1040EC000096B31C721C0DF10F01204604F01EFE4D
:1040FC002879FFF7CDFF08F1080230F8123043F0B1
:10410C00030320F81230002F39D02146284604F042
:10411C00BDFE002835D13E782B6806F5A272002131
:10412C0043F822102879FFF7B3FF08F1080230F8A2
:10413C00123023F02003DB04DB0C20F812307B78E8
:10414C002BB9114804B0BDE8F0811048FAE7BA78F1
:10415C00009222463146286804F08EFD2879FFF73C
:10416C0097FF024608F1080032F810307603B6B219
:10417C00334343F0200322F810300348E2E70248AF
:10418C00E0E70248DEE700BF0000AD0B0400AD0B1A
:10419C0070B506460D46144604F038FE68B1307909
:1041AC00FFF776FF0646284604F01FFE083036F867
:1041BC0010305B0B2370024870BD0248FCE700BF57
:1041CC000000AD0B0400AD0B2DE9F04182B00546AB
:1041DC00884616461F4604F0F4FFAEB33A46314605
:1041EC00284604F0C1FE041E20DB2879FFF750FF9F
:1041FC0040F834602879FFF74BFF00EBC4004760B0
:10420C002879FFF745FF0546404604F0EEFD0830DF
:10421C0035F81030E4B26402A4B2234343F4807343
:10422C0025F81030094802B0BDE8F0812879FFF775
:10423C002FFF0DF107015830FFF792FD034B984209
:10424C00F1D19DF80740D0E70048ECE70000AD0B3A
:10425C002DE9F04385B004460D461746084604F098
:10426C00C4FD0646D7F80080B8F1000F28D02946C7
:10427C00204604F0FAFD00284FD100238DF80E30B3
:10428C008DF80F300193009343460DF10F020DF1A1
:10429C000E01284604F04AFD2079FFF7F9FE06F1DD
:1042AC00080830F8183023F0020320F81830207971
:1042BC00FFF7EEFE30F8183043F0010320F8183009
:1042CC007B68F3B193F80080D3F80490294620461C
:1042DC0004F0BCFD18B3B9F1000F65D12079FFF7DC
:1042EC00D7FE083630F8163023F01C0320F81630B1
:1042FC002079FFF7CDFE30F8163043EA880320F81A
:10430C001630BA68002A53D05368126829462046E2
:10431C00FFF75AFF05B0BDE8F0832648FAE720798D
:10432C00FFF7B6FE06F1080230F8123023F0200336
:10433C00DB04DB0C20F81230B9F1000FCED0B8F151
:10434C00030F33D87B685B6893F80090B8F1000FCB
:10435C0006D1236809F5A279002243F82920BDE78C
:10436C00404604F09BFD0346216809F5A27C51F8F8
:10437C002C2022F0030241F82C202A4649462068C2
:10438C0004F061FC2079FFF783FE06F1080230F897
:10439C0012304FEA49391FFA89F943EA090343F00D
:1043AC00200320F8123099E70248B3E70148B1E73F
:1043BC000148AFE70400AD0B0000AD0B38B5054666
:1043CC000C4604F014FD08B9074838BD21462846B0
:1043DC0004F095FD2146284604F01EFF2046FFF709
:1043EC0041FE0248F1E700BF0400AD0B0000AD0B2D
:1043FC0070B582B005460E460079FFF749FE90F87D
:10440C00603013B10B4802B070BD0446402200214D
:10441C00103005F043FC236D0093002332464FF01F
:10442C000041286804F022FF012384F86030A36562
:10443C000148E8E70C00AD0B0000AD0B08B50249D4
:10444C00024804F0B9FF08BDC4050020006000401C
:10445C0030B500F01F0C400917D14FF0A04E0CF5F1
:10446C00E0705EF820500A4C2C4041EA420141EACF
:10447C0083039DF80C2043EA02239DF8102043EAA5
:10448C00024323434EF8203030BD4FF0000EE6E7D8
:10449C00F0F8FCFF00F01F0240090CD14FF0A041D6
:1044AC0002F5E07251F82200044B034043F0030381
:1044BC0041F8223070470021F2E700BFF0F8FCFF12
:1044CC0000F01F0240090CD14FF0A04102F5E07240
:1044DC0051F82200044B034043F0020341F8223010
:1044EC0070470021F2E700BFF0F8FCFFC37B002B04
:1044FC005ED110B50446037B012B3FD9037803F042
:10450C001F025B0948D14FF0A04101239340C1F831
:10451C000835237803F01F025B093FD14FF0A0410F
:10452C0002F5E07251F82200224B034043F00103E4
:10453C0041F822306378FF2B0CD003F01F025B098B
:10454C002ED14FF0A04101239340C1F80C35607877
:10455C00FFF7A0FFA078FF2824D1E378FF2B0CD025
:10456C0003F01F025B0921D14FF0A04101239340BE
:10457C00C1F80835E078FFF78DFF10BD037803F024
:10458C001F025B0906D14FF0A04101239340C1F8F3
:10459C000C35BEE70021F8E70021B6E70021BFE7A4
:1045AC000021D0E7A17B04F066FFD6E70021DDE710
:1045BC00704700BFF0F8FCFF38B505460C460846BE
:1045CC00FFF794FF2B79E17803EB83031B4A02EB93
:1045DC00C3039977237C73B96378FF2B28D01A46D1
:1045EC00A378FF2B27D029682078C1F80805C1F8DB
:1045FC000C25C1F810352B68A268C3F82425627B02
:10460C00217B286804F022FF2B7961790B4A03EB9C
:10461C00830302EBC303D9772B7903EB830352F8A3
:10462C00333023B1286840F3073003F086FB38BDE4
:10463C004FF0FF32D4E74FF0FF33D4E74C0C00209F
:10464C0038B50546047904EB840C144800EBCC0017
:10465C00007F08BB114800EBCC0E40F83C20CEF894
:10466C00043059B1C87B8EF82500CA788EF81E200C
:10467C004A798EF81F202846FFF79EFF2B680121F0
:10468C00C3F80015054B04EB840203EBC2020020B7
:10469C0050771177024838BD0248FCE74C0C0020DB
:1046AC000000AD0B0C00AD0B38B50479056804EBBC
:1046BC0084021E4B53F8323033B145F3073003F00C
:1046CC0041FB0423C5F808330023C5F8003504EB7F
:1046DC008402164B03EBC20393F825303BB104EB79
:1046EC008404124B03EBC40300221A7738BDD5F8AF
:1046FC000805FFF7E5FED5F81005B0F1FF3F0FD127
:10470C00D5F80C05B0F1FF3F0DD104EB8402074B3B
:10471C0003EBC203987FFF28E1D0FFF7D1FEDEE761
:10472C00FFF7CEFEECE7FFF7CBFEEEE74C0C0020DC
:10473C002DE9F04190F804C00CEB8C03204D05EBF7
:10474C00C3056B7F002B39D104468E4617460CEB04
:10475C008C031B4A52F833300BB101226A770CEBF5
:10476C008C03174E06EBC30606F10C089EE80F00EF
:10477C0088E80F00002386F82430B37FFF2B09D084
:10478C0003F01F015B0910D14FF0A04201238B40B5
:10479C00C2F80C355FB10CEB8C0C094B03EBCC0362
:1047AC0000225A770748BDE8F0810022EEE77246F6
:1047BC002946206804F0C0FE0348F4E70348F2E7FA
:1047CC004C0C00200300AD0B0000AD0B0B00AD0B2F
:1047DC0008B503494FF0402004F0F5FE08BD00BFBA
:1047EC004C0C002010B5134CA8220021204605F0DB
:1047FC0055FA0323236163610F4AA2610F4BE361F6
:10480C004FF4806323620023A3626362E362226637
:10481C000B4A62661022A2662367E366636706E0B2
:10482C00C3F10F020749895C024AD15401330F2BA3
:10483C00F6D910BD10040020F0AA000010000020D2
:10484C0000000020FCAA000008B500230F2B0AD89A
:10485C00094AD25CD2B2C3F10F010848415C8A42CA
:10486C0004D10133F2E7002313B908BD0123FBE7A0
:10487C00FFF7B8FFF9E700BF10040020FCAA000006
:10488C002DE9F84304460E461546304B00EB40002C
:10489C0003EBC000826A476A601C00EB400003EB2C
:1048AC00C00358683844BA423CD804EB4401274B47
:1048BC0003EBC103D3F82080A8EB070909F1FF3300
:1048CC009D4204D913449D420ED900202FE02A4664
:1048DC00314605F0D5F92F4404EB44041B4B03EB94
:1048EC00C4035F62012022E04A46314605F0C8F954
:1048FC00A7EB080818EB050507D104EB4404134B90
:10490C0003EBC4035D62012011E0631C03EB430362
:10491C000E4A02EBC3032A4606EB0901586805F060
:10492C00AFF9EAE7D21B013AAA4202D20020BDE855
:10493C00F8832A4605F0A4F92F4404EB4404034BF6
:10494C0003EBC4035F620120F1E700BF10040020F9
:10495C00064B00EB400203EBC202926A00EB4000F4
:10496C0003EBC003586A801A704700BF1004002084
:10497C00034B00E01833034A9342FBD3704700BF4C
:10498C00FC9D0000449E000004280CD8DFE800F0D9
:10499C00030D05070900064870470648704706488E
:1049AC00704706487047064870470648704700BF76
:1049BC0010AB000034AB000044AB000050AB000067
:1049CC0060AB000020AB000030B108B504F03EFF36
:1049DC0020B1037823B108BD024870470148FAE7BB
:1049EC000048F8E770AB000010B584B00446FCF743
:1049FC00CFFB064B0293002001900090034601224E
:104A0C00034904F00EFE204604F01AFE78AB0000B9
:104A1C0028A000002DE9F04186B005460C46EFF3C6
:104A2C001188202383F31288BFF36F8F1F4FBE684A
:104A3C00FFF7AAFF3B7C0593049003951C4B029354
:104A4C00002001900090034601221A4904F0E9FD70
:104A5C001CB1E369C3F30803E3B93046FFF7B4FFB5
:104A6C0004900396144B029300200190009003468F
:104A7C000122104904F0D5FD21462846FFF7B4FF6A
:104A8C0088F31188BFF36F8F3046FDF755FC06B0E5
:104A9C00BDE8F081094B0293002001900090034681
:104AAC000122044904F0BDFDD7E700BF740C0020BF
:104ABC0088AB000028A00000D4AB0000B0AB000015
:104ACC0038B505460A4B53F8204002E02368984756
:104ADC0008346B1C064A52F82330A34206D963688B
:104AEC00002BF3D0204604F0B3FDF1E738BD00BF36
:104AFC00FCAB0000F0B587B0044600EB4006114D4E
:104B0C0005EB861600EB400004EB84020E4B03EB26
:104B1C0082030E4A0592012204920F220392002274
:104B2C000292019200930A4B4FF4A072094901EBD7
:104B3C00C011304600F040FB737B23F00403737309
:104B4C0007B0F0BD68070020740C0020ECAB00002F
:104B5C00AD9600004025002008B553EA020102D1B1
:104B6C0000F0B8FE08BD0249183001F095F8F9E7DD
:104B7C00319A000010B586B0184C14E0636A0593A6
:104B8C00236A0493E3690393A36902936369019312
:104B9C0023690093E368A2686168206800F00CFB4D
:104BAC0023685C6530340E4B9C42E7D300F066FD05
:104BBC000A4C00E030340A4B9C420BD2A26AE36AE6
:104BCC00B3F1FF3F08BFB2F1FF3FF3D02068FFF70E
:104BDC00C3FFEFE700F06AFD06B010BD809F000038
:104BEC00B09F000008B50B4B01221A700320FFF791
:104BFC0067FFFCF713FF04F052FD0420FFF760FF82
:104C0C00FFF7B8FFFBF7D6FC034A137B23F0010335
:104C1C00137308BDBB0C00202808002008B5014602
:104C2C00014A0248FDF78CFCF14B000028080020DB
:104C3C0008B50348034A121A002104F028FD08BDE8
:104C4C0088060020BC0C002010B50446FFF752FF6C
:104C5C0004EB44030B4901EB83110B4A04EB840373
:104C6C0002EB8303D9601C7404EB4411074B03EB78
:104C7C00811303F5046304EB840402EB8402536098
:104C8C0010BD00BF68070020740C0020001D002020
:104C9C0070B586B000F042FD104D114B5D61114BAB
:104CAC00059301230493002403940294019400942B
:104CBC000D4B4FF480620D49284600F07DFA0646F4
:104CCC006B7B23F004036B73284604F056FE2046DE
:104CDC00FFF7BAFF304606B070BD00BF28080020B1
:104CEC00740C0020F4AB0000F14B0000C026002037
:104CFC0008B50020FFF7E4FE1E4B83F308881E4C1A
:104D0C00636943F400736361E02384F82230002567
:104D1C00E57725766576A57684F82050636A43F4AA
:104D2C00E023636284F82350FDF782FAFDF728FC38
:104D3C004FF0FF33A362E362FDF720FDFDF750FC5B
:104D4C00FCF710FA0D4B01245C731C73C3F8A450D0
:104D5C00C3F8A850C3F8B050094A9360FFF708FE97
:104D6C002046FFF7ADFE0220FFF7AAFEFFF790FFEB
:104D7C00FFF754FF4025002000ED00E0E80800207C
:104D8C00740C0020F8B50446EFF31187202383F34D
:104D9C001288BFF36F8F0568A84212D02E1E18BF61
:104DAC00012685B906BBA368E268934224D0012290
:104DBC001344A36000230BBB87F31188BFF36F8FE1
:104DCC00F8BD0025EAE76A682B6813605A60002377
:104DDC002B606B606A7B22F002026A73AB6005F198
:104DEC00180004F0F7FEDDE70023C5F8BC302846B8
:104DFC0004F0C3FD0123DEE70022D9E7394602485F
:104E0C0000F010FCDCE700BF980C002010B582B05D
:104E1C00EFF31181202484F31288BFF36F8F846821
:104E2C0044B1013C846081F31188BFF36F8F002083
:104E3C0002B010BD53EA020406D000920193024660
:104E4C00054800F0D3FBF3E781F31188BFF36F8FB4
:104E5C006FF00F00ECE700BF980C002070B5054612
:104E6C00EFF31186202383F31288BFF36F8F18E0C2
:104E7C00002419E06268236813605A6000232360E1
:104E8C006360627B22F002026273A36004F118007B
:104E9C0004F0A0FE6FF00A03C4F8BC30204604F006
:104EAC006CFD2C68A542E3D0002CE3D1002CF1D191
:104EBC000023AB603146024800F0B4FB70BD00BF6C
:104ECC00980C002070B338B50D4604461B4B9B68FC
:104EDC0083421BD000231A46D4F8D830C3F3800188
:104EEC00C3F3C00013F0010F1FD001B102B300B126
:104EFC0009B300232B60D4F8C43073B11D60C4F81F
:104F0C00C450204604F0ECFB012038BD04F098FCA2
:104F1C0008B90123DFE70023DDE7C4F8C450C4F867
:104F2C00C050EEE76FF0150070476FF01200ECE721
:104F3C006FF00F00E9E76FF00F00E6E7740C00204C
:104F4C0010B5C36823F00203C360134B1C687CB11B
:104F5C00236803B10CB100210FE02346FBE7224686
:104F6C000D4804F0AAFB04F10800FFF70BFF10BD7D
:104F7C002346F0E71A461C461346002CF7D062680D
:104F8C008242ECD02146002BF4D01A68002AF2D0D1
:104F9C00002BF0D11A46EEE7980C002070B584B0C7
:104FAC000546EFF31186202383F31288BFF36F8F2E
:104FBC00D5F8C040002C3FD02368C5F8C030D5F8D8
:104FCC00C42094424DD0D5F8D83043F00203C5F834
:104FDC00D830E36843F00102E26023F0040343F0AD
:104FEC000103E360636886F31188BFF36F8F20467B
:104FFC009847EFF31186202383F31288BFF36F8F4A
:10500C00E36823F00103E36013F0100F44D1E3686D
:10501C0013F0020F44D1D5F8D83023F00203C5F8B1
:10502C00D830C3F3002386F31188BFF36F8F002BA6
:10503C00B7D100F07BFBB4E7D5F8D83023F00402ED
:10504C00C5F8D82013F0040F0ED112F0100F14D0A5
:10505C000023C5F8D83086F31188BFF36F8F04B0E6
:10506C0070BDC5F8C430AEE705F1D00400220121B3
:10507C00204604F016FD0028F8D1002302934FF0CF
:10508C00FF324FF0FF33CDE9002305F1C802314662
:10509C00054800F0F9FC84E7204604F07DFBB6E7F8
:1050AC002046FFF74DFFB6E7A00C002008B584465C
:1050BC00084653EA02010CD0C16841F00801C160F6
:1050CC00DCF8001081620549103000F0E5FD01208C
:1050DC0008BD614604F00EFBFAE700BF61970000C3
:1050EC00F0B589B004460E9D0020C4F8C000C4F889
:1050FC00C40004F1C800C4F8C800C4F8CC0004F122
:10510C00D000C4F8D000C4F8D4002DB3287928BB43
:10511C000120C4F8D8004FF0FF364FF0FF37CDE92F
:10512C0006670020049003930290019000940D4BAD
:10513C00204604F098FB55B1296811B1204600F0C7
:10514C0029F86B791BB1237B43F0010323732046B1
:10515C0000F0C0FB09B0F0BD0120DAE740F201100D
:10516C00D7E700BFA94F000008B50146014804F07D
:10517C0028FB08BDC809002008B553EA020102D17A
:10518C0000F0A8FB08BD0249183000F085FDF9E7D6
:10519C00319A000010B5044640B11F2204F184007E
:1051AC0004F084FD002084F8A30010BD014B9C6822
:1051BC00F3E700BF740C00202DE9F04F85B00446D6
:1051CC000F4615461E46DDF838A0DDF83C90DDF89C
:1051DC004080DDF84CB000F158038365C365129B29
:1051EC000422119904F034FB2A463946204604F077
:1051FC0001FB0546CDF80880CDF80490CDF800A051
:10520C003346024639462046FDF754F900236365C0
:10521C0084F86C302667C4F874A0C4F87890C4F88D
:10522C007C80EFF31182202383F31288BFF36F8FFE
:10523C00134B196AC4F880101C6282F31188BFF3F7
:10524C006F8FBBF1000F13D01F22594604F184005D
:10525C0004F02CFD002384F8A330094B9B685BB150
:10526C00D3F8B030C4F8B030284605B0BDE8F08FA4
:10527C00002384F88430F0E7C4F8B030F4E700BFC2
:10528C00740C00200A4A9368C3F8B8006FF00A0146
:10529C00C3F8BC1007494B6843F080534B600023A4
:1052AC0083F31188BFF36F8F9368D3F8BC007047FA
:1052BC00740C002000ED00E0427B90F90D30002BC7
:1052CC0004DB12F01F0F01D1816901B1704710B5D9
:1052DC0062F07F024273264A52F8183F93420ED175
:1052EC000B460CE05A6842600360106058601FE087
:1052FC001A461F4CE469A24210D01B6883B17BB1E3
:10530C0090F90EC093F90E209445F1D0A2EB0C024B
:10531C00002AE7DC1A46002BEBD1EFE70B46EDE752
:10532C00134BDA6903F11801016042601060D86117
:10533C000F4B53F8184F9C420ED06CB10C4B9B6822
:10534C005A7B12F01F0F0AD1DA897F2A07D9A2697A
:10535C002AB9074A536109E0054BDC68EEE7A34222
:10536C0002D0204600F0DAFB014B5C6110BD00BF9F
:10537C00740C002010B5437B90F90D20002A14DB2F
:10538C00154B9A6853F8184F9C4219D0C4B18242FD
:10539C0019D0537B13F01F0F15D1D3897F2B12D942
:1053AC00A36983B90C4B5A6114E003F07F03437378
:1053BC004268036813605A60002303604360DFE7B0
:1053CC00054BDC68E3E7A24202D0204600F0A6FBC6
:1053DC00014B5C6110BD00BF740C00202DE9F8433B
:1053EC0005460C46454B9E68737B13F0600F28D026
:1053FC0013F0200F2AD008271F4222D13B4373738E
:10540C0013F0800F24D1082F2DD04FF000093B4B07
:10541C0053F8188F98454BD0B8F1000F48D0374B44
:10542C009B68434502D0404600F078FB334BC3F8F1
:10543C001480102F05D0304600F0D0FBB9F1000FCE
:10544C003AD184F31188BFF36F8F50E01027D3E764
:10545C0003F07F0373737268336813605A60002320
:10546C0033607360CFE7B3685BB172683368136005
:10547C005A60002333607360727B22F002027273F5
:10548C00B360304604F045FA06F1580004F046FAD1
:10549C001A4B9B689E4202D04FF00009B7E7EFF31E
:1054AC00058313B94FF00009B1E74FF00109AEE7DE
:1054BC00124BD3F80C80B2E7114B01225A731A73BA
:1054CC000022C3F8A420C3F8A820C3F8B0200B4ACC
:1054DC009360B6E7EFF31184202383F31288BFF3B4
:1054EC006F8F04F0E8F884F31188BFF36F8F6B7B38
:1054FC0013F0600FEED1BDE8F88300BF740C0020F0
:10550C00E8080020B3F1FF3F08BFB2F1FF3F00D124
:10551C00704708B50249183000F0BEFB08BD00BF4B
:10552C00319A000010B5437B90F90D20002A0ADB5C
:10553C00437B63F07F0343732B4A52F8183F93422B
:10554C0019D1002317E003F07F034373426803680B
:10555C0013605A60002303604360E9E75A684260B5
:10556C000360106058601EE01A461F49C9698A42E0
:10557C000FD01B687BB173B190F90E1093F90E200C
:10558C009142F1D0521A002AE8DC1A46002BECD1D9
:10559C00F0E70023EEE7144BDA6903F11801016020
:1055AC0042601060D861104B9A6853F8184F9C42B7
:1055BC000ED06CB182420ED0537B13F01F0F0AD168
:1055CC00D3897F2B07D9A3692BB9074B5A6109E003
:1055DC00054BDC68EEE7A24202D0204600F09EFAB2
:1055EC00014B5C6110BD00BF740C002010B50C4663
:1055FC0011460A4882680A4B1A60EFF31183202384
:10560C0083F31288BFF36F8FDDE90223806804F007
:10561C00A8F92046FFF736FE10BD00BF740C002021
:10562C00A00C002008B50B4659B9EFF3058242B91E
:10563C00064A50699268904203D00846FFF722FE52
:10564C0003E083F31188BFF36F8F08BD740C002047
:10565C0008B5034650B9EFF305823AB9064A5169C9
:10566C009268914202D0FFF70DFE03E083F311889C
:10567C00BFF36F8F08BD00BF740C00200023EFF345
:10568C001181202282F31288BFF36F8F09E0064B41
:10569C009A68D37B013BD37381F31188BFF36F8F6F
:1056AC000123002BF3D07047740C002038B5002375
:1056BC00EFF31185202282F31288BFF36F8F0EE077
:1056CC00154BDC6817E0A24202D0204600F026FA07
:1056DC00114B5C6185F31188BFF36F8F0123BBB94C
:1056EC000D4B9A68D17B0131D17353F8184F9C4202
:1056FC00E6D0002CE4D0537B13F01F0FE3D1D389F9
:10570C007F2BE0D9A369002BDDD1034B5A61E1E774
:10571C0004F08EF938BD00BF740C002008B50248A7
:10572C0004F091F908BD00BF880C002038B5EFF3E8
:10573C001184202383F31288BFF36F8F224B9A6856
:10574C00DB699A4205D01368516812680A6051608F
:10575C0006E00023F8E71C4AD269934212D01B687A
:10576C0093B1194A906890F90E1093F90E2091425A
:10577C00F1D0521A002AEEDD5A68426003601060C4
:10578C0058600AE00023EBE70F4B9A68D96903F1E4
:10579C001800106051600A60DA610B4B53F8185F07
:1057AC009D420DD065B1084B9B689D4202D02846A6
:1057BC0000F0B4F9044B5D612046FFF763FD38BD82
:1057CC00014BDD68EFE700BF740C00202DE9F041C0
:1057DC0050EA010333D004460D466FF001031B1A47
:1057EC004FF0FF3262EB0102012B72F100022ADB57
:1057FC006FF00106361AEFF31188202383F3128819
:10580C00BFF36F8F124FB868124B1860FFF7B2FDE1
:10581C00B86822462B461049183000F03DFABA6899
:10582C00537B43F0040353734046FFF72BFD04F006
:10583C00F9F9301A002800DC0020BDE8F081FFF7F0
:10584C0075FF0020F9E704F0EDF90619D3E700BF66
:10585C00740C0020A00C0020319A000008B5C11770
:10586C00C90341EA5041C003184BC018184A4FF005
:10587C00000341F10001FAF72BFCC117FFF7A6FF5B
:10588C004FEAE07C4FEA4C1343EAD0634201121A10
:10589C0063EB0C035B0243EAD253520212184CEB3B
:1058AC0003014FEA811E4EEA926E93019B1A6EEB36
:1058BC00010E18184CEB0E0C47F6FF73C0184CF188
:1058CC00000CC00B40EA4C4008BD00BF3F420F002B
:1058DC0040420F0038B50446183004F07BF9EFF362
:1058EC001185202383F31288BFF36F8F637B13F032
:1058FC00040F04D185F31188BFF36F8F38BD23F0EB
:10590C00040363732046FFF7D7FCEFF3058323B141
:10591C0085F31188BFF36F8FF0E729460148FFF735
:10592C0081FEEBE7A00C0020014B9868704700BF8C
:10593C00740C00202DE9F041EFF31186202383F342
:10594C001288BFF36F8F037B13F0010F15D1044640
:10595C00457B15F0080F1ED1B04600F1580703F037
:10596C00A4FF30B345F020056573EFF30583BBB19D
:10597C0031462046FFF732FD0BE086F31188BFF36A
:10598C006F8F002383F31188BFF36F8F04231846A6
:10599C0002DFBDE8F08186F31188BFF36F8FF8E763
:1059AC003946374B986803F082FF3046FFF76AFCA4
:1059BC00EFE745F00803637313F0800F33D1A3684E
:1059CC005BB16268236813605A60002323606360D4
:1059DC00627B22F002026273A36004F1180004F0EF
:1059EC00F9F8384603F09AFF254B9A68944227D071
:1059FC000027234B53F8185F9D4228D03DB3AA4291
:105A0C0002D0284600F08AF81D4B5D61204600F05C
:105A1C00E5F8FFB91A4B9B689C4229D088F3118892
:105A2C00BFF36F8FB5E705F07F0545F0080565738B
:105A3C006268236813605A60002323606360BEE7CA
:105A4C00EFF305830BB90027D3E70127D1E70C4B04
:105A5C00DD68D4E70B4B01225A731A730022C3F88A
:105A6C00A420C3F8A820C3F8B020054A9360D1E75E
:105A7C00EFF30583002BD1D13046FFF703FC88E709
:105A8C00740C0020E80800202DE9104883B0089C15
:105A9C00DDE906BCCDE900BCFFF7A8FD1CB1034B4A
:105AAC009B685B69236003B0BDE81088740C002010
:105ABC00044BC01AC010044B03FB00F0034B012233
:105ACC001A547047A8090020ABAAAAAAA40C00205B
