:020000040000FA
:10000000C06400202DD001003788020019D0010003
:1000100019D0010019D0010019D001000000000022
:1000200000000000000000000000000099D1010065
:1000300019D001000000000035D1010019D00100E5
:100040004DD3010069A202004DD301004DD3010040
:100050004DD301004DD301004DD301004DD301001C
:100060001FA202004DD301004DD3010053A2020094
:100070004DD301004DD301004DD301004DD30100FC
:100080004DD301004DD301004DD301004DD30100EC
:100090004DD301004DD301004DD301004DD30100DC
:1000A0004DD301004DD301004DD301004DD30100CC
:1000B0004DD301004DD301004DD301004DD30100BC
:1000C0004DD301004DD301004DD301004DD30100AC
:1000D0004DD301004DD301004DD30100074B1B78D8
:1000E000002B4FF0000383600360054B436014BF97
:1000F00002220122FF23C2710372704728110020DF
:1001000028010800064B074A9B7802604FF41272E0
:100110008280C3710822002382710372704700BF7E
:100120002811002079A90100064B074ADB780260FC
:100130004FF432728280C3710822002382710372ED
:10014000704700BF281100208FA70100064B074A07
:100150001B7902604FF4B4728280C3710822FF23BE
:1001600082710372704700BF2811002039A301007B
:100170002DE9F341C41D002824F00704064614BFEE
:100180002046002000F016FD071E04DA6FF00B0079
:1001900002B0BDE8F0810EB9FC42F7D4364D698952
:1001A00028896B7B2A7B0331033089B280B216F039
:1001B000BAFF0028EADBA978EB783C440334002E30
:1001C000194424F0030400FB01F114BF2046002071
:1001D00000F07CFE20440EB90028D7DB2B790446C2
:1001E000B3B1697D19446B791944FF29CEDC033022
:1001F000002E20F0030414BF204600202A8AC9B232
:1002000000F0D4FE0028C1DB04440EB9002CBDDB95
:10021000012000F0C5FCC8B1A97BB9B195F82C301C
:100220000734002B15BF402325234FF48172282269
:1002300024F00704002E14BF2046002006F040FDE5
:100240000028A3DB04440EB9002C9FDBAB7CE3B198
:100250002B799BB10734002E24F0070414BF2046ED
:100260000020A97C0CF050FE00288FDB044466B906
:10027000002C0ADA8AE700BF28110020012000F0D4
:100280008FFC10B1AB7B002BE4D1724B1B6893B198
:10029000A97981B10334002E24F0030414BF204651
:1002A0000020EA7C98470028FFF670AF044416B996
:1002B000002CFFF66BAF684B1B688BB1297D79B1C1
:1002C0000334002E24F0030414BF20460020984776
:1002D0000028FFF65BAF044416B9002CFFF656AFBA
:1002E0005E4B1F68AFB1697D99B10334002E2B7E40
:1002F000009324F0030414BF20460020EB7DAA7D68
:10030000B8470028FFF642AF044416B9002CFFF6A8
:100310003DAF072000F044FC98B1A97989B10334BE
:10032000002E24F0030414BF20460020AA7E00F013
:100330002BFF0028FFF62AAF044416B9002CFFF665
:1003400025AF95F82500B6FA86F77F09A0B1EB7FB7
:10035000297F033424F00704194444F004043B4685
:100360002246C9B200F052FF0028FFF60FAF044446
:1003700016B9002CFFF60AAF95F82610002959D0BF
:100380000734002E24F0070814BF404600202A8DB1
:1003900016F0DEFE041EFFF6F9AE444416B9002C3A
:1003A000FFF6F4AE1EB1298D404612F06DF995F8B6
:1003B0002010002940D095F82430002B3CD06A8CC6
:1003C0000734002E24F0070802F1240214BF40462F
:1003D000002092B216F0BCFE041EFFF6D7AE4444D5
:1003E00016B9002CFFF6D2AEAB7F297F95F824001A
:1003F000033424F00704194444F004043B46224625
:10040000C9B200F0F5FE0028FFF6C0AE044416B9EC
:10041000002CFFF6BBAE3EB16A8C95F82010083276
:1004200092B2404612F036F92B6B5BB176B12C6379
:100430000020ADE68846B5E7002EF5D00022114633
:100440001046EFE7002EF3D12046A1E62834FBD575
:100450009CE600BF1C05002024050020200500208C
:100460001FB572B6184B5D6BE5B9BFF34F8F1749D7
:10047000174BCA6802F4E0621343CB60BFF34F8F9F
:1004800000BFFDE7B2FBF6F2DCB20133002AF9D17E
:1004900004F110036B4403F80C2C0A2234B901A8B0
:1004A000A847E2E7024600230A26EDE7631E04AEF2
:1004B000DCB256FA83F3B0FBF2F602FB16003030E2
:1004C00003F80C0C3046E9E72811002000ED00E0AD
:1004D0000400FA0513B5114C637B8DF80130237BC2
:1004E0008DF800306389ADF8043068462389ADF893
:1004F00002300AF0F9FB18B1DB210320FFF7B0FF4F
:10050000207E0AF055FC08B1DE21F6E7E07D0AF016
:1005100049FC08B1DF21F0E702B010BD281100202E
:1005200038B5054600283ED015F086FA10B94FF0D0
:10053000FF3038BD12F0DAFCB0F5FA7FF7D81C4C6A
:100540001C486563002500F0A5FA2A222946A01C54
:1005500084F83850257084F82C50256315F02CFE53
:100560001B222281628140F2032240F20113A28108
:1005700003226380A27301231F2223712282A376A8
:100580004FF40272F7236282638444F60112FB2364
:10059000E2822385EFF3108472B600F047FE2CB997
:1005A00062B62046C5E76FF01500C2E72846C0E7EF
:1005B00028110020D504000038B51446002840F06A
:1005C000B9805E4D95F83830032B00F0B080B1B1A2
:1005D00012B96FF0150038BD0139142900F2AA8054
:1005E000DFE801F00B1C1F345E67853A6A6D7F40BF
:1005F0004654598B8E9C9FA294001378AB700020B8
:10060000FFF7B6FD0028B7BF0123022385F8383075
:100610006FF00B00A8BF85F83830DCE71378EB707B
:10062000EDE71379002BD4D05379002BD1D0128869
:10063000FB2ACED81A2A6388CBD91B3BE02BC8D81B
:100640002368AB603E4BA2889A80D8E713786A791A
:100650009342BED32B71D2E713782A799342B8D84C
:100660006B71CCE713782A799342B2D86B75C6E7E1
:100670001378002BADD05378013BDBB2F82BA8D810
:100680001388EB822F4B92789A70B8E710786876CF
:1006900010F04EF8B3E71378002B9AD0AB76AEE7A4
:1006A000012000F07DFA237808B1012B91D9AB73BA
:1006B000A5E713882B82A2E71378AB719FE7072089
:1006C00000F06EFA10B92378012B82D9072000F0D0
:1006D00067FA18B12378002B3FF47BAF2378EB74D3
:1006E0008DE71378082B3FF674AF2B7587E71388D7
:1006F000FF2B3FF66EAFAB7481E71378EB767EE7A6
:1007000013780E2B3FF665AF2B7778E723680E4AF8
:100710002B62636853602389138170E713786B77CA
:100720006DE71378EB776AE71378AB7767E74FF0FD
:10073000FF3050E76FF02C004DE700BF281100207C
:10074000301100203E11002048110020F8B50D4660
:10075000064630B329B311F0070422D1124F97F89F
:100760003830012B02D16FF00B00F8BD032B02D102
:100770004FF0FF30F9E700F0BDF80028F8D0284628
:10078000FFF7F6FC0028EEDB1AF0CBF93046396BA8
:100790000AF0CAFBFFF79EFE032387F83830204695
:1007A000E3E76FF01500E0E72811002010B5074CD3
:1007B00094F83830032B03D10AF0D2FB0BF008FC7D
:1007C00016F00EFE002084F8380010BD281100201D
:1007D00050B1074B03F1140253F8041B40F8041BFB
:1007E0009342F9D1002070476FF01500704700BFA9
:1007F00059DB020010B5074B93F838403CB90AF0BA
:1008000025FB0320044900F0C3F9204610BD4FF03A
:10081000FF30FBE7281100204D01000010B5074B09
:1008200093F838403CB90AF025FB0220044900F057
:10083000AFF9204610BD4FF0FF30FBE72811002034
:100840002901000008B50C4B93F838208AB993F8B9
:100850002C305BB10AF04CFB0849012000F098F9FC
:100860000020074900F094F9002008BD0AF024FB9D
:10087000F2E74FF0FF30F8E728110020DD0000001C
:100880000501000010B5054B93F838401CB917F06E
:1008900022FD204610BD4FF0FF30FBE7281100205D
:1008A00010B5054B93F838401CB917F017FD2046DA
:1008B00010BD4FF0FF30FBE72811002010B5054BAD
:1008C00093F838401CB917F00BFD204610BD4FF0CF
:1008D000FF30FBE728110020024B02681A6000205D
:1008E000704700BF64110020014B1B68184700BF10
:1008F00064110020024B1868003818BF01207047AF
:1009000064110020F7B52E4E0446071D2C483760B1
:100910000BF07EFB0228054606D12949204615F03A
:10092000C0FD284603B0F0BD042842D13378092B1E
:100930000AD0262B1ED03146204615F017FEB0F502
:10094000817F2DD3722112E005213E2015F07CFD20
:100950000028F0D1F378327901A943EA02236846EE
:10096000ADF8003016F0B5F90028CFD0532108209B
:10097000FFF776FD1A213E2015F066FD0028DAD13A
:100980007368C3F30F23ADF804306946112301A83F
:100990008DF8063016F0A9F90028B7D06521E6E7F2
:1009A0000028B3D0A178207815F04EFD0028B8D1EA
:1009B000ACE70828B5D10249204615F0A1FDB0E703
:1009C00068110020074B4FF0FF3141F6FF72C3E979
:1009D000001205490022C1E900221F21C3E90212C9
:1009E000704700BFC00400206C1200203F280CD8C4
:1009F00001380B4BC0F3421200F01F0053F82230B5
:100A000023FA00F000F001007047FF2806D04038BC
:100A1000C0F34212034B00F01F00EFE701207047C4
:100A2000C00400206C1200200146074B0068496892
:100A30001A4603C240F48C221A6041F0107242F44C
:100A4000FF625A60704700BFC00400200246024B9C
:100A50000068516803C370476C1200200246024BC5
:100A60000068516803C37047C8040020FD281ABFFE
:100A700000F1FF30C0B23F20054B420903EB820377
:100A800000F01F009B6823FA00F000F0010070479F
:100A9000C0040020014B1860704700BF7412002092
:100AA00010B5FFF78FFF16F000FF034B1B680446DD
:100AB00003B19847204610BD741200200B880288AD
:100AC000F0B5C3F30E049EB204F11803C57CC35AFB
:100AD00002352A442B4497B213FA82F3013B428831
:100AE000B3FBF7F313FB07439BB29A42044A93BF4D
:100AF00022EA0603324013439BB20B80F0BD00BFD5
:100B00000080FFFF4A1E062A08B50346084604D89F
:100B10004FF4D1711520FFF7A3FC094A914202D985
:100B200040F2A311F6E711B903B1196008BD2BB16A
:100B30001B680022C3E901211A1D1A600430F5E781
:100B4000FAFFFF7F10B5114B00EB41041A7863895F
:100B5000B3FBF2F303FB0223013A1A44B2F5706FC0
:100B6000027928BF00231A448378B2FBF3F01944BA
:100B700003FB1020091AB1FBF3F003FB101313441D
:100B80006FEA43436FEA5343638110BD781200203C
:100B9000024B03EB80035960704700BF78120020BE
:100BA000034B03EB80035868003818BF01207047DF
:100BB000781200202DE9F04F10F0070A85B00546A5
:100BC00004D040F261111720FFF74AFC554F07F19E
:100BD0004006B1460446B0464FF0010B57F8043BBF
:100BE0008DF80BA03BB101A898479DF80A30082B5F
:100BF00001D9E821E7E79DF80B1081BB05B1316011
:100C0000B94506F10406E9D12DB3DFF81CE1002354
:100C10008EF800301E460F2258F82200013A60B1CB
:100C200090F804A08178BAF1FF0F66D14FF0000769
:100C30008E4207713CBFCEB20123511CECD10BB1E7
:100C40008EF800600F2640F6FF6A58F82670002FD5
:100C500065D1013EF9D2601B05B0BDE8F08F9DF86B
:100C60000AC0BCF1020FE64601F1050238BF4FF0A1
:100C7000020E0EF1FF3004EB42040444CEF10000FA
:100C80002040BDF808406444013CCCF1000C04EA6B
:100C90000C04B4F5803F4FEA420301D3F82192E7F8
:100CA00075B1C31A336099701C8083F803B09DF846
:100CB0000C201A71019A1A814FEA124CA3F806C04F
:100CC00004FB01049CE758F82C90B9F1000F06D002
:100CD00099F804B0D34504BF99F802904F440CF141
:100CE000FF3CBCF1000FEEDA3944FF29A0D90BB16B
:100CF0008EF8006040F2271165E794460027F0E780
:100D000007EB41033846A3F80AA0FFF71BFF09F1E0
:100D10000109BB785FFA89F18B42F1D899E74FF06E
:100D20000009F6E77C12002078120020F8B54FF693
:100D3000FF730380184B03EB81030546586CB8B171
:100D400086780379B3FBF6F206FB1233DBB2194661
:100D50000A1D00EB4202B2F902705488002F09DB31
:100D60000131B1FBF6F206FB1211C9B28B42EFD191
:100D70000020F8BDFF29FBD0C4F30E03C4782B80FC
:100D800024B94FF4D5711720FFF76AFB5380BDE8F3
:100D9000F84016F0A7B900BF781200201D4B03EBF6
:100DA000810370B55C6C054644B3030404D54FF46D
:100DB000DC711720FFF754FB0146204616F074F94A
:100DC000FF28014604D02046BDE8704016F08AB9DD
:100DD000A078B5FBF0F300FB1353DBB219460A1DF4
:100DE00004EB4206B6F90260002E09DB0131B1FBCB
:100DF000F0F200FB1211C9B28B42F0D1002070BD9D
:100E0000FF29FBD08B4204EB42021CBF0023E3709E
:100E10005580D8E778120020094B03EB810310B509
:100E20005C6C0146204616F03FF9FF28014604D0CD
:100E30002046BDE8104016F055B9002010BD00BF97
:100E400078120020F8B5104B03EB810307465C6C69
:100E50000146204616F028F9FF28054611D0E688FD
:100E6000238953EA064606D00146204616F03AF991
:100E700001463846B04720462946FFF763FE00206A
:100E8000F8BD0520FCE700BF7812002038B50E4BF6
:100E9000827903EB82030446586C08B9052038BDFB
:100EA0008278E1799142F9D24B1CE37100EB410366
:100EB0005D89B3F90A30002BF3DBA58016F012F937
:100EC00020600020EBE700BF7812002070B50446D8
:100ED00010F003000E4603D04F211820FFF7C0FA90
:100EE000FFF710FE054624B1034831460460FFF7C2
:100EF00009FE284670BD00BFFC1200202DE9F14F0D
:100F0000DFF870B09DF828A09DF82C901E46DBF805
:100F1000003007460D4690461BB961211820FFF7A7
:100F20009FFA52460921404615F02EFF4A4684B2E8
:100F30000921304615F028FF14FA80F1DBF8000093
:100F400016F087F8386018B9286001B0BDE8F08F56
:100F500004442C60386853464146092215F0CDFE02
:100F600028684B460922314601B0BDE8F04F15F024
:100F7000C4BE00BFFC12002070B50E46044615F03A
:100F800016FF0546304615F012FF044B2A1821467D
:100F90001868BDE8704016F080B800BFFC12002051
:100FA000014B186816F049B8FC1200201F2AF8B54A
:100FB000044613460ED89200033222F00303B3F521
:100FC000803F2DD2184DACB1A00710D05F21092071
:100FD000FFF746FAFF2B4FEA420204D9FF339A4249
:100FE000A8BF1A46E8E77C2AB8BF7C22E4E729704C
:100FF0006C602B8122F0030201EB81031204D80004
:1010000001276B68120C0025EEB28E4200D3F8BDAA
:1010100014B126181F705E60104401352833F3E7C1
:101020004FF0FF30F3E700BF0013002038B5144A3B
:10103000147853680021C8B2844203D8AB21092038
:10104000FFF70EFA1846013105782833002DF2D04B
:101050000021817001241289447044688161C1615A
:10106000920800F12001051D21F8022B994245F854
:10107000044B1444F8D100234361037038BD00BF12
:10108000001300200A4B1B89B3F5FF7F4FEA930042
:1010900006D25A089B1A9BB2984238BF184670472E
:1010A000B3F5EE6F01D8FF22F4E740F27263F3E785
:1010B000001300202DE9F8434B7880460C4602F0DF
:1010C000040602F0FB07D3B1DFB12E4BD4F8049035
:1010D0001D89B7BB01236370AD08A761E76104F107
:1010E00020034A46211D04F1280023F8025B9842A0
:1010F00041F8042B2A44F8D10023636101E0002F5A
:10110000E3D0FF23A370002E18BF0226A3191B7D76
:10111000032B03D1022F1CBF0136F6B2A319012203
:101120001A7506F10C0204EB8606002324F812302F
:101130007268A370C8F80020A8F804304046BDE8E3
:10114000F883002114226170A01815F035F8B5F568
:10115000FF7F0FD26B08ED1AADB209EB0502C4F8A0
:1011600004902584A2606384C4F80C90A584226155
:10117000E384C6E7B5F5EE6F4FF0FF03EBD940F21D
:101180007265EAE7001300202DE9F84305460C4696
:10119000F7200521914615F0F7FD061E22DB1DB94B
:1011A00014FB06F0BDE8F88315F0030703D098217F
:1011B0001920FFF755F9DFF83480C8F81050A8F867
:1011C0001460A5B2BBB29D42EAD9B8F814C0D8F8F1
:1011D00010004B4607FB0C000522F72115F08DFD92
:1011E0000137EFE74FF0FF30DCE700BF14130020BA
:1011F00007B5CDE900230B4603490246081D16F04A
:10120000C9F803B05DF804FB2C13002013B5064C9D
:10121000CDE900230B46024604F1080104F10C005D
:1012200016F0B8F802B010BD2C130020134B0122A9
:1012300000214FF0FF309A60C3F80012C3F8080392
:10124000C3F80015C3F804259A60C3F80803C3F86F
:101250000015C3F804250A490A4A03F580334FF400
:101260000040C3F80825C1F88000BFF34F8FBFF3DB
:101270006F8FC1F88001C3F80825704700F0004067
:1012800000E100E00000F63F8C46322300B50CF888
:10129000033B054B8E4607CBCEF80300CCF8041079
:1012A000CCF808205DF804FB4813002010B5154C5D
:1012B00010F000FB0FF0E0FB636A608C00219847A0
:1012C000237E9BB9104B628C93E803000BF0A6FEC3
:1012D000E36A18880BF0CCFD636B94F8301094F837
:1012E00031009847002384F8383010BD94E8070097
:1012F00004F10C0383E80700044904F1190018F015
:10130000D0F8DFE73C1300206413002089120000AE
:10131000034B93F8383003B97047FFF7C7BF00BFDE
:101320003C13002008B540F267410620FFF798F80B
:1013300008B5094B93F83820022A07D1DA7A42F02F
:101340000102DA72BDE80840FFF7B0BF40F22D217C
:101350002720FFF785F800BF3C13002070B5364EFC
:1013600096F8283005460BB1012825D001292AD846
:10137000336C28469847044628B396F8303013BBA0
:1013800096F8283013B31DBB96F84420D106C2F35B
:1013900000152DD4F26C316D1278C2F3001201B336
:1013A00082F00104BBB1738F9A0715D5F36BDC781B
:1013B000023C18BF012407E0738F1807D6D5F36BE2
:1013C000DB78022BD2D10124204670BD012DDBD069
:1013D0000024204670BD738F002BF4D1002DF3D074
:1013E000F6E7B6F854100029DAD0002BF3D0DAE78C
:1013F000F16B0A7802F00302032A02D1CA78022AAA
:1014000018D0B06C15F05CFD48B9F36B1B7803F095
:101410000303032B06D196F828300546BAE796F861
:101420002830B7E709F0BAFF80F0010596F82830B8
:10143000EDB2AFE70025ADE73C13002070B5264CB8
:10144000E56AE26C95F88C30A265064694F85C007B
:101450000BB10430C0B295F86D100EB9FF2831D031
:101460000FF05EFF95F88C3033B3206E10F03CFB2C
:1014700094F82830D5F8E820216EA06D6267003B13
:1014800018BF012384F87C30D5F8EC30A3670FF047
:1014900097FA46B995F86D30033B012B94BF28208D
:1014A000002010F0CBFB95F86C10002010F02EFC03
:1014B000022384F8383070BDA06D10F015FB0FF0DA
:1014C000DBFAE6E795F86C208A42CDD00FF028FFD2
:1014D00095F88C30C8E700BF3C1300202DE9F0419F
:1014E0003C4C94F83830E56A012B82B06BD15FFA3E
:1014F00083F895F87C3006460F4673B1638F002160
:1015000043F00403638785F87C10636A04209847DE
:1015100094F828300BB185F87E80E16B0B7803F0EE
:101520000303032B30D04B7853B3022385F882306A
:1015300095F88C30EBB1E36A94F8282093F86D307D
:10154000003A18BF0122013BDBB284F87C20D5F8B9
:10155000E8206267032BD5F8EC20A26794F85C20A2
:1015600036D81D490020CB5C00901C4901200FF0AB
:10157000AFF906B9E7B902B0BDE8F041FFF796BE92
:10158000012385F88230D3E795F8823063B9638F01
:1015900043F0020363870220636A9847E16B0B788C
:1015A00003F00303032BBED1032385F88230BFE78A
:1015B00031463046FFF7D2FE0028DCD102B0BDE84C
:1015C000F041FFF73BBF40F29D412720FEF748FF67
:1015D000FFF7A8FE3C130020C0B20200A0130020B9
:1015E00070B5824CE56A94F85C3095F88C2082B036
:1015F00000218DF805100AB10433DBB295F86C10A8
:1016000010B9FF2B00F0B180FF200FF089FE95F894
:101610008230032B00F2E580DFE803F0021C8070CB
:1016200094F8BA30ADF806307148A5F85C3009F08E
:101630008FFE002840F09F80A06C0DF105020DF197
:10164000060115F0DCFBE06320B195F8C730002BF4
:1016500000F0A9806748E06395F883200378D20002
:1016600002F0080203F0F303134395F8842092007C
:1016700002F00402134303F0EF0203F00303032B11
:10168000027002D1C378022B11D0A06C15F018FCA7
:1016900048B9E06B027802F00303032B07D009F08E
:1016A0007DFE002878D1E06B027842F010020270D3
:1016B00095F88B3013B14378002B41D110F014FA18
:1016C0000FF0DAF9E66B0AF08BFD20B1337803F006
:1016D0000303032B63D095F86D10012010F016FB67
:1016E000E36B454A18889978A4F84400012384F8EC
:1016F000BC30917084F8383002B070BD3C4809F0BD
:1017000027FE002863D0E06BC3781B2B14D1012186
:1017100005F110000FF036FEE06B0DE0B5F85C301F
:10172000A06CADF806300DF105020DF1060115F0C3
:1017300066FBE06300284FD0012384F8BB308BE7C1
:10174000206E10F0D1F994F82830D5F8E010D5F8D3
:10175000E4206167B3FA83F35B09E16B206E84F8E0
:101760007C30A2670FF02CF9ACE795F86D308B4216
:101770007FF44AAF4BE7638FE16B626A43F4807397
:101780004FF4807063879047E06B012185F87D10EE
:10179000C3781B2BD0D1BBE7E06B027887E7012031
:1017A00011F020FD97E79DF8053043B1BDF8061014
:1017B00017F01EFE0123E06B84F8BB304CE703807A
:1017C0008370E06B012117F01CFDE06BEEE740F247
:1017D000D7212720FEF744FE40F2CD212720FEF737
:1017E0003FFE40F2E5212720FEF73AFE3C130020A1
:1017F00078130020C4130020801300202DE9F04F3F
:10180000B84C94F83830E76A87B00022022B049273
:1018100040F01482638C0D4613F04001804606D1DF
:10182000636A40209847638C43F040036384B8F1B7
:10183000000F5CD097F88C30002B40F05B81D4F81F
:1018400058A09AF8013099B2A4F85410002940F039
:101850006781002323659AF80060638C97F88310F2
:10186000C6F3800243F400739142638400F0F78072
:10187000D4F82C9099F88220FAB1022A00F0B881AD
:1018800094F82830002189F8821023B199F87E302D
:10189000002B40F0A38199F87D30002B40F080812F
:1018A00099F88330D4F858A0012B0CBF00230123F2
:1018B00089F883309AF80060638C97F88410C6F337
:1018C000C00243F40063914263844FF0000900F0CA
:1018D000CE8000260AF084FC30B39AF8003003F082
:1018E0000303032B20D1012011F07CFC1CE097F8AE
:1018F0008C20002A40F01C8143F48063638497F8B5
:101900006D3094F8C620033B0132012B84F8C620C9
:1019100005D90AF065FC8146002800F0D680012038
:1019200011F060FC0026B14697F88B3013B394F8A1
:10193000283097F87620B3FA83F35B0984F87C307B
:1019400097F86C30013B002ADBB2D7F8E0206267E1
:1019500018BF0420D7F8E420A26708BF0020032B9B
:1019600000F27181604A6149D35C00220092FB223F
:101970000EF0AEFF45B994F8C6100120FFF7EEFC5B
:101980000546002800F0D88010F014FA0125002E3A
:101990003BD1B9F1000F09D094F82830002B40F06A
:1019A0009680B4F809300133A4F80930B8F1000F7B
:1019B0004AD0B4F8053000220133A4F8053084F889
:1019C000C6204B480BF042FA049830B115F015FBD5
:1019D000E16A002202720AF05FFB36B1E16A00237D
:1019E00033720C2230460AF025FB002D32D1638C75
:1019F0001B0607D4636A294680209847638C43F00E
:101A00008003638407B0BDE8F08FA16D236D4E782D
:101A1000002B00F01A81B4F854201846033214F059
:101A200037FC0DF10E0205A9A065D4F8C00015F031
:101A3000FAFA059815F0E1FA314601220646D4F883
:101A4000C00015F087FAA4E7B4F807300133A4F812
:101A50000730B6E7FFF72AFC07B0BDE8F08F97F82C
:101A60008410C6F3C0029142C1467FF432AF06F043
:101A70000306032ED4F82CB064D143F4805363845E
:101A8000638F012043F00103514663878BF87C008C
:101A9000636A9847D4F858A000269BF88430013B2D
:101AA00018BF01238BF884309AF80130002B3FF4E3
:101AB00011AFDBF8E8300133CBF8E830DBF8EC307D
:101AC00043F10003CBF8EC3004E706462CE7B4F80A
:101AD0000530B4F80710B7F880200B4313433FF4E8
:101AE00065AF5EE73C130020C0B20200A0130020E7
:101AF000641300200EF0DCFFD4F858A09AF80130EF
:101B000000287FF4A0AE002B65D09AF8002097F84B
:101B10008410C2F3C00291427BD099B2A4F8541051
:101B2000D4F8C00015F0EDF9D4F858A0206592E67D
:101B30000EF0FEFF638CDFE6FFF752FD002E3FF450
:101B400028AF62E7002EA8D09AF80160002EA4D03A
:101B500043F4805363849BF88C600FF06DFB042882
:101B600094F8C43006D1002E14BF1B221F229342CA
:101B700028BF1346D4F858A09AF801209A424ED8AC
:101B8000266D002E3FF4A6AE94F8C530002B53D03E
:101B9000636A0021202098470026D4F858A099E6CF
:101BA000002689F87D6009F0E3FB002852D0638F9E
:101BB00043F0080363873146636A08209847D9F8E1
:101BC000E0300133C9F8E030D9F8E43043F10003E4
:101BD000C9F8E43064E6A4F854303AE6638F89F833
:101BE0007E1043F0100363871020636A984752E623
:101BF000A06C04A915F026F988B3D9F8E0300133B8
:101C0000C9F8E030D9F8E43043F10003C9F8E43012
:101C100036E6012384F83130FFF748FBF2E694F80A
:101C20003030012043F0100384F83030002611F0EA
:101C3000D9FAD4F858A04DE646462EE740F21151A5
:101C40002720FEF70DFCFFF76DFB40F28E412720A9
:101C5000FEF706FC40F21C412720FEF701FC40F293
:101C600005412720FEF7FCFB70B50D4B0D4C0E4ACD
:101C70001A6094F838301BB1DE212720FEF7F0FB04
:101C800003F0FF0206460D4622760BF0BFF9012154
:101C900004F1880017F0B5FAE664256670BD00BF50
:101CA000280500203C1300205421000010B5074AED
:101CB00092F8383013B10C24204610BD03F0FF0415
:101CC00014760BF0A3F9204610BD00BF3C13002092
:101CD000024B012283F8C520704700BF3C1300204F
:101CE000F0B5C24C85B002AD85E8030094F8380029
:101CF0000A9E002840F09781002A00F09481002B72
:101D000000F09181002E00F08E8100F0FF0184F838
:101D1000C51084F8301084F8C61084F8311084F8A7
:101D2000BC1084F8BB106187618495E803002364CC
:101D300004F1280383E80300E56A626266630FF03A
:101D400081FB0EF099FE95F974000FF075FCA86AFE
:101D50000FF0AEFE286A0FF075FC95F89C000FF0AE
:101D60007BFC95F87630002B40F0B38096200FF086
:101D70004DFA94F82800002800F0B380E36A93F845
:101D8000B831002B40F0028195F86D209D21012093
:101D90000FF038FD964B974E18680FF08FFE6B6969
:101DA000D5F8F410D5F8F820D5F8F000A364D5F8EC
:101DB000FC30AF69C4F8C0700FC6E36AD5F80011F3
:101DC00093F88620C4F87D10D5F80411C6F80D10DC
:101DD000A2F12601012940F2948093F88710262968
:101DE00000F08F80213A012A40F2F080242900F08F
:101DF000D08093F86C60032E08BF042605F13407E9
:101E00003146384617F0B9FB314616F06DFEB5F88D
:101E1000403095F86D100246934228BF134638466D
:101E200084F8BA3017F076FB95F86D1095F88C7041
:101E3000B5F84860042908BF032116F055FE0FB914
:101E4000043080B2B04228BF3046C6B284F8C460C5
:101E50000AF0C6F9002840F08B8094F8280084F836
:101E60005C60002866D195F88B30EBB195F86C304A
:101E700095F87610D5F8E0206267013B0029DBB2C7
:101E8000D5F8E420A2674FF0010118BF0420032B0E
:101E900084F87C1000F2CC80574A0021D35C00917A
:101EA000FB2254490EF014FD0120FFF799FB00239B
:101EB000C4E90033A3602B6F2988B5F8800095F83A
:101EC0009C206080218022710BB101221A6005B034
:101ED000F0BD4D200FF09AF994F8280000287FF407
:101EE0004DAF95F86C20444B03EB42039988434B6C
:101EF00001F5FA71A3FB013189096E310FF082FC03
:101F000048E794F82820002A39D193F8FA2193F869
:101F10006C60002A3FF472AFF31E012B63D9D31E0D
:101F2000012B60D9012E3FF469AF012A14BF0226AC
:101F3000012663E795F88C30B3B195F86D30D5F88C
:101F4000E820D5F8EC10A167013BDBB20120032BA0
:101F5000626784F87C006BD82749CB5C0021009134
:101F6000324624490EF0B4FC0120FFF767FA9EE7E1
:101F70000AF03CF9B04238BF3046C6B26DE793F87C
:101F8000922293F86C60002AC6D137E70FF048FA26
:101F9000FAE694F82820002A3FF42BAF93F8262184
:101FA00093F8651093F86C6002EA01035A071AD49B
:101FB00013F001022BD19B077FF520AFF31EDBB29C
:101FC000012B10D9012E18BF022617E72429E0D0D3
:101FD00094F82820002A3FF40CAF93F8262193F8B8
:101FE0006C6050070CD5042608E700BF3C130020A6
:101FF00028050020A0130020C0B20200D34D6210BB
:1020000012F0010309D191077FF5F8AED6E7033E40
:10201000012E8CBF16460426F0E6033E012E8CBF2F
:102020001E460426EAE640F26D112720FEF718FA54
:10203000FFF778F908B5124B93F8382092B193F86E
:10204000282022B993F83830012B14D108BD93F819
:102050003820022A0AD1DB6AD3F8D001BDE8084053
:102060000FF0B8BDBDE80840FFF720B940F20F21DE
:102070002720FEF7F5F940F20B212720FEF7F0F9B3
:102080003C130020FFF712B9014B1876704700BFD0
:102090003C130020014B93F8BC0070473C13002018
:1020A000034B93F8BB0010B9588CC0F30030704755
:1020B0003C130020024B588CC0F3C020704700BF77
:1020C0003C130020014B93F8C60070473C130020DE
:1020D0002DE9F0411E4F8207FE6A82B0044613D4F8
:1020E000E3070ED5D6E93A3296F88410013342F16F
:1020F00000020129C6E93A320CBF0023012386F809
:10210000843002B0BDE8F0813B6DE3B1B7F85420F4
:102110000D46B96D1846033291F8018014F0B8F8F5
:102120000DF1020201A9B865D7F8C00014F07BFFD9
:10213000019814F062FF012228604146D7F8C000E0
:1021400014F008FFCCE740F28E412720FEF788F913
:102150003C13002031130000FD170000DD140000C7
:102160001113000008B540F2F2310620FEF778F9AD
:102170002DE9F843002800F0E1800446072900F229
:10218000D380DFE801F0AB2424A7D11F9ECD014608
:10219000204618F0DBF8D4F8443100F1E5059D4203
:1021A00040F2C780E81A322838BF3220032113F0EA
:1021B000BDF8C4F844510646204618F08EF9002EAA
:1021C00000F09D802046BDE8F84318F087B918F06C
:1021D000FEF8D4F81421002305460E4684F8403159
:1021E00084F84931BAB150EA010314D0CA00C300DF
:1021F0001B1A42EA507262EB0102D4F830115B18EC
:10220000D4F8341142EB0102D4E95401834272EB59
:102210000103C0F09180022304F5A07784F84831CF
:10222000384612F0D5FA002800F08C8094F860311E
:1022300003F0FF01002B6BD1D4E956026FF000438D
:102240009A4208BFB0F1FF3F13D02046D4E954981A
:1022500018F07CF8D4F85831D4F85C21B3EB0903BA
:1022600000F1E50062EB08021B1A62F10002002A8D
:102270004BDB94F81001394612F09CFB00286BD020
:10228000D4E95401D4E94A32834272EB01071FD2E8
:1022900055EA06071CD0C01A61EB020133462A46F4
:1022A00013F0CCFE05FB01F3D4E94A2100FB06360E
:1022B000A5FB00535519334443EB0103C4E94A53CA
:1022C00006E090F8100112F05DFA002384F838312E
:1022D000BDE8F883BDE8F8430FF080BD0BF086FE43
:1022E000D4F84401CB3812F08FFF80B3204618F0A9
:1022F000ABF800283FF44BAF204618F0EEF8D4E9D5
:102300005423C4E94C23BDE8F88320460BF076FE45
:1023100094F8100112F036FA002384F83831AFE750
:10232000FD213020FEF79CF840F201113020FEF72D
:1023300097F8C4F84451DFE701236DE7E02130202E
:10234000FEF78EF84FF4D3613020FEF789F840F2A3
:102350005A213020FEF784F840F29C613020FEF7CD
:102360007FF800BF2DE9F04F04468BB04FF0000915
:10237000029390F86DB0CDF818900E46904616F086
:1023800083F894F8B9310B2B00F20684BF4F37F86D
:10239000135094F887302844442B85B215D094F814
:1023A0008620442A11D0A3F10E02B2FA82F2520919
:1023B0000392B8F1000F40F0BF8294F8FC21032A89
:1023C00000F010830123049307E0B8F1000F00F040
:1023D0008E800123CDF810900393B4F848A2B4F88E
:1023E0008090A6EB0A0A0FFA8AFAA6EB0909BAF15D
:1023F000000F0FFA89F904F50678C0F29382029B68
:10240000A34A127802F0FF005AB9074694F8FC215B
:10241000032A00F2DD83DFE812F041010101C60169
:102420007300059310F056FD059B0028EDD0B4F81D
:10243000E821012A40F2208394F8FC21022A00F0CE
:102440001B8394F81202002840F0168394F876203B
:10245000002ADAD194F8B9210B2A00F29D8337F8CB
:10246000125094F8FC2105F5C865012AADB240F080
:10247000598394F88A20032A40F08183D4F8F40128
:10248000E76A07442946059310F0E8FC02463846FF
:10249000D4F8F071C4F8F021D21BD4F8F8712946B1
:1024A00002FB07F710F0DAFCD4F80022C4F80002AF
:1024B000801A07442946E06910F0D0FC94F8762091
:1024C000059B02B10230B4F8D421D4F8F8114A4483
:1024D000C943A2EB0A020A44D4F80412C4F8040265
:1024E000401A00FB0277012284F812228EE794F84A
:1024F000FC31032B00F07C820123CDE903336CE730
:10250000E169029801FB0AF2002800F01882B4F891
:10251000D451002D40F0138284F81352D4F80402F1
:1025200000FB1A2A94F88620CDF818A0262A00F07D
:10253000A58294F88720262A00F0A082002B3AD0AA
:10254000CDBBD4E98C23D4F83812D4F83CC28A42EB
:1025500073EB0C0380F0318394F86D30DA1E012A9E
:1025600040F2D38218460FF09BFF4A4DD4F8381240
:1025700000F5234E0EF1A10EA5FB0E3ED4E98C23EF
:1025800094F86D008439A0F1030C8A1A9244BCF1CE
:10259000010FAAEB9E1A40F215830FF081FF00F2A3
:1025A000E731A5FB0131D4F80402B4F8D45189090C
:1025B00051441039069105EB090AABF1030300FB06
:1025C0000AFADBB20AF1300A012B4FEA4A0A40F25A
:1025D000998258460FF064FF2E4B00F52340A1303E
:1025E000A3FB00304FEA901958460FF051FF0AF153
:1025F0007405274B4D442844586094F87630002BDE
:1026000042D0254AE069514606AB16F0B2FA204B9B
:1026100084F81302069A5868E1692BE1D4F80402A1
:10262000E269B4F8D431D4F8F81194F86DB0258E7D
:10263000121A99440AFB02F2D4F800320692D4F836
:10264000F021303302FB0133C943894400FB0939CF
:10265000ABF10303012B4FEA490905F1740540F280
:10266000B68158460FF01CFF0A4B00F52340A130FD
:10267000A3FB00304FEA901A58460FF009FF4D4473
:10268000034B554428445860069A8AE0D0B20200B1
:1026900004140020D34D62100814002094F86D102B
:1026A00094F8CE0116F048FA8146E06A294648447B
:1026B00010F0D4FB2946C4F80002E06910F0CEFB0C
:1026C00094F87630002B40F0D581C4F8040207A9B5
:1026D00008A80FF077FB079B0093D4E99001DDE990
:1026E000082313F08DF894F86D30059305461846CD
:1026F0000FF0D6FE059BDFF8E4A2033B00F55F4038
:10270000012B00F1410094BF28210021AAFB0030D9
:1027100001EB90118031204616F092FFD4F84C3234
:10272000E26A94F86D00069305920FF0B9FE4AF242
:10273000A13B00EB0B03AAFB0331069B059AD4F8DF
:102740000002943B13441B1A4B445B1BA3EB9113F5
:10275000069394F86D30B4F83090DA1E00F130052D
:10276000012A4FEA450509F1960940F22D811846E4
:1027700005930FF095FE8344AAFB0B3A059B4FEAA5
:102780009A1A18460FF084FE4D44954B069A55440C
:1027900028445860D4F84C32D31AB3F5917FC0F076
:1027A0000282E16966E0E36AD4F8F401294618443C
:1027B00010F054FB2946C4F80002E06910F04EFB0B
:1027C00094F87630002B40F0538194F86D90C4F863
:1027D000040248460FF064FE804D00F55F40A9F109
:1027E0000309B9F1010F00F14100A5FB003094BFCE
:1027F0002821002101EB90118031204616F020FFA6
:10280000B4F8D431002B00F0A280D4F8F431E26A9D
:10281000D4F8000294F86DA013441B1AAAF1030126
:102820000693C9B2D4F8F031D4F8F821B4F8309056
:1028300002FB0305303501294FEA450509F174090A
:1028400040F2C88050460FF02BFE644B00F5234049
:10285000A130A3FB00304FEA901B50460FF018FE4A
:102860004D445F4B069AE1695D442844586001235A
:1028700084F8FC31D4F804526FF4AD734D1B1D4441
:10288000D21BD4F84072D4F844320692854228BF55
:102890000546BA1843F10003C4F82C320023C4F8EB
:1028A000D051C4F8282284F8183204F1340016F00C
:1028B0002FFED4E98A230544C4E99023C4F81C52AE
:1028C000A4F848620BF0C2FF20B1D4F81C321E33CA
:1028D000C4F81C32B4F8C011039A8E1B002336B220
:1028E0009E4284F82032C4BF022384F82032002A9A
:1028F00040F0D080029A002A40F0D08094F8FC3159
:10290000002B40F0EC8094F81402414612F052F88B
:10291000002800F04381049B84F8103200200BB0A3
:10292000BDE8F08FD4E98C01002384F81332C4E9A8
:102930009001CA46012363E5CDF810904DE594F867
:102940001302002800F0DB80254B586892E7029BB9
:10295000002B3FF45AAFD4F8F431E26A94F86D00DA
:1029600003EB020B0FF09CFD00F52340A130A5FB0B
:1029700000304FEA9019D4F80002D4F8382294F8C5
:102980006DA0ABF1940BABEB000B9344AAF10301E8
:10299000D4E98C23C9B20129ABEB020B40F2BE8013
:1029A00050460FF07DFD94F86DA000F2E732A5FBD4
:1029B0000235AAF10301D4F80002AD09C9B2ABEBAC
:1029C00009022A4406922DE74FF0650AD9E64FF036
:1029D000650A51E64FF0650B3FE700BFD34D62102B
:1029E000041400200E2B18BFCDF80C807FF4EAAC45
:1029F000B4F89032B3427FF47FADB4F8D421B4F888
:102A00004A321344C4F8F831D4F80432C4F8F0312F
:102A1000E369C4F8F43120460CF096FCD4F898220F
:102A200094F8A43241F64B5842458CBF4FF0000851
:102A30004FF00108002B40F08C80E3699A4204D0EB
:102A4000208818F04AF8D4F89832E361D4F8943228
:102A5000E362B4F892322386D4F89C326362022394
:102A600084F8FC310123CDE9033384F87680B4E4A3
:102A70000230AAE6023028E60027C7E4B4F8902224
:102A8000B21A12043FF55AAD94F89322002A18BFE7
:102A9000934653E5029A002A3FF435AFB4F8E82193
:102AA000D2B1B4F8EA0194F8EC1100FB01118A42AA
:102AB00000F101007FF727AF002B3FF424AF002384
:102AC00084F82032A4F8EA0109F096FB00F0070030
:102AD000013084F8EC0116E7A4F8EA2113E7E16974
:102AE000D4F804324046C91A15F0CDFF80B2002850
:102AF0003FF409AF149B9BB1188001200FE7B4F895
:102B0000D4510BE54FF065096EE5D4E98C23A1F1B2
:102B1000E90CACEB020C3C21E24449E53C254EE7D4
:102B20000120FCE6E0690593294610F097F994F836
:102B30007620059B02B10230B4F8D471D4F8042297
:102B4000C4F804024F44A7EB0A07801A00FB07F7FA
:102B5000C9E4208817F0BEFF50B3B4F89032B4F83F
:102B6000A02262864FF00008B4F8A2224381013B04
:102B700003828281D4F89832A0F80E8065E794F839
:102B80006D1094F8CE01E76A059315F0D5FF059B0B
:102B90000744D4F8F40175E4FFF7E4FA40F28751F2
:102BA0003020FDF75DFC40F2D2413020FDF758FCAB
:102BB00040F232713020FDF753FC40F226513020B4
:102BC000FDF74EFCB4F8D451D4F804023C21EFE4F4
:102BD00040F23E513020FDF743FC00BFF0B585B018
:102BE000002800F010810446072900F2F380DFE896
:102BF00011F09500080008007E00F10083008B00B2
:102C0000ED0018F026F8D4E98C23801A61EB03015B
:102C1000012871F10003C0F2FF806FF00102002370
:102C200082428B41C0F20181E3690BB1B0FBF3F347
:102C300094F88720442A00F09B800E2A94F886108E
:102C400000F096804339012940F29280B4F8801058
:102C5000B4F80E220B449BB2D11A090400F1C880CB
:102C6000531C9BB2A4F80E3294F81132B4F80E1231
:102C7000002B00F0B380B4F8BA00B4F880306D4F88
:102C8000B4F84A220344B4F8B800013B1B1A9EB2C0
:102C90003B680132A4F84A2202AD53B1013989B22E
:102CA000002220469847B4F80E12014489B2A4F8D5
:102CB0000E12731A1B0462D4002300951A46204694
:102CC000FFF750FB40B3012840F0A180B4F80E128A
:102CD000B4F8C031CA1A10046ED4BDF808301944D3
:102CE00089B23B68A4F80E12002BD7D1E1E705B0FA
:102CF000BDE8F0400FF072B8012010F073FA05B093
:102D0000BDE8F040FFF7BEB990F8FC31042B40F06D
:102D10008880002380F8FC3105B0F0BD90F81032B7
:102D2000D3B1B0F80E22B0F880309A4263D0D31AF3
:102D3000A0F8C631A0F88020D4E98A232046C4E94F
:102D40008C230CF021FA94F8CB31002BE4D005B0A1
:102D5000BDE8F04017F040BDB0F80C32B0F880107C
:102D6000B0F80C22A0F880205B1AA0F8C631E3E787
:102D7000B4F80E12013189B2A4F80E127BE794F870
:102D80008A200394002A0CBF3E220822012384F8E3
:102D9000A92028468DF8083009F0E8FD204617F0F4
:102DA0001DFD002384F8FC3194F8140211F0EAFCB4
:102DB000202384F81432AFE7BDF80820114489B20B
:102DC000721A12F4004F18BF19468AE7D421302036
:102DD000FDF746FBD8213020FDF742FBB4F8C431A3
:102DE0008B427FF448AF013189B2A4F80E1242E75A
:102DF00001339BB236E7B0F8C431A0F880309B1A9B
:102E0000A0F8C63198E7A8213020FDF729FB40F251
:102E10006A613020FDF724FB40F212613020FDF79B
:102E20001FFBCE213020FDF71BFB40F21361302049
:102E3000FDF716FB2C0500202DE9F043D0F81431E6
:102E40000026D0E9548983B080F8186105460F4602
:102E500083F8CE2180F838610121D0F8140108F000
:102E60009BFDD5F81441C4E98C8995F8103184F89C
:102E70001432C4E99089C4F84C7284F8FC61A4F857
:102E8000486233460096324631462046FFF76AFADA
:102E9000D0B9012384F8FC31C4F8F801C4F8F0017A
:102EA000A4F80E02A4F80C0284F81102B4F88030E1
:102EB000A4F84A02013BA4F880300EF0A3FD03B051
:102EC000BDE8F04311F0CEBA4FF4FE713020FDF7AB
:102ED000C7FA00BFD0F81401704700BF2DE9F043D6
:102EE00085B000230322CDE90033FF268DF80620AC
:102EF0006846FDF7CBFF044620BB009D95F83831AE
:102F0000002BF5D085F860610121284617F0E8FA1A
:102F100095F83831002BEBD095F8100111F0ACFF8B
:102F200095F8100112F02AFB95F8100111F02AFC17
:102F300000283CD085F838416846FDF7A7FF0446D5
:102F40000028DAD0DFF87C80012388F808300025DB
:102F500002264FF6FF771AE0029BE3B193F81422A2
:102F6000202A18D01888B8421BD00221FDF754FF40
:102F7000814608B390F8140212F000FB99F814028D
:102F800089F8FC4111F0FEFB202389F81432CDE9C9
:102F900002558DF80E6002A8FDF778FF0446002860
:102FA000DAD0002388F8083005B0BDE8F0834FF48C
:102FB000F4713020FDF754FA4FF49A713020FDF788
:102FC0004FFA00BF04140020054B0022012142F2F9
:102FD00010705A72588119701A72FFF77FBF00BFC4
:102FE000041400202DE9F84390F83831002B77D1F4
:102FF0000446884601465648154603F0FF0711F07F
:103000008DFB202806466BD05822394604F588707F
:1030100013F0D2F884F81061C4F81481FF2384F807
:103020003831B8F1000F06D009F0FEF800F00700C3
:10303000013088F8EC0102234FF00008A4F8483171
:1030400084F840810FF05CFF00F19E062046B6B286
:1030500017F0FAF9002847D015F016FA00F5CD61FF
:1030600089B228460FF0FAFE2844C4F8440117F04C
:10307000F0FD301841F100014FF00109C4F8500192
:10308000A4F82680C4F8541184F81891204617F04B
:10309000F1F9002846D04946204617F057F96FF459
:1030A0009C631D442D1AC4F81C514FF0FF326FF081
:1030B0000043C4E9562394F8100104F5A07111F0FF
:1030C00079FC00283FD0D4E954232046C4E94A23A0
:1030D000C4E94C23002117F003FA3846BDE8F88311
:1030E0000C273846BDE8F8830146204617F02EF934
:1030F000DFF86080E530C4F84401B8F80A0008B190
:10310000E08CB8B9064417F0A4FD361841F100016F
:10311000C4E95461002DC8D0AE1941F10001C4E9E1
:103120005661C8E7484617F080FAE53D2D1AC4F805
:103130001C51BAE709F078F8B8F80A30B0FBF3F29E
:1031400002FB1300DEE74FF4E5713020FDF788F94C
:10315000712100000414002090F838310BB90020D0
:10316000704710B50446FF2380F86031012117F045
:10317000B7F994F838310BB9002010BD94F810015C
:1031800011F07AFE94F8100112F0F8F994F8100199
:1031900011F0F8FA20B1002384F83831002010BD76
:1031A0004FF4F4713020FDF75BF900BF014B58720A
:1031B000704700BF0414002090F8602182B910B558
:1031C00002F0FF0490F8182112B90122104610BD38
:1031D000D0E947319942F9D90AF010FF2246F5E7C4
:1031E00000221046704700BF08B50EF04BF8044BA4
:1031F000DA6882422ABF187A002080F0010008BDF8
:103200000414002008B540F2FF1116F021FAB0F5C1
:10321000296F28BF4FF4296080B208BD90F8CB31E8
:10322000002B75D1F0B503F0FF0590F8FC31032BAE
:1032300085B0044601D005B0F0BD17F00AFDD4E911
:103240008C23801A61EB0301012871F10003F2DB8A
:103250006FF00103834275EB01035CDBE369B4F8B3
:103260008020002B55D0B0FBF3F080B2531C1844E3
:1032700080B2A4F80C02B4F80C22B4F8C4319B1A42
:103280001BB2002BD7DD94F8140211F0F5FD0028D5
:10329000D1D0FF2384F81132B4F88050B4F8BA20AA
:1032A000B4F8B830214F1544013DED1A3B68ADB27A
:1032B0000DF10E066BB1B4F80C12013989B200227F
:1032C00020469847B4F80C3210FA83F39BB2A4F866
:1032D0000C32B4F80C32EB1A1B04ACD4B4F80C1258
:1032E000009689B2002301222046FFF73BF8002810
:1032F000A1D0012814D1B4F80C32BDF80E2012FA76
:1033000083F39BB2A4F80C323B68002BD3D1E0E7E7
:1033100070471846AAE740F2BB513020FDF7A0F8ED
:1033200040F202613020FDF79BF800BF2C05002021
:103330002DE9F043044683B0062900F2FE80DFE861
:1033400001F0042512222B327600D0E98C23D0E93B
:103350008E0182428B41C0F093807A4B1B7A03F03E
:10336000FF02002B7DD0042384F8FC310EF04AFBD1
:1033700011F078F8B4F88020A4F80E220023A4F805
:103380004A3284F8113203B0BDE8F083032380F899
:10339000FC3103B0BDE8F0830DF0A2FFC4E98E015B
:1033A00003B0BDE8F08390F86D30DFF89891C569FF
:1033B000D0F80422033B40F26D1840F24511012B76
:1033C00088BF884699F8093095428CBFAD1A002510
:1033D0001BB9436B9D4228BF1D4604F13400D4F84D
:1033E000D07116F095F80744022011F04BFFED1B49
:1033F00025EAE575854228BF05460221284611F0D9
:1034000095FF00B92F4442463946204616F006F98A
:10341000E269D4F8D031C9F80C00D01811F0F4FEEC
:103420000028B0D140F27E313020FDF719F890F835
:103430006D5028460FF034F8033D434900F55F40D6
:10344000012D00F14100A1FB003094BF2821002193
:1034500001EB90118031204603B0BDE8F04316F037
:10346000EFB8B4F8C411009201232046FEF77AFFAA
:1034700000283FF47BAF4FF4DA613020FCF7F0FF17
:1034800094F81232002B3FF468AF94F8FC31032B10
:103490007FF463AF94F86D8014F0F6FF94F8B931BF
:1034A0000B2B48D8294AD4F8386232F81330D4F8B4
:1034B000D091C51803F5C8639FB2D4E98C23404668
:1034C000B61A0EF0E5FFA8F10302012AADB2A9EB8E
:1034D00000092ED940460EF0E3FF1B4B00F52342B6
:1034E000A132A3FB02239B09A9EB0303A3F17402FE
:1034F0005208D43B9D3205FB03F3B3FBF7F3603373
:10350000A2EB53018E424FEA530302D313449E426F
:1035100001D90FF0E5FCE06929460FF09FFC94F813
:10352000763003B102300023C4F8040284F812326A
:1035300013E76523D8E7FEF715FE40F284713020CB
:10354000FCF78EFF04140020D34D6210D0B20200AD
:10355000012A70B5064609D0022A14460D461ED02F
:103560004AB140F2AE713020FCF77AFF0DF08AFECE
:10357000C6F84C0270BD0DF085FE22460146284675
:10358000FFF75AFC0F4995F8100132460FF01AFE6A
:103590000028EFD140F297713020FCF761FFD0F89E
:1035A0004C1201222846FFF747FC064995F8100106
:1035B00032460FF007FE0028DCD14FF4F5613020D1
:1035C000FCF74EFFDD2B0000F8B5044651B1012990
:1035D0005BD1002380F818310EF014FABDE8F840F2
:1035E00010F040BFC58C002D47D12046D4E94A7663
:1035F00016F0EDFE401941F10001C01946EB010142
:1036000000220223C4E95401C4E94A0184F840219C
:10361000A4F8483194F8603103F0FF01002BDBD1AE
:10362000D4E956026FF000439A4208BFB0F1FF3F61
:103630000CD194F8100104F5A07111F0BBF9002829
:10364000CAD140F2EF613020FCF70AFF2046D4E9EE
:10365000545616F07BFED4F85831D4F85C215B1B2D
:1036600000F1E50062EB06021B1A62F10002002A7B
:10367000DFDA20460AF0C2FCAEE708F0BDFDE58CBB
:10368000B0FBF5F303FB1505AFE740F2BE71302048
:10369000FCF7E6FE90F83801003818BF01207047AB
:1036A000014B5881704700BF041400200B460622CE
:1036B00003F8032BB0F809C0C27AA1F803C09A70CE
:1036C000704700BF08B540F2C3213220FCF7C8FEA6
:1036D00010B582B090F8DE3073B903F0FF02ADF898
:1036E00004209DF804209DF80530002062F30700B7
:1036F00063F30F2002B010BD0C46363804F04EF9CB
:10370000182204232270ADF80430EAE770B50028CF
:1037100060D0437A0D460446002B3AD04089002100
:10372000FDF77AFB0646002859D0008807F0D0FD47
:1037300030880021FDF786FB002855D194F85460AD
:1037400094F8A6302BB194F8A7301E43002384F8D8
:10375000A630204604F022F9B3072BD12B461322C2
:1037600003F8032B04F109022934166850689168A4
:10377000D2F80CC0C3F80CC01032A2421E605860D0
:10378000996003F11003F0D1117819700022AA7129
:1037900070BD036DD0F80E20C3F80320428AA3F851
:1037A0000720427B036D12F0FD0F14BF012200229F
:1037B0009A70C3E7002226F0040684F8546011468C
:1037C000204604F071FF0028C8D14FF44B7132201D
:1037D000FCF746FE4FF443713220FCF741FE4FF4F4
:1037E00046713220FCF73CFE4FF447713220FCF763
:1037F00037FE00BF044B1B680022A3F8212183F889
:10380000232183F8702070471414002008B508F0B5
:103810008FF9034B18700EF04DF8032008BD00BF60
:10382000D004002008B508F083F9024B02461A7054
:10383000012008BDD00400202DE9F04106461546C0
:103840001C46A1B1B3681BB12DB12846BDE8F0817B
:103850000120BDE8F081002CF7D01749B27C09683F
:10386000BDE8F04191F84100423115F09DB8124F8A
:10387000396891F85A2091F87E0001F15B037831A4
:1038800015F092F87B683A685B79082B03D092F8C0
:103890004E1099420DD0002192F85630012BD1D014
:1038A00023B90028CED10029CCD1D2E70020BDE831
:1038B000F0810121F0E700BF1414002038B5114C4D
:1038C00020686C3003F06EFA656803F01BFA6368D9
:1038D0002860186858B103F043FA68B10EF004F993
:1038E00000200EF0ABF9636804221A7138BD40F273
:1038F000F7413220FCF7B4FD40F2F9413220FCF7E9
:10390000AFFD00BF1414002008B508F011F90449F8
:10391000044B024648681A7003F0B6FA012008BD4D
:1039200014140020D0040020F0B5524C236800226B
:103930001F6D5A72FA690E4639885981054641F25F
:103940007071A2F57A70884283B040F286804A494D
:10395000A1FB0212C2F38F221A84BA8C5A84FA8C09
:103960009A844FF47F42DA844FF6FF721A85002D55
:1039700069D00121304615F049FB3278D20923681D
:1039800093F8481009B1002A3DD1207B0021082876
:103990005961198343D003F10E0203F10D0107F0C1
:1039A00087FE002861D023685A7B42F002025A73D6
:1039B00003F11A07002D40D103F1780002683A6044
:1039C0008288BA8093F95810186D08F095F820682D
:1039D0002A4915F05DFD236829491A6D1088A3F85E
:1039E000330092F88E2083F8352003F12A0015F079
:1039F00058FD2068022105F007F820686C3003F0BC
:103A0000D1F903B0F0BD427902F0C002402ABCD126
:103A100002685A618288207B1A830828BBD193F8F8
:103A20007E00996F5873C3F80E10B3F87C0058826B
:103A30000021C3F81A10D983C4E70021304615F0DD
:103A4000E5FA2368BAE7A068694615F092F9A36819
:103A50001A786846C2F3801291E70A49A1FB021264
:103A6000920902F5506292B276E741F2EA313220D1
:103A7000FCF7F6FC141400205917B7D10D370000DD
:103A8000AD360000D34D621008B540F29D313220B2
:103A9000FCF7E6FC10B504788CB004F00F04224665
:103AA00002A903F08DFC08F043F8234A042C10709F
:103AB00002D003200CB010BD204C0399236891F86C
:103AC00000E093F878C0E645F3D191F801E093F86F
:103AD00079C0E645EDD191F802E093F87AC0E64569
:103AE000E7D191F803E093F87BC0E645E1D191F886
:103AF00004E093F87CC0E645DBD191F805C093F86B
:103B00007D108C45D5D193F87E309DF819109942DF
:103B1000CFD17F280DD000904FF07F0C606882F8E5
:103B200000C0237C227B02A903F0B6FB03200CB06B
:103B300010BDFFF7A9FF00BFD0040020141400201F
:103B40002DE9F04F044687B006290BD8DFE801F0D5
:103B5000B030100A0A0A0400AC4D68688379002B63
:103B600040F0BD800DF0A6FE032007B0BDE8F08F49
:103B70000DF0A0FEA54A136893F854108F07F3D0F8
:103B8000506881790029EFD0A14D95F900107F2967
:103B900000F0E6810291127B01922146FF227F24F0
:103BA0000092423302222C7003F0CEFA0320DCE7AD
:103BB000964DA27C2968686891F8483090F806A074
:103BC00090F80790012A83F0010B00F0B4800026E2
:103BD00091F8542012F0040300F0B78091F84D7072
:103BE000002F00F0B28091F84E70082F40F0AF80A7
:103BF00091F841704FF0000838467BB3626891F845
:103C00005BC092F800E0E64500F045810023059393
:103C10006A685279082A06D0059B91F84EC09445EF
:103C200008BF01230593B8F1000F40F0ED80BBF110
:103C3000000F40F02A814046B9F1000F09D02B68EF
:103C400093F85630012B02D01BB9059B0BB100280D
:103C500043D10DF02FFE2B6893F85420930783D0A7
:103C60000DF028FEBAF1000F3FF47EAF2968A3687B
:103C700091F84100A27C423114F096FE18B9B8F1D7
:103C8000000F00F04581624E96F900307F2B00F066
:103C9000678102932B7BCDE90073D5E90030214683
:103CA0007F2401224233347003F04EFA03205CE794
:103CB000564D2B68686893F85420570734D5C2795D
:103CC000002A57D0626893F85B1016788E4200F095
:103CD000B78093F85620012A1CD10A2045E72B68AB
:103CE00093F85420960773D5494A92F900107F291A
:103CF00000F03681029121462C7B0194FF24009430
:103D00007F2442331470062203F01EFA00232B7422
:103D100009202AE793F84E30082B02D042799A42C4
:103D2000DBD00DF0C7FD686883793BBBC379002BFE
:103D30007FF41AAF16E7A268567906F0C006A6F11E
:103D40004006B6FA86F6760942E747794DE73846E7
:103D500007F064FC002818BF8346002E40F0C680A0
:103D6000296891F8417091F85420B046384602F025
:103D7000040342E78379002B3FF4F4AE2B6893F8F9
:103D80005420960746D4D0077FF5EEAE510700F1D8
:103D9000E0801F4B93F900207F2A00F0E18002921F
:103DA0002A7B0192FF2200927F2018702B6868689E
:103DB00021464233002203F0C7F903206B68DA7909
:103DC000002A7FF4D2AE9B79002B7FF4CEAEC9E6F9
:103DD000D1077FF5C7AE530700F1B8800C4B93F9BC
:103DE00000207F2A00F0BC8002922A7B0192FF22F1
:103DF00000927F201870D5E9003021464233062218
:103E000003F0A2F90320B0E6012015E71414002006
:103E1000D0040020534A92F900107F2900F0A080BE
:103E2000029121462C7B0194FF2400947F2442338D
:103E30001470002203F088F901232B740920BDE7D8
:103E4000567893F85C108E427FF443AF967893F8DF
:103E50005D108E427FF43DAFD67893F85E108E42AF
:103E60007FF437AF167993F85F108E427FF431AF4D
:103E7000517993F8602091427FF42BAF617C93F8E5
:103E80005A2091427FF425AF27E7A368A27C4231F4
:103E900014F08AFDD0E692F801E091F85CC0E645A6
:103EA0007FF4B4AE92F802E091F85DC0E6457FF48D
:103EB000ADAE92F803E091F85EC0E6457FF4A6AEA1
:103EC00092F804E091F85FC0E6457FF49FAE92F867
:103ED00005C091F8602094457FF498AE637C91F81A
:103EE0005A209A1A53425341059391E6A1683846E5
:103EF00007F0CEFC2968804691F8542091F84100E3
:103F0000B8F1000F28D040F0020702F0040374E675
:103F10002B6893F85520023A012A3FF625AE002E71
:103F20003FF422AE0F4E96F900207F2A18D002925D
:103F30002A7B686801922146FE227F240092423348
:103F40000122347003F000F903200EE60DF0B2FCFC
:103F500044E70DF0AFFC1CE7074602F004034CE613
:103F6000FFF792FDD004002010B50E4A536819796E
:103F700002290DD9197908290FD81B79526903F143
:103F800080439268033BBDE8104052F82330184745
:103F900041F293413220FCF763FA41F2944132201E
:103FA000FCF75EFA1414002038B5194D6B681B79C4
:103FB000022B28D82B68027C83F8A420C16899665C
:103FC0001A44044692F8242183F820214268C3F859
:103FD0008820037A022B0ED00DF034FA0DF07CFE0F
:103FE0000CF0ECFB0B480DF069FD0B480DF060FD8B
:103FF0000A480DF027FB637C23B12B685B6E0BB185
:1040000001221A6038BD40F6EA013220FCF728FA96
:10401000141400204806002055555500D6BE898E40
:1040200070B53B4C63681A79032A064631D01A7979
:10403000042A2ED0226892F8542092072ED1A56827
:10404000002D42D0236893F85430002B42D03EB16B
:10405000284615F09FF830BB284615F0B6F810BB7F
:1040600063681A79022A3FD91A79082A41D81B793C
:10407000626903F180435269033B52F82330984749
:104080000C282CD86369DB68BDE8704053F82030F9
:104090001847186802F064FE0546D1E7186802F078
:1040A00061FE0546CCE763681A79022A26D91A7997
:1040B000082A28D81B79626903F180431269033BFF
:1040C000284652F823309847DAE741F29B313220F4
:1040D000FCF7C6F941F2A1313220FCF7C1F941F2F7
:1040E000B4313220FCF7BCF941F281313220FCF7C7
:1040F000B7F941F282313220FCF7B2F941F22131B5
:104100003220FCF7ADF941F222313220FCF7A8F958
:10411000141400202DE9F0471A4B93F90090B9F1DF
:104120007F0F84B02CD0184C67687F221A703B79BF
:10413000032B80460E461AD03B79062B0CBF4FF05E
:10414000030A4FF0010A236803F142050DF074F8E9
:104150002B46257B0090CDE9029A324641463846EF
:10416000019502F0E1FE28B904B0BDE8F0874FF0F8
:10417000000AE8E7606804B0BDE8F04702F044BE1A
:10418000FFF782FCD00400201414002038B5054647
:104190000C4606F02FFF420704D4A37803F0E00397
:1041A000402B0DD006F026FF830704D4A37803F03C
:1041B000E003202B04D0237803F03F03242B01D904
:1041C000002038BD0DF03EF894F9003094F802C09C
:1041D0006278002B0CF01F03ACBF1E214FF49671C8
:1041E00042EA032301FB03F31A1AB2F5877FE7D3F0
:1041F0009842E5D8054A23881068A0F8213180F854
:1042000023C12946BDE8384003F04EBC14140020F9
:104210002DE9F047344E7568AB7984B06BB3D6F8AE
:1042200000A09AF895300446894633B90378002BEC
:104230000CBF012302238AF8953028790628C3B2DF
:104240003ED0072B14BF4FF001084FF0020827485B
:1042500090F900707F2F45D07F2303700CF0ECFFA6
:10426000317B00900191CDE902780AF142034A4680
:104270002846214602F058FE20B90025284604B001
:10428000BDE8F087657815F010051CD0A169022003
:10429000FFF77CFF0546E8B13268002382F89630CC
:1042A0006369DBB15978C1F3031182F8971059782B
:1042B0001B7801F00F0143EA0123A2F89830DDE7F3
:1042C0004FF00308C3E7706802F09EFD284604B073
:1042D000BDE8F087706802F0D7FDCFE7FF2382F8D2
:1042E0009730CBE7FFF7D0FB14140020D004002058
:1042F00010B504468AB007F01BFC2378184A03F077
:104300000F03072B107002D001200AB010BD6946C0
:10431000204603F0EFF8684603F0D8F99DF8003026
:10432000002BF1D19DF80130DB07EDD50D4C019943
:1043300023689DF8110093F87E20783314F034FB45
:104340000028E1D020680121A03014F06CF8FF2192
:104350006846FFF75DFF0028D6D00220D5E700BFF2
:10436000D0040020141400202DE9F04304468BB043
:1043700007F0DEFB2378424A03F00F03082B10708E
:1043800004D0012528460BB0BDE8F08369462046DD
:1043900003F048F89DF80050002DF2D19DF801304F
:1043A00003F00303032BECD1364F3E6896F84D30F3
:1043B0006BB396F84E807B7B6BBB96F87E200199A1
:1043C0009DF8110006F1780314F0EEFA0028D8D019
:1043D00096F848203E6896F841904236002A3ED131
:1043E0009DF812000299012827D033464A4614F05E
:1043F000DBFA0028C5D038680121A03014F013F88A
:104400007B7BABBB21460120FFF78EFABAE77B68C6
:1044100093F80580CFE714F0FCFA08288146CCD049
:10442000387396F87E2001999DF8110006F1780303
:1044300014F0BAFAC145CBD0C8E74B7903F0C003FA
:10444000402BD2D133464A4614F0AEFA0028D2D1DE
:104450000299404607F01CFA0028CCD191E740466B
:1044600007F050FA00281CBF06464FF00109B7E7D5
:104470000DF032FC0CF0A2F900237B73C2E700BF01
:10448000D0040020141400202DE9F04FDFF8E8A03C
:10449000847C9346DAF8002092F84870012C83B0AF
:1044A00006468946984687F0010738D000249AF8D6
:1044B0000D502346E5B192F85410490721D4726893
:1044C000A2B3DAF804205579082D22D028460193AA
:1044D00007F0A4F8019B002818BF0746EBB19AF833
:1044E0000F307BB314F09FFA002305468AF80F3093
:1044F0008BF8005089F8004088F8007003B0BDE8E0
:10450000F08F92F84D100029D9D092F84E50082D16
:10451000DCD113B19AF80E10D1B10025E8E7836819
:104520005B7903F0C003402BC0D1C0E7DAF8042068
:104530000193106802F026FF019B0028C1D1002BD7
:10454000EBD0E7E72846B16807F0A2F90546CFE7C8
:10455000B068019107F0C4F805468AF80D000028FC
:10456000C6D014F056FA0828019903D0DAF80430BE
:104570005871BDE70D46BBE71414002008B5054B84
:10458000586802F041FC07F0D3FA034B02461A7058
:10459000012008BD14140020D00400202DE9F843A8
:1045A000764C0546A068D4F80080002303800F46AF
:1045B0000DF0D4FA064600283CD0032D4DD0052D31
:1045C00055D0A06808F1780114F0DAFB98F87E1055
:1045D000A06814F0E9FB236893F8482093F8418021
:1045E00003F1420792B9A068394614F0BBFBA068FA
:1045F000414614F0CCFB624BD3F80431002B40F061
:10460000B880052D1CD03046BDE8F88393F85420BF
:10461000520705D593F84D2012B193F84E0001E0F2
:104620006368587907F06EF900281CBF07464FF001
:104630000108D8E7032007F01DFD3046BDE8F883E8
:10464000236839681A6DC2F80A10B988D1811B6DC8
:1046500083F809803046BDE8F883A0680C234370D6
:10466000037823F00F0343F003030370AAE7D4F8A1
:104670000890226899F8001021F02F0141EA4711B3
:1046800041F00501222389F8001089F80130136DEB
:104690001B6AC9F80F30116D8B6A89F81330180A3C
:1046A0001B0C89F8140089F8153091F87630088EC3
:1046B000002B4BD1334FA7FB0030CB6AA7FB037312
:1046C000800AC3F38F2389F817301B0A89F8160074
:1046D00089F81830CB6941F27070A3F57A77874278
:1046E0003FD92848A0FB0303C3F38F2389F819306F
:1046F0001B0A89F81A308B8C89F81B301B0A89F841
:104700001C30CB8C89F81D301B0A89F81E30D1F87B
:104710008F30C9F81F3091F8933089F82330136D2A
:1047200099F8242093F89A3022F01F0203F01F0317
:10473000134389F8243006F083FC99F8243003F001
:104740001F0343EA401389F824303AE70E4FA7FBD2
:104750000030CB6AA7FB0373C0F34710C3F34F13BA
:10476000B1E70A48A0FB03039B0903F550639BB222
:10477000BCE740F23F613220FBF772FE14140020C8
:10478000001000405917B7D11F85EB51D34D62106F
:1047900038B5154C236893F854309B0718D1A56899
:1047A000E5B12368FF2093F820110CF0B9FD2846ED
:1047B0000DF09AF9236893F82031033B012B94BF45
:1047C000282000200DF03AFA636807221A7138BDDC
:1047D0006368186802F0C6FA0546E1E740F21E5128
:1047E0003220FBF73DFE00BF1414002038B51E4CEC
:1047F00023680E2093F820110CF092FD236893F8A3
:1048000054309B0724D1A56845B328460DF06CF9B8
:10481000236893F82031033B012B94BF282000200C
:104820000DF00CFA2368681D93F8205106F086FFFE
:10483000607348B1033D012D94BF552550250BF001
:104840009FFF28460DF03CFA636808221A7138BDB4
:104850006368186802F086FA0546D5E740F20B5106
:104860003220FBF7FDFD00BF1414002070B50D4D84
:10487000D5E9000302221A7103F03EFF00B170BDBA
:104880002E68044606F16C0002F0FEFAA6F82141FB
:1048900086F8234186F870402868BDE8704004F02F
:1048A00089B800BF1414002010B50A4C07F040F975
:1048B000094A637B10701BB90CF0FCFF032010BD8C
:1048C0000DF00AFA0BF07AFF002363730CF0F2FF8D
:1048D000032010BD14140020D004002070B52D4C0E
:1048E000236893F8232105465F2A93F821019CBF92
:1048F0005109294A00F03F0094BF565C00260CF095
:10490000ABFE236893F958000CF096FEEDB12368D6
:104910003246996E01200CF075FF236893F89630AB
:10492000022B0CBF4020FF2031460CF0F9FC23681D
:1049300093F8542092070ED193F89530A568A3B14F
:104940002846BDE870400DF0CFB8324673210120F3
:104950000CF058FFE1E76368186802F003FA236877
:1049600093F895300546002BEAD1681D06F0E6FE67
:1049700060730028E4D0033E012E94BF55245024D8
:104980000BF0FEFE20460DF09BF92846BDE8704076
:104990000DF0AAB814140020E8B20200F0B52E4CB5
:1049A000236893F823215F2A9EBF51092B4A575C45
:1049B0009A6E83B0064688BF0027002A40D1D3F8FC
:1049C00088000DF007F9256895F854309A0703D54B
:1049D00095F89620022A2AD05B0724D463681868C9
:1049E000CEB902F0CFFC63680646186802F0D0FC2E
:1049F000024605F19A00256895F8963095F8205101
:104A00000095314602F00AFE2268002382F82071E8
:104A1000A37303B0F0BD02F0C7FC014605F19A0094
:104A200002F0F2FDF0E795F89630012BD6D1FB1E8F
:104A3000012B0AD9394600200DF068F92568CDE729
:104A40000120FFF74BFF2368B9E795F85930012B98
:104A500014BF39460321EEE714140020E8B2020027
:104A600010B50B4C637B63B9A1680020FEF75CFFB7
:104A700023680022A3F8212183F8232183F87020E2
:104A800010BD0DF029F90BF099FE00236373EBE7DD
:104A90001414002010B50F4C637B9BB9D4E900308F
:104AA00000224FF0010C80F804C003F16C00A3F861
:104AB000212183F8232102F075F92068BDE8104018
:104AC00003F078BF0DF008F90BF078FE0023637354
:104AD000E4E700BF141400202DE9F04F0729044635
:104AE00087B040680D46904648D100287CD0637C52
:104AF000012B00F0BE80AC4E73685879082857D05F
:104B000004AA0DF10F0106F0D3FD002800F0568134
:104B10009DF80F0004A915F079F98146316891F8E4
:104B200054309F0740F0B28077684FF0000A87F852
:104B300006A091F8543013F0040376D1FB719B4B1F
:104B40001B6823B1414620469847387277686368EE
:104B500043B13268617C82F87E10196891679B8846
:104B6000A2F87C303B7A002B00F02D810123A06855
:104B700008B1072D2ED007B0BDE8F08F002800F057
:104B80009280637C012BB6D1437903F0C003402BA4
:104B9000B1D1854E737B002B75D0776813F039FF48
:104BA000736878715879307301230828B373A7D1DB
:104BB0006168607C15F02AF9726861688146053287
:104BC000607C06F053FD03460028A7D17768F88083
:104BD0003872CCE779790829CDD0002BCBD006F0FC
:104BE0009DFD0123F373C6E76F4E3168002A5DD047
:104BF00091F8543013F0030996D0776891F84CA0DF
:104C000097F806B08146BBF1000F75D06368002BA2
:104C100041D1386802F0B6FB002800F0BB804B465B
:104C20004FF00109D6E900173AE0062D91F84D3012
:104C300003D8002B82D14B4680E797F807A0082DB8
:104C400065D8B8F1000F00F09780BAF1000F5ED080
:104C50006268002AEDD13868019302F093FB18B91D
:104C6000019B002B00F0A6804FF0010977684B46AE
:104C700064E7437903F0C003402B7FF43CAF4A4E16
:104C8000737B002B45D17368587937E7062D91F86F
:104C90004CA077682ED8BAF1000F7FF448AF4B468E
:104CA000CA46994643E7404E814637E791F854306B
:104CB000706813F0030218BF012213F0040382711D
:104CC00005D02378A3F10103B3FA83F35B09C37121
:104CD00091F89430002B3FF44EAF3368D3F8900036
:104CE000503015F0C5FE00287FF445AF73680122EF
:104CF0001A7240E7082D1CD9002213F00403BA7180
:104D00003FF41CAF91F84D3097F807A097E70023C8
:104D100014E7B8F1000F7FF440AF336893F8201127
:104D200001297FF43AAF06F0DBFC70730028AAD0AB
:104D300033E797F806B0B8F1000F7FF464AF62680C
:104D4000002AA8D16278D0061CD50120B871580776
:104D5000DDD591F84D3097F807A00193D30627D4FD
:104D6000386802F00FFB019B00283FF47AAFBAF1DC
:104D7000000F3FF476AF77E76268002A7FF459AFFF
:104D80006278EAE7386802F0FDFA18B1BBF1000F6B
:104D90007FF445AFBAF1000F7FF441AF06F060FC3D
:104DA0004B4681463EE700BF14140020300500202A
:104DB0000123C3E606F054FC814657E740F69331E1
:104DC0003220FBF74DFBFB88003B18BF0123CEE6EA
:104DD00070B5194E8AB0054606F0AAFE3368174A28
:104DE00093F85430107013F0060F16D12C7804F09D
:104DF0000F0422462846694602F0E2FA21460022C4
:104E00006846FFF769FE21466846FEF799FE737B08
:104E1000044643B920460AB070BD01229621002005
:104E20000CF004FDE2E70CF057FF0BF0C7FC002389
:104E3000204673730AB070BD14140020D004002003
:104E400010B5114C06F074FE104A637B10709BB9CC
:104E5000D4E9003000224FF0010C80F804C003F1C7
:104E60006C00A3F8212183F8232101F09BFF206827
:104E7000BDE8104003F09EBD0CF02EFF0BF09EFC31
:104E800000236373E4E700BF14140020D004002063
:104E900010B5104C606801F0F7FF637B9BB9D4E953
:104EA000003000224FF0010C80F804C003F16C00C8
:104EB000A3F8212183F8232101F074FF2068BDE8C5
:104EC000104003F077BD0CF007FF0BF077FC0023D8
:104ED0006373E4E71414002010B5124C606801F00D
:104EE000D3FF06F025FE104A637B10709BB9D4E90E
:104EF000003000224FF0010C80F804C003F16C0078
:104F0000A3F8212183F8232101F04CFF2068BDE89C
:104F1000104003F04FBD0CF0DFFE0BF04FFC002300
:104F20006373E4E714140020D004002010B506F0E9
:104F3000FFFD134C134B024620681A700021A0306D
:104F400013F071FA637B9BB9D4E9003000224FF073
:104F5000010C80F804C003F16C00A3F8212183F850
:104F6000232101F01FFF2068BDE8104003F022BD9F
:104F70000CF0B2FE0BF022FC00236373E4E700BFE9
:104F800014140020D004002010B5154C606801F006
:104F90003BFF06F0CDFD02462068124B0021A030F9
:104FA0001A7013F040FA637B9BB9D4E900300022F9
:104FB0004FF0010C80F804C003F16C00A3F821212C
:104FC00083F8232101F0EEFE2068BDE8104003F0D5
:104FD000F1BC0CF081FE0BF0F1FB00236373E4E7FE
:104FE00014140020D004002010B500210320FFF786
:104FF000D5FA164C20B12068032102F055FDA8B95E
:10500000637BDBB9D4E9003000224FF0010C80F85B
:1050100004C003F16C00A3F8212183F8232101F0DF
:10502000C1FE2068BDE8104003F0C4BC0121084661
:105030000CF06CFE636809221A7110BD0CF04CFE76
:105040000BF0BCFB00236373DCE700BF14140020EB
:1050500010B51D4CD4E900030C2201211A7103F094
:10506000D3FC00210520FFF799FA20B12068062122
:1050700002F01AFDA8B9637BFBB9D4E90030002225
:105080004FF0010C80F804C003F16C00A3F821215B
:1050900083F8232101F086FE2068BDE8104003F06C
:1050A00089BC2368012093F820110CF02FFE23689F
:1050B0001B6D012283F88E2010BD0CF00DFE0BF04D
:1050C0007DFB00236373D8E71414002070B5234CD4
:1050D000236893F823215F2A9EBF5109204A565C1A
:1050E0009A6E88BF00266ABBD3F888000CF072FD68
:1050F000256895F854309A0703D595F89620022A2A
:1051000017D05B0703D595F89630012B11D0636853
:10511000186802F049F9014605F19A0002F074FAA4
:10512000D4E900130022A273062281F820611A71CB
:1051300070BDF31E012B0AD9314600200CF0E6FDAC
:105140002568E4E70120FFF7C9FB2368CCE795F861
:105150005930012B14BF31460321EEE7141400200F
:10516000E8B2020038B5154C0521206802F09CFC1D
:1051700048B12368012093F820110CF0C7FD636843
:105180000B221A7138BD637B8BB9D4E90030002241
:105190000125057103F16C00A3F8212183F8232177
:1051A00001F000FE2068BDE8384003F003BC05466E
:1051B0000CF092FD0BF002FB6573E6E7141400207F
:1051C00010B598B991B11F4A5368197908292ED999
:1051D00019790C2930D81B79526903F18043526840
:1051E000093BBDE8104052F823301847154C606861
:1051F00001F04AFE637B9BB9D4E9003000224FF0F6
:10520000010C80F804C003F16C00A3F8212183F89D
:10521000232101F0C7FD2068BDE8104003F0CABBA0
:105220000CF05AFD0BF0CAFA00236373E4E741F275
:1052300063413220FBF714F941F264413220FBF75D
:105240000FF900BF1414002038B5234C63681868A8
:1052500001F086FD00283AD063680A2205461A71DB
:105260002068002103F0D0FB22682B78126D92F8A1
:105270008E5005EA531505F0010505202946FFF774
:105280008DF948B12068042102F00EFC20B123689A
:105290001B6D83F88E5038BD637B8BB9D4E9003029
:1052A00000220125057103F16C00A3F8212183F888
:1052B000232101F077FD2068BDE8384003F07ABB78
:1052C0000CF00AFD0BF07AFA00236373E6E740F274
:1052D00063513220FBF7C4F814140020F0B52B4CB6
:1052E000236893F823215F2A9EBF5109284A575CFF
:1052F0009A6E83B088BF0027002A3AD1D3F888007D
:105300000CF068FC256895F854309A0703D595F899
:105310009620022A24D05B0703D595F89630012BFE
:105320001ED06368186802F02DF863680646186896
:1053300002F02EF8024605F19A00256895F896309D
:1053400095F820510095314602F068F9D4E9001330
:105350000022A273052281F820711A7103B0F0BDFA
:10536000FB1E012B0AD9394600200CF0CFFC256822
:10537000D7E70120FFF7B2FA2368BFE795F8593065
:10538000012B14BF39460321EEE700BF141400209F
:10539000E8B20200F0B55A4C206883B06C3001F0DE
:1053A00001FD656801F0AEFC63682860186800289C
:1053B00000F0A18001F0D4FC0546002800F09680A2
:1053C000236893F8A630002B54D1D4E9000290F85A
:1053D000A430034493F8247180F82071137913B139
:1053E0001379012B5FD190F8A520464B134418790F
:1053F0000CF032F9236893F8A420134493F8246145
:10540000022E4ED02FD9F31E012B2ED801F074FCA2
:1054100031460BF085FF28460CF066FB3146012033
:105420000CF020F9012F34D0681D06F087F9607365
:1054300048B1033F012F94BF552550250BF0A0F92B
:1054400028460CF03DFCD4E90002082100235171EC
:1054500021730321D3801372E38180F89530237484
:10546000117103B0F0BD012ED0D040F2FE71322098
:10547000FAF7F6FF236893F8542093F8A700196D04
:10548000C3F81011024383F85420002283F8A620A9
:105490009BE7E81C06F052F960730028D3D0402542
:1054A000CCE70D20B4E7002102F0FEFA08B1206835
:1054B00099E7637B93B9D4E9003000220125057197
:1054C00003F16C00A3F8212183F8232101F06AFC89
:1054D000206803B0BDE8F04003F06CBA01900CF016
:1054E000FBFB0BF06BF901986073E4E740F2564167
:1054F0003220FAF7B5FF40F254413220FAF7B0FFFC
:1055000014140020E8B2020008B506F011FB044BA9
:1055100018700CF0CFF9BDE80840FFF73BBF00BFA3
:10552000D004002010B50C4C06F002FB0B4A637B44
:1055300010702BB90CF0BEF9BDE81040FFF72ABF80
:105540000CF0CAFB0BF03AF9002363730CF0B2F9CC
:10555000BDE81040FFF71EBF14140020D004002047
:1055600038B50446FEF720FD237A032B76D03E4D56
:10557000002B48D12A683D4992F8A53092F84B009B
:105580000133A1FB034C0CF4FF7404EB5C041B1B04
:1055900040FA03FC1CF0010FDCB216D10133A1FB71
:1055A000034C2CF0010404EB5C041B1B40FA03FCCD
:1055B0001CF0010FDCB208D10133A1FB034121F043
:1055C000010404EB51015B1ADCB282F8A54092F9A8
:1055D00058000CF031F8FFF7DDFE2C6894F84830E5
:1055E00083B1D4E920126FF000439A4208BFB1F1B1
:1055F000FF3F07D015F02DFBD4E92023904271EB3B
:10560000030302D238BD2A68E1E7012006F00CF955
:105610000028F7D02D6806F045F8044615F019FB70
:1056200063011B1B4FEAD46262F10002520242EA9C
:10563000D3525B021B1942F1000C4FEA8C1E9A01F7
:105640004EEA936ED31A6EEB0C021B1942F1000264
:105650001B1842EB0101C5E9203138BD40F6191194
:105660003220FAF7FDFE00BF14140020ABAAAAAA4C
:1056700038B50446FEF798FC237A032B62D0012B41
:1056800069D051D84D4C4E49226892F8A53092F815
:105690004B000133A1FB035C0CF4FF7505EB5C05CB
:1056A0005B1B40FA03FC1CF0010FDDB216D1013385
:1056B000A1FB035C2CF0010505EB5C055B1B40FACC
:1056C00003FC1CF0010FDDB208D10133A1FB035133
:1056D00021F0010505EB51015B1ADDB282F8A550FE
:1056E00092F958000BF0A8FF2368002283F8952058
:1056F000FFF750FE256895F84830A3B1D5E9201290
:105700006FF000439A4208BFB1F1FF3F0BD015F094
:10571000A0FAD5E92023904271EB030303D30120C3
:1057200006F082F808BB38BD023B012BFBD8234CA6
:10573000236893F8950088B9FFF730F9636805226C
:105740001A7138BD1D4B1B68986E90BBFFF7C6F8E9
:10575000237A012B95D1194C2268C1E70120FFF76C
:105760001DF9636806221A7138BD256805F09AFF95
:10577000044615F06EFA63011B1B4FEAD46262F116
:105780000002520242EAD3525B021B1942F1000CA2
:105790004FEA8C1E9A014EEA936ED31A6EEB0C02FE
:1057A0001B1942F100021B1842EB0101C5E920312F
:1057B00038BD40F62F113220FAF752FE14140020A3
:1057C000ABAAAAAA2DE9F047DFF8C082D8F800609A
:1057D00096F8573086B063B1D8F80470BB790546A7
:1057E00063B12C78012C12D0022C00F0E880002C40
:1057F00058D00324204606B0BDE8F087FA79002A85
:10580000EFD13A7A002AF4D02C78012CECD196F81A
:105810002031022B6B7800F00A8103F01803182B5B
:10582000E7D196F85430590700F107819A071BD049
:10583000974B93F900407F2C00F067817F221A700C
:10584000D8F804700BF0F8FC98F80C1001910021C6
:1058500000900391029406F14203FF223846294644
:1058600001F062FB0028C4D0A9690120FEF78EFC7C
:105870000028BED0D8F80020012382F896306B694A
:10588000002B00F0F58059780224C1F3031182F84F
:10589000971059781B7801F00F0143EA0123A2F811
:1058A0009830A7E796F854209007A2D013B93B7A16
:1058B000002B9ED06B7813F0100F14BF082201222A
:1058C000C3F3001632EA030393D1AA6800238DF8CC
:1058D00015308DF816308DF81730002A00F0D4807E
:1058E0000DF117030DF116010DF115022846FEF713
:1058F000CBFDD8F800109DF8153091F84170002BC1
:1059000040F0F780AB68AA7C4231384613F04CF87F
:1059100090B9D8F8003093F85530023B012B3FF690
:1059200068AF9DF81630002B3FF463AF9DF815303B
:10593000002B7FF45EAFFE27002E00F0AB80544AB0
:1059400092F900607F2E00F0E080D8F80030D8F89F
:1059500004A003F142047F2313700BF06DFC4FF0A1
:10596000000998F80C10009001910296CDF80C9067
:1059700023463A465046294601F0D6FA00283FF41D
:1059800038AFA9690120FEF701FC00283FF431AFD0
:10599000D8F8003083F896906A69002A00F0B08049
:1059A0005178C1F3031183F897105178127801F000
:1059B0000F0142EA01220224A3F898201AE796F880
:1059C00054309B073FF415AF6B7803F01803182B86
:1059D0007FF40FAF2E4B93F90090B9F17F0F00F0D9
:1059E00094807F221A700BF027FC98F80C2001920B
:1059F000002200900392CDF8089006F14203384649
:105A0000FF22294601F090FA00283FF4F2AEA9697E
:105A10000120FEF7BBFB00283FF4EBAED8F80020D6
:105A200082F896406B69002B66D059782DE703F019
:105A30001903192B3FF4F5AEDBE669680023B1FAD0
:105A400081F11A4649092846FDF7F6FE00283FF481
:105A5000D0AEAB69D8F800609B7813F0E0030CD1AE
:105A600096F84930002B3FF4C4AE96F85430DDE68A
:105A7000FF2382F897300224BCE6402BF5D196F83C
:105A80004A30002BF1D1B4E6FF2755E7141400206B
:105A9000D00400201E4B93F900A0BAF17F0F34D040
:105AA000D8F804907F221A7099F80430032B05D09F
:105AB00099F80430062B0CBF03240124D8F80030D9
:105AC00003F142060BF0B8FBCDE902A498F80C40B4
:105AD000009033463A4629464846019401F024FA9C
